:020000040800F2
:10000000401A0020ED010008E72E0008112C00081E
:10001000E52E0008650E0008FD4500080000000000
:10002000000000000000000000000000EB2E0008AF
:100030006110000800000000E92E0008392F0008B8
:10004000070200080702000807020008070200086C
:10005000070200080702000807020008070200085C
:10006000070200080702000807020008070200084C
:10007000070200080702000807020008070200083C
:10008000070200080000000007020008070200083D
:100090009D450008070200080702000865100008D7
:1000A000070200080702000807020008070200080C
:1000B00007020008CD2F0008070200080702000809
:1000C00007020008070200080702000807020008EC
:1000D00007020008070200080702000807020008DC
:1000E00007020008070200080702000807020008CC
:1000F00007020008070200080702000800000000CD
:1001000000000000070200080000000007020008CD
:1001100007020008000000000702000807020008AC
:10012000070200080702000807020008070200088B
:10013000070200080000000000000000070200089D
:10014000070200080702000800000000000000008D
:10015000000000000000000000000000000000009F
:10016000000000000000000000000000070200087E
:10017000070200080000000000000000000000006E
:10018000000000000702000800000000000000005E
:10019000000000000000000000000000000000005F
:1001A000000000000000000007020008070200082D
:1001B000070200080702000807020008000000000C
:1001C000000000000702000800000000000000001E
:1001D0000702000807020008DFF80CD000F08CFBD3
:1001E0000048004751460008401A00200648804752
:1001F00006480047FEE7FEE7FEE7FEE7FEE7FEE70C
:10020000FEE7FEE7FEE7FEE7B12F0008D901000890
:10021000D2B201E000F8012B491EFBD27047002248
:10022000F6E710B513460A4604461946FFF7F0FFF5
:10023000204610BD421C10F8011B0029FBD1801A7A
:10024000704770B5064604F06DFB046805460A2247
:100250000021304600F03EF92C6070BD2DE9FE4FC4
:1002600081EA030404F0004421F0004100944FF0BF
:10027000000B23F0004350EA01045ED052EA03046D
:100280005BD0C3F30A54C1F30A552C44A4F2F334EF
:100290000194A0FB0254C1F3130141F48011C3F394
:1002A000130343F4801301FB024400FB034E840A52
:1002B000970A44EA815447EA8357A4FB07680295EA
:1002C0008D0A05FB07854FEA932C04FB0C54270588
:1002D000029D4FEA065847EA1637B5EB08056EEB64
:1002E000070C870E920E47EA811742EA8312A7FB9A
:1002F0000201B6EB0B0164EB00042B0D43EA0C3357
:100300005E1844EB1C50DA465146E7FB0201C5F388
:1003100013044FEA0B3343EA14534FEA0432019CAF
:1003200043EA0603A4F10C040294009CCDE900B456
:1003300000F04EF903B0BDE8F08F00200146F9E768
:1003400000F0004230F000400AD0C10D01F56071AC
:10035000C0F3160042EA0151C2084007114370473A
:1003600000200146704701F0004330B421F0004105
:1003700050EA010206D00A0DA2F56072C1F3130122
:10038000002A02DC30BC00207047440F44EAC1045C
:10039000C100E01830BC00EBC25000F0D3B830B55B
:1003A0000B46014600202022012409E021FA02F533
:1003B0009D4205D303FA02F5491B04FA02F52844CD
:1003C000151EA2F10102F1DC30BD2DE9F05F0546FA
:1003D000002092469B4688460646814640241BE004
:1003E000284641464746224600F0A7FA53465A4659
:1003F000C01A914110D311461846224600F08EFAD9
:100400002D1A67EB01084F4622460120002100F01B
:1004100085FA17EB00094E41201EA4F10104DFDC30
:10042000484631462A464346BDE8F09F0FB40B00CC
:1004300010B58AB00FA900910E994FF00004234A1D
:10044000CC60214CCDE9064200D004236FF000427D
:10045000CDE901321E4A089202466B46002000F0A8
:1004600031FB0AB010BC5DF814FBF0B585B007464F
:100470004FF0FF300091CDE901011E4600201546E6
:100480000C4604903B466A46314604A8FFF7CEFF6F
:1004900004990346601825B109B1024600E02246DE
:1004A0002A6000290ED0002B02DD0099814209D07C
:1004B0000094001BCDE901043B466A46314604A87E
:1004C000FFF7B4FF05B0F0BDFD0C00081B0D0008E0
:1004D000890900082DE9F04791460F4680460446F9
:1004E000002614F8015B2DB100F04AFA0068405D67
:1004F000C007F6D12B2D02D02D2D18D0641E4A46F0
:100500003946204600F01AFC27B13968A14201D1D2
:10051000C7F8008071054FF002040BD54042002857
:1005200003DD04F0FFF90460A007BDE8F08746F49E
:100530008066E4E70028F8DA04F0F4F904606FF06C
:100540000040F2E70029A8BF7047401C490008BFDF
:1005500020F00100704710B4B0FA80FC00FA0CF0F3
:1005600050EA010404BF10BC704749B1CCF120042B
:1005700021FA04F411FA0CF118BF012121430843B8
:10058000A3EB0C01CB1D4FEA00614FEA102042BFE4
:10059000002010BC704700EBC35010440029A4BFDA
:1005A00010BC7047401C490008BF20F0010010BC7F
:1005B000704710B5141E73F1000408DA401C41F1B5
:1005C000000192185B411A4301D120F0010010BDD7
:1005D0002DE9F04D92469B4611B1B1FA81F202E04D
:1005E000B0FA80F22032904600F098F904460F46A7
:1005F00040EA0A0041EA0B0153465A46084313D029
:10060000114653EA010019D0C8F14002504600F0EB
:1006100094F905460E4650465946424600F07EF98A
:10062000084305D0012004E020463946BDE8F08D9E
:100630000020054346EAE0762C4337430A986305D9
:10064000E40AA0EB08000022FD0A44EA47540A30FD
:1006500002D500200146E9E7010510196941DDE9ED
:10066000084500196941BDE8F04DA2E72DE9FE4FAC
:10067000804681EA0300C00F0C46009021F0004143
:1006800023F00045B8EB0200A94105D240462146BF
:1006900090461C460B46024623F00040104347D0CC
:1006A000270DC7F30A00C3F30A510290401A0190C4
:1006B00040286BDAC3F3130040F4801B0098924685
:1006C00020B10023D2EB030A63EB0B0B01985946D0
:1006D000C0F14002504600F021F906460D46504652
:1006E0005946019A00F039F910EB080061410024E5
:1006F00087EA115284EAE7731A4340D0009A62B342
:10070000019A012A4FEA075215DC001B61EB020136
:100710004FF0004202EA0752CDE90042001C41F5C9
:10072000801132462B46FFF753FF03B0BDE8F08F30
:1007300040462146F9E7001B61EB0201001C41F530
:10074000801300185B412018A2F5001747EB030146
:1007500040EAD570B6196D4111E06D084FEA3606D2
:1007600045EAC0754FEA0752001B61EB0201001C0D
:1007700041F5801149084FEA3000001951413246D5
:100780002B4603B0BDE8F04FFFF713BF00980122DE
:1007900040000023D0EB020263EBE0730098214697
:1007A0004FEAE074B8EB000061EB0401E9E783F085
:1007B00000435BE781F0004158E72DE9F04D81EA05
:1007C000030404F0004B21F0004514464FF0000AEA
:1007D00023F0004150EA050220D054EA01021DD066
:1007E000C5F30A570246C5F31303C1F31300C1F35F
:1007F0000A5640F4801543F48013A7EB0608101B3B
:10080000D64608F2FD3873EB050002D308F1010863
:1008100001E092185B41B8F1000F03DA00200146B5
:10082000BDE8F08D00204FF48011064684460EE0AE
:10083000171B73EB050705D3121B63EB0503064378
:100840004CEA010C49084FEA300092185B4150EA2B
:100850000107EDD152EA030012D082EA040083EAD4
:100860000501084305D0101BAB4106D2012200232D
:1008700006E000224FF0004302E06FF00102531047
:100880001AEB06004CEB085110EB0A0041EB0B0190
:10089000BDE8F04DFFF78DBEC1F30A52C1F313015D
:1008A00040F2FF3341F480119A4202DA00200146FF
:1008B000704740F233439A42A2F2334202DC524282
:1008C00000F03BB800F02AB830B5041E71F1000406
:1008D00004DB4FF00044404264EB0101141E73F14D
:1008E000000405DB1C464FF00043524263EB040357
:1008F000994208BF904230BD064C074D06E0E068C3
:1009000040F0010394E8070098471034AC42F6D356
:10091000FFF766FC7853000898530008202A04DB90
:10092000203A00FA02F1002070479140C2F1200302
:1009300020FA03F3194390407047202A04DB203A41
:1009400021FA02F00021704721FA02F3D040C2F1EF
:1009500020029140084319467047202A06DBCB1736
:10096000203A41FA02F043EAE07306E041FA02F36A
:10097000D040C2F120029140084319467047000060
:1009800000487047F052000810B50446FFF7F8FF22
:100990000068005D00F0010010BD00002DE9FF4F70
:1009A000087883B09946FF2805D0491C2D2804D02B
:1009B0000024002008E000200BE00124F9E700EB10
:1009C000800003EB4000491C0B78FF2BF7D104B1EA
:1009D000404200230293147819461D462D2C01D065
:1009E0002B2C04D1521C2D2C13D000240294AA4687
:1009F0001478FF2C0FD00A25A3FB057801FB058195
:100A00004FF0000C03FB0C11521CE3194AEB0101DF
:100A1000EEE70124EAE7814453EA010002D019F528
:100A2000C87F06DA03980021C0E9001107B0BDE8CD
:100A3000F08F0025AE4E2F46DFF8B882184600F042
:100A4000DAF9CDE90001B9F1000002DAC9F10004D8
:100A500000E004460023A74A1AEB030B42EB045ABA
:100A600012E0E00707D02A46334638464146FFF7F2
:100A7000F5FB074688462A46334610461946FFF7D7
:100A8000EDFB05460E466410002CEAD1DDE90001BD
:100A9000B9F1000F5A46534606DAFFF78EFE3A4682
:100AA0004346FFF78AFE05E0FFF7D8FB3A46434688
:100AB000FFF7D4FB029A0AB181F00041039AC2E920
:100AC0000001B3E72DE9FF4F1F468DB0D7E901467E
:100AD0004FF0FF382E2045464FF000090B90B969C2
:100AE0006D1C0E988847396A824688470028F6D1DF
:100AF000BAF1FF3F0AD024F4D064002E11DDBAF120
:100B00002B0F08D0BAF12D0F0BD102E0404611B0E7
:100B10008DE744F48064B9696D1C0E98884782465D
:100B2000761E6946600501D52D2000E02B208DF84A
:100B3000000001F1010B0DF1200809E0B9696D1CFD
:100B40000E98884782460F9844F40074761E05601C
:100B5000002E02DDBAF1300FF0D00B998A453ED15C
:100B600044F0800406E00F99681CA9F1010944F4DF
:100B700000740860B9696D1C761E0E98884782461D
:100B80003028F0D02BE00B998A4505D1200603D4FC
:100B900044F08004761E18E0504603F0C3FF08B30B
:100BA0000DF11302761EAAF1300044F4007493454F
:100BB00006D20BF8010B200607D5A9F1010003E0CE
:100BC000200602D409F101008146A00502D50F9943
:100BD000681C0860B9696D1C0E9888478246002E13
:100BE000D1DC53E0002E51DDBAF1650F02D0BAF12D
:100BF000450F4BD1A00549D5B9696D1C24F440744B
:100C0000761E0E9888478246002E0CDD2B2804D0D5
:100C1000BAF12D0F07D144F48074B9696D1C0E9898
:100C200088478246761EE00501D52D2100E02B2164
:100C300008F8011BCDF82C8021E00DF12901761E6A
:100C400044F4007488450CD2AAF1300010F0FF0083
:100C500088F8000002D10B99884509D908F10108EC
:100C600006E0E00501D5244801E042F20F7081461C
:100C7000B9696D1C0E98884782460F980560002E52
:100C800004DD504603F04EFF0028D6D1F9690E98D6
:100C90008847FF208BF8000088F8000000200690AD
:100CA00007904B466A4608A906A8FFF777FEA005FD
:100CB00002D46FF001002AE714F0240F0AD0E007F5
:100CC00014D1DDE906123868031D3B600068C0E9F5
:100CD00000120BE0DDE90601FFF745FB0146E007E6
:100CE00004D13868021D3A600068016028460EE7AA
:100CF000000014400000F03FF1D8FFFF426842B10D
:100D0000016811F8013B23B1521EC0E900121846D8
:100D100070470121C160881E704742685AB1C3689C
:100D2000016843B983688B4205D0491E521CC0E953
:100D30000012002070474FF0FF3070472DE9F05F40
:100D400082460078002715468B460AF10104B94611
:100D5000302801D09DB113E014F8010B0127782849
:100D600003D0582801D045B10AE00DB1102D07D1AC
:100D70000027102514F8010B02E0082500E00A25E1
:100D80000026B0460EE005FB080005FB06F1012732
:100D900001EB10461FFA80F8B6F5803F00D3B94644
:100DA00014F8010B294600F018F80028EBDABBF123
:100DB000000F05D00FB1641E00E05446CBF8004090
:100DC000B9F1000F06D003F0ADFD02210160C81E8D
:100DD000BDE8F09F48EA0640FAE73A2800D23038EA
:100DE00020F02002412A01D3A2F13700884201D32A
:100DF0004FF0FF3070470EB540F2334202920022AE
:100E0000CDE900221346FFF7E3FB03B000BD70B548
:100E10008C1810F8015B15F0070301D110F8013BA5
:100E20002A1106D110F8012B03E010F8016B01F82C
:100E3000016B5B1EF9D12B0705D40023521E0DD484
:100E400001F8013BFAE710F8013BCB1A921C03E0D2
:100E500013F8015B01F8015B521EF9D5A142D8D30A
:100E6000002070BDFEE700207047002070470000A2
:100E700010B57A4C05490022204602F033FA0449A5
:100E8000204602F029FA002010BD00BF980A002079
:100E9000B00600202DE9F84F484E04468B46214607
:100EA000304602F019FA304602F0E2F9444801787F
:100EB00039B3444FDFF81091DFF810A100264FF04E
:100EC0000108DBF80000B5B2A84240F27380605D13
:100ED000396808700121386800F0ACF83868421CA5
:100EE0003A60615D0D2901D00A2903D189F800809B
:100EF000504603E0524502D0082900D1386001363F
:100F0000DFE72178A1F16402132A0DD8DFE802F0AF
:100F10000A371937403737374C37373737372A359D
:100F20001450374E032144E046290AD0522919D0E3
:100F3000532922D0542922D125480021017025A00F
:100F400019E0324C0121012204F1006000F0FAFAAC
:100F50006FF0010018212061206840F0010020603E
:100F60002BA012E0214800210160214801601848AF
:100F7000012101701FA0162107E0052119E02B4C6B
:100F80002046FFF757F981B2204600F053F811E0F0
:100F9000264C2046FFF74EF981B2204600F04AF871
:100FA00008480A49016005E0022102E0012100E051
:100FB000042101700020BDE8F88F00BF840E0020DE
:100FC00081020020800E00208202002048140020B0
:100FD000800200204175746F5472696767657220E2
:100FE00073746F70706564210D0A00008802002020
:100FF000840200204175746F5472696767657220BE
:1010000073746172746564210D0A0000000400406D
:101010004D616E75616C2073686F742054726967DE
:101020006765726564210D0A0000000086010020DA
:101030000020704710B50A4601460848D0F8BC02A7
:10104000D0F8140208B1012010BD044C204602F073
:1010500049F92046BDE8104002F0A4B9840E0020F2
:101060007047000010B5054C2020A0474020A04745
:1010700080202146BDE81040084700BFA1130008AA
:1010800070470000A6487E49027F032A03D0022A47
:1010900011D0012A1BD10B6802F0FE02022A43F490
:1010A00000630B600B6823F400630B600B6843F470
:1010B00000730B600BD10A6842F480520A600A6820
:1010C00022F480520A600A6842F480620A600021B9
:1010D00001777047C007934803D0016841F00401CD
:1010E0000160016841F48031016070478D49C0B2F0
:1010F0000A6822F4FC7242EAC0000860086840F006
:1011000002000860086840F480300860704700BF43
:1011100010B5844A136843F480231360EFF3108200
:10112000EFF3108372B6402310C9013B10C01C06B8
:10113000FAD182F3108810BD70B5114E044600F04C
:1011400007FA05463068C00306D500F001FA401BD7
:10115000A042F7D9032070BD30684CF2FA31084044
:1011600006D06F494A6802434A603060012070BD72
:101170003068C0071CBF01203060002070BD00BF78
:1011800010200240B0B5044600F0E2F90546F648EA
:10119000611C406818BF044400F0DAF9401BA0420B
:1011A000FAD3B0BD2DE9F843DFF87491054699F8FC
:1011B0000000012801D102265EE00120884689F85E
:1011C00000004FF47A70FFF7B7FF0646002850D1B1
:1011D00000202B4CC9F8040021682068890503D43D
:1011E00040050FD4002012E020F400702060206839
:1011F000400551BF0120206820F48060206048BF76
:10120000032004E0206820F480602060022089F838
:101210001C00286801280CD16868FFF75BFF4FF4B9
:101220007A70FFF789FF0646606920F0040060616C
:101230001DE04FF0FF30C8F80000A8680746E968D5
:10124000084487420FD23846FFF750FF4FF47A70B8
:10125000FFF772FF0646606920F4FD70606126B9F1
:10126000A8680137EBE7002601E0C8F80070FFF737
:1012700009FF002089F800003046BDE8F88300BF70
:10128000002002402748016841F0004101600068E9
:10129000C043C00F704700BF2DE9F041DFF88080E8
:1012A000064698F80000012804BF0220BDE8F0813E
:1012B00001201F4615460C4688F800004FF47A704E
:1012C000FFF73AFF38BB0020C8F8040086B1701E53
:1012D000012808D820462946FFF71AFF022E02D11E
:1012E0006FF480240FE04FF47A70FFF725FF12E0CF
:1012F0000C48016841F0010101602560BFF36F8F68
:1013000067606FF001044FF47A70FFF715FF05492D
:101310000A6822400A60002188F80010BDE8F081C8
:101320005C020020142002400648C168B1F1FF3F72
:10133000C4BF002070470449016004490160C068CF
:10134000C00F70470820024023016745AB89EFCDED
:1013500080B580280ED0402815D020281DD1704897
:10136000012100F0E7F80D480178B1B14168013181
:10137000416080BD6A484FF48071A0F58050BDE89F
:10138000804000F0D7B86648022100F0D3F8034847
:10139000017811B181680131816080BD8002002037
:1013A00003490A68024208BF70470860FFF7D0BFD0
:1013B000140401402DE9F84F594A4FF006094FF047
:1013C000000B4FF0010A4FF0000C904200F1384240
:1013D00008BF4FF005094FEAB223052B38BF4FEA8B
:1013E000B22900220D6835FA02F408BFBDE8F88F73
:1013F0000AFA02F415EA040800F085804F68122FFB
:1014000000F287800AFA07F515F0061F00F08180C8
:101410000323D0F808E0CE6803FA0CF52EEA0503A2
:1014200006FA0CF66FEA050E5500334383603B095C
:101430004668934026EA040423434360C3688E68E9
:1014400003EA0E03AE403343C36047F01003122B90
:1014500011D10BF01C030F2404FA03F66FF0030400
:1014600004EA520707443C6AB4430E6906FA03F3E0
:1014700023433B624F68036807F00304AC4003EA70
:101480000E0323430360FB003DD5284C254F22F07B
:10149000030523683D4443F00103236023680F24C0
:1014A00003F0010300930BF00C03009E9C4009FA2B
:1014B00003F31F4EB646AE5926EA0404234345F80B
:1014C0000E303B684D6843EA0804EE0358BF23EA38
:1014D00008043C60AE037B6843EA080458BF23EA73
:1014E00008047C60EE02BB680F4E43EA080458BF54
:1014F00023EA0804BC60AD02336843EA080458BF1D
:1015000023EA080434600BF1040B0CF1020C0132E5
:1015100068E70323654603FA0CF46FEA040E8DE7CF
:1015200000140048000401400C0401406010024017
:1015300008FCFFFF426902EA0103914341EA0341CB
:10154000816170471823002A08BF2823C1507047C3
:1015500006480068704700BF1C48044940680A6894
:1015600010440860704700BF040000203C160020B3
:1015700080B5032000F072F8002000F007F808B1F1
:10158000012080BD00F026F8002080BD70B50F4E10
:1015900004467068B0B14FF47A71B1FBF0F00C49B9
:1015A0000968B1FBF0F001F01FFB01250F2C0AD8F0
:1015B00048B94FF0FF3021460022002500F032F8F4
:1015C000346000E00125284670BD00BF0400002003
:1015D0002C00002082B00B48816841F0010181603D
:1015E000816801F0010101910199016841F0805188
:1015F0000160006800F080500090009802B000F098
:1016000077BE00BF58100240002808D400F01F0128
:101610000122400902FA01F1014A42F82010704704
:1016200000E100E070B5134B4FF0FF351B68C3F3CA
:101630000223DC1E83F0070338BF0024042B28BFDD
:10164000042305FA04F605FA03F3B2439943A140D3
:101650001143BDE8704002F0D3BF00BF05494FF60B
:10166000FF030A681A4060F30A2203481043086027
:10167000704700BF0CED00E00000FA050168B1F80A
:10168000542042F00102A1F854200122C0F8E822BF
:10169000002280F8E022B1F8540040F00200A1F8E6
:1016A000540000207047000010B5044601290FD0F7
:1016B000C9B9A06930B101F041FC0B48016821F0C3
:1016C00006010160D4F8F002BDE8104002F03EB817
:1016D000D4F8F00202F09CF8A06920B10248016839
:1016E00041F00601016010BD10ED00E0B0B501F061
:1016F000070501EB8104090605EB850500EBC40431
:1017000000EBC50000F1280058BF04F5B4702AB101
:10171000012103810173190C418102E00021C38082
:1017200001730020B0BD01EB810200EBC202D0F8D2
:10173000F002D26B01F0EFBE01EB810200EBC202BE
:10174000D0F8F002D2F87C2101F038BF10B5044681
:1017500001F00700090600EB800104EBC1015DBF49
:10176000002281F8692101F5B471012244BF81F89A
:1017700029202831087094F8A802012804BF02200B
:1017800010BD012084F8A802206802F0C3FB0020ED
:1017900084F8A80210BDB0B50446406801F00F02FD
:1017A000824201D9012523E001F0070009064FF02C
:1017B000000500EB800104EBC1015DBF002281F850
:1017C000692101F5B471012244BF81F82920283133
:1017D00008708D7094F8A802012801D1022507E055
:1017E000012084F8A802206802F025FC84F8A852A1
:1017F0002846B0BD01F0070101EB810100EBC100FB
:10180000D0F884017047B0B5044601F0070009061E
:1018100000EB800104EBC1015DBF002581F8695137
:1018200001F5B471012544BF81F8295028310A61BE
:10183000CB7008704A7802B1C881022B04BF002027
:10184000087194F8A802012804BF0220B0BD01204D
:1018500084F8A802206802F03BFA002084F8A8026D
:10186000B0BDB0B501F00701002501EB810400EB2C
:10187000C40404F5BE772CC784F8681104F5B4716C
:1018800084F86951006802F027FC0020B0BDB0B5B3
:101890000446406801F00705854284BF0120B0BDC1
:1018A000080609D401EB8100002104EBC00080F898
:1018B000691100F5B47108E005EB8500012104EB26
:1018C000C00080F8291000F1280194F8A822012016
:1018D0000D708870012A04BF0220B0BD84F8A802F0
:1018E000206802F0E1FB25B9206804F52C7102F0B4
:1018F000A0FB002084F8A802B0BDB0B501F0070439
:10190000002504EB840100EBC10101F8284F0124FC
:1019100001F1140781F824402CC70B624C70006859
:1019200002F0DAFB0020B0BD2DE9F84F0446006854
:1019300002F03AFE000400F18380206802F034FED9
:1019400040050DD52068B0F8441021F48061A0F85E
:101950004410204600F00AFC2046002100F02EFC36
:10196000206802F021FE01462068490405D5B0F840
:10197000441021F48041A0F8441002F015FE014605
:101980002068890405D5B0F8441021F40051A0F86E
:10199000441002F009FE01462068C90420D5B0F8C1
:1019A000401021F00401A0F84010B0F8401021F0E0
:1019B0000801A0F8401094F8E002012806D10020A8
:1019C000002184F8E0022046FFF76EFE204600F07A
:1019D000DFFB2068B0F8441021F48051A0F84410D7
:1019E00002F0E2FD000515D52068B0F8401041F086
:1019F0000801A0F84010B0F8441021F40061A0F8EC
:101A00004410B0F8401041F00401A0F84010204606
:101A100000F004FC206802F0C7FD000640F10E83D0
:101A20002068B0F8441021F08001A0F8441094F828
:101A3000E012002900F0E882204600F0EFFBFDE212
:101A400004F52C70009040F60F752068B0F9441032
:101A5000B1F1FF3F3FF772AFB0F8442012F00F082A
:101A60004DD030F828904FEA480A5FEA094140F12A
:101A7000408130F81A102940803120F81A1008EB04
:101A8000880104EBC10B9BF874110BF5B4760029A7
:101A900000F0A1809BF86B11022940F0AB80B0F8F8
:101AA00050105FEA494301EB0002317802EBC102BA
:101AB00000F1D680B2F80674DBF880316FF39F270F
:101AC000DA1B4FF0000338BF1A46CBF8802109D843
:101AD00030F8212043F60F731A404AF280035A402F
:101AE00020F821205FEA496200F19A8030F8212035
:101AF00048F2C0032A401A4320F8212090E00188D0
:101B0000D2062AD4294001F500410180B0F85010D6
:101B1000084494F8281000EBC100E16BB0F802040F
:101B20006FF39F20606408440021E0632046FFF7C4
:101B3000FAFD94F82400002887D0206C00287FF458
:101B400084AF206894F8241041F08001C9B2A0F855
:101B50004C10002084F8240077E70A0565D40904B6
:101B60007FF573AF018800F2064229408031018081
:101B7000B0F8501094F86831114431F833306FF3F5
:101B80009F23C4F88431A3B1D4F87C1189B1B4F88F
:101B90006E2102F00CFDD4F87C01D4F884110844C5
:101BA0000021C4F87C012046FFF7C6FD206800F242
:101BB0000642D4F87831B0F85010002B00F09E8027
:101BC0003E2B00F2A38003F0010505EB530340F622
:101BD0000F759B02A7E0B0F850103278014401EB7A
:101BE000C201B1F806746FF39F27002F69D0BBF8CC
:101BF0006E2160E0317848F2C00330F821202A409D
:101C00001A4320F8212030F82120B0F8503000EBA2
:101C1000C1011944520447D4B1F806746FF39F27E9
:101C2000002F4ED0BBF8722145E0B0F8501094F868
:101C30006821014401EBC201B4F86E21B1F8063409
:101C400000996FF39F23C4F8843102F0B0FC206840
:101C50000188294080310180204600F0C3FAF4E673
:101C6000B2F80274DBF880316FF39F27DA1B4FF074
:101C7000000338BF1A46CBF8802109D830F821205C
:101C800043F60F731A404AF280035A4020F821208D
:101C90005FEA49620CD530F8212048F2C0032A409F
:101CA0001A4320F8212003E0B1F802746FF39F2754
:101CB0003FB1BBF87021DBF87C113B4602F077FCAA
:101CC00000E000270BF5BE7207CA3A443844CBF84F
:101CD0008421CBF87C0119B1DBF87801B84204D932
:101CE00031782046FFF728FD03E02068314602F0F6
:101CF000F3F95FEA09607FF5A8AE20E08B5ADE4E6B
:101D000023F4F8438B528B5A33430CE0DD064FF03B
:101D1000FF364FEA531508BF06EB5315D64B43EA7F
:101D2000852340F60F758B5243F60F7201881140E0
:101D30004AF2800202F580525140018085E6206817
:101D400040F60F7B30F81A10294001F5004120F8C9
:101D50001A1008EB880104EBC1025FEAC95102F1D5
:101D6000280A49D592F82B10022945D1B0F8501015
:101D70005FEA496501EB00039AF8001003EBC10329
:101D80004FEAC10C54D4B3F80654166C6FF39F2578
:101D9000731B4FF0000638BF3346136440F2858052
:101DA0005FEA49430AD430F821304AF2800606F54A
:101DB000005603EA0B03334320F82130134613F88F
:101DC0004C1F012940F01181174657F8488F57E9F9
:101DD00004E157F8046C29442E44F04547F80C1CE4
:101DE00047F8046C7ED2B8F1000F00F0A680002501
:101DF000C6461D703D60A3E0156CB0F8501000267B
:101E000043189AF8001003EBC103B3F802346FF3E0
:101E10009F23ED1A38BF3546156442D9D16B556CF6
:101E20001944D163E9185164514602F055F90AE6A4
:101E3000B3F80274156C6FF39F27EB1B4FF000058E
:101E400038BF2B46136437D95FEA49430AD530F8C7
:101E500021304AF2800505F5005503EA0B032B43B8
:101E600020F82130154615F84C1F012940F0BD809F
:101E7000134653F848EF53E9049153F8048C39445E
:101E800008EB0706CE4543F80C1C43F8046C2DD232
:101E90004FF00008BEF1000F85F8008029D1BE4642
:101EA00029E02046FFF73FFCCDE52046FFF73BFC4D
:101EB0005FEA494007D598E02046FFF734FC5FEA27
:101EC000494040F192809AF8000021684AF280036C
:101ED00003F5005331F8202002EA0B021A4321F8DF
:101EE000202082E0A8EB0E033B6029E0AEEB09085E
:101EF000CE46C3F8008092F82930012B14D0002B75
:101F00005ED14CF00203B0F85070BEF1000F0344F4
:101F100003F5806336D0BEF13E0F43D80EF00105C5
:101F200005EB5E05AD024AE04CF00203B0F85050FC
:101F300003442B44A3F800E442E00026AE461E70A2
:101F400092F82930012B14D0002B49D14CF0060314
:101F5000B0F85050BEF1000F034403F5806319D070
:101F6000BEF13E0F2ED80EF0010606EB5E06B6025D
:101F700035E04CF00603B0F8505003442B44A3F86E
:101F800000E42DE0FD5A25F4F845FD52FD5A45F4D4
:101F9000004514E0EE5A26F4F846EE52EE5A46F4A6
:101FA00000461CE05FEACE654FF0FF364FEA5E1553
:101FB00008BF06EB5E154FF4004646EA8525FD5244
:101FC000128E0EE05FEACE664FF0FF374FEA5E16E4
:101FD00008BF07EB5E164FF4004747EA8626EE522D
:101FE000528E1FFA8EF302F0FCFA9AF80000216874
:101FF00040F63F7331F820201A4048F2C003103BEE
:102000005A4021F820201EE5B0F8401041F00401AC
:10201000A0F84010B0F8401041F00801A0F84010BE
:10202000012184F8E0123C21B0F8540001EA90004C
:102030000121C4F8E4022046FFF736FB206802F0D5
:10204000B3FA800509D52068B0F8441021F4007176
:10205000A0F84410204600F0ADF8206802F0A4FA81
:10206000C00506D52068B0F8441021F48071A0F8AE
:102070004410BDE8F88F00BF0080FFFFF0B585B0C9
:10208000002852D0044690F8A90228B9002084F80C
:10209000A802204600F04CF8032084F8A90220682A
:1020A00001F0BEFF6168002001220023DDB2A942D9
:1020B0000FD905EB850604EBC60686F82830F586B1
:1020C00086F82920C6E90E00306486F82B0001331B
:1020D000ECE700200022D3B299420FD903EB83032F
:1020E00004EBC303C3E95E0083F86821C3F88001F1
:1020F00083F86B0183F869010132ECE704F1080E03
:1021000020689EE8EC508DE8E05001F07DFF002053
:10211000012184F8240084F8A912E169012905D17C
:102120002046FFF7ABFA002000E0012005B0F0BD2B
:10213000E0B500680B49884218BF8CBD0A480022F0
:10214000016841F4000101600021006800F4000012
:10215000019001981420FFF765FA1420BDE88C4027
:10216000FFF752BA005C00405810024010B5044618
:102170008068022818BFFEF783FFD4F8F00201211F
:1021800001F0FAFAD4F8F002BDE8104001F0B5BA57
:1021900010B50446806930B12748016821F0060176
:1021A000016000F0CBFED4F8F002BDE8104001F071
:1021B000CDBA00BFD0F8F00201F0D2BA10B5044693
:1021C00090F8A802012804BF022010BD84F8241052
:1021D000012084F8A802206802F0FDF9002084F8AC
:1021E000A80210BDD0F8F02200F52C71104601F0C5
:1021F000CFBA10B5044690F8A802012804BF022007
:1022000010BD012084F8A802206802F0BDF9206802
:1022100001F0F2FE002084F8A80210BD10B50446BB
:10222000D0F8F00201F0F4FAA06920B10248016888
:1022300041F00601016010BD10ED00E030B3BB4974
:10224000B0F5007F0A6849D1D1F8800040F4807071
:10225000C1F8800002F4C060B0F5806F42D1086818
:10226000012262F34A20322208601F48006850436E
:102270001E4AB0FBF2F00130421E4B69824203D28B
:1022800013F480601046F7D1486922E0A74801683E
:10229000D0F8802001F4C06122F48072B1F5806F23
:1022A000C0F880201ED10168012262F34A21322247
:1022B00001600D49096851430C4AB1FBF2F101314B
:1022C0004A1E43698A4203D213F480611146F7D152
:1022D0004069400544BF0320704703E0022060F3DB
:1022E0004A220A60002070472C00002040420F0064
:1022F0000248016841F48041016070470870004065
:102300002DE9FC4104468078874E000701D4002067
:102310004FE0F06CC0000BD4F06C4FF0010840F0BF
:102320008050F064F06C00F080500190019801E062
:102330004FF000087D4F386840F480703860FFF738
:1023400007F905463868C00506D4FFF701F9401BB8
:102350000228F7D9032025E0D6F8840010F4407055
:1023600017D0216C884211D0D6F88400D6F884109A
:1023700041F4803120F44070C6F88410D6F88410FF
:1023800021F48031C6F88410C6F88400C00740F0FC
:10239000BB80206CD6F8841021F440710843C6F845
:1023A00084000020B8F1000F03D0F16C21F08051BF
:1023B000F1642168CA0705D06268F36F23F0030354
:1023C0001A43F2678A0705D5A268F36F23F00C035E
:1023D0001A43F2674A0705D5E268F36F23F030032A
:1023E0001A43F2670A0705D52269F36F23F0C00389
:1023F0001A43F2678A0605D56269F36F23F44063D6
:102400001A43F2674A0605D5A269F36F23F44053D5
:102410001A43F2670A0605D5E269F36F23F44043D5
:102420001A43F267CA0505D5226AF36F23F44033D5
:102430001A43F2678A0505D5626AF36F23F44023D5
:102440001A43F2674A050DD5A26AF36F23F44013CD
:10245000B2F5801F43EA0203F36703D1326842F406
:10246000801232600A050DD5E26AF36F23F440034F
:10247000B2F5800F43EA0203F36703D1326842F4F6
:1024800080123260CA040DD5226BF36F23F04073C3
:10249000B2F1807F43EA0203F36703D1326842F46A
:1024A000801232608A040DD5626BF36F23F04063B3
:1024B000B2F1006F43EA0203F36703D1326842F4DA
:1024C000801232604A040DD5A26BF36F23F0406393
:1024D000B2F1006F43EA0203F36703D1326842F4BA
:1024E0008012326009040DD5E16BF26F22F0405288
:1024F000B1F1805F42EA0102F26703D1316841F431
:1025000080313160BDE8FC81FFF722F8054641F2D9
:102510008837D6F8840080073FF53BAFFFF718F8FF
:10252000401BB842F5D915E70C100240007000407E
:102530002DE9F047002854D0724B04460D46186828
:1025400000F00F00884209D2186820F00F002843DD
:102550001860186800F00F00A84242D12068854E2C
:102560009A46C107B14602D14FF000086BE061689E
:10257000032930D156F8081C890132D57168726878
:102580007368B44676680227C6F3416601F003011A
:1025900007EB4606784F032904BF41F20027C0F23B
:1025A0007A07C2F30311C3F306220131B7FBF1F13D
:1025B0005143554AB1FBF6F1914224D9DCF80010A1
:1025C000664611F0F00F16D0800701D5A06890B1D3
:1025D0004FF000081AE056F8080C022904D18003D5
:1025E00004D40120BDE8F0874005FAD500F094F846
:1025F00045498842ECD9306808214FF0800861F3E2
:102600000710306002E04FF00008664660683168ED
:1026100021F0030108433060FEF79AFF064641F2BD
:10262000883749466068D9F8001001F00C01B1EB19
:10263000800F05D0FEF78CFF801BB842F1D939E03E
:1026400020684E465346810706D4B8F1800F16D154
:10265000316821F0F00111E0410703D5316841F400
:10266000E0613160010704D53168072262F30D2172
:102670003160A168326822F0F002114331601968BC
:1026800001F00F01A9421AD9186820F00F00284361
:102690001860FEF75DFF064641F288375046DAF8CB
:1026A000000000F00F00A84207D0FEF751FF801B8A
:1026B000B842F3D90320BDE8F08720684E464107B1
:1026C00005D5E168326822F4E06211433160000709
:1026D00006D52069316821F4605141EAC0003060BC
:1026E00000F01AF83168094AC1F30311515C01F096
:1026F0001F01C8400649086006480068BDE8F04769
:10270000FEF744BF0020024000B4C404F4520008A5
:102710002C000020040000201649174A086800F029
:102720000C000428104624D0086800F00C0313485D
:10273000082B1ED00B6803F00C030C2B1CBF0020D1
:1027400070474B6803F00303032B08BF0246486839
:10275000C0F303100130B2FBF0F04A68C2F3062266
:10276000496850430222C1F3416102EB4101B0FBD1
:10277000F1F07047081002400024F40000127A00C3
:102780002DE9FC41002800F0EE8004460078E44E7C
:10279000C00752D1207880077CD42078000700F150
:1027A0009F802078400700F1BC802078800600F1EF
:1027B000DD80E06900283ED0B16801F00C010C29F1
:1027C00040F04A81012800F0CE80216AF06800F0D4
:1027D00003028A4240F0C780616A6FF00F0202EB89
:1027E000011100F0F0028A4240F0BD80A16A00F4BD
:1027F000FE42B2EB012F40F0B680E16A00F0784271
:10280000B2EBC16F40F0AF80216BC64A02EA0151C2
:1028100000F4C002A1F500118A4240F0A480616B6F
:102820004FF07E4200F0C06002EA016101F17E419A
:10283000884240F098800020CAE1B168F06801F059
:102840000C01082964D0032281F00C0122EA000067
:102850000844B0FA80F040095AD16768B7F5803F64
:1028600007D03068B7F5A02F40F0118140F48020E8
:102870003060306840F480303060FEF769FE054615
:10288000306880033FF586AFFEF762FE401B642888
:10289000F6D9CDE0B068F16800F00C0004284FD004
:1028A00001F0030180F00C0081F002010844B0FA4D
:1028B00080F0400944D13068E168002900F0BB8015
:1028C00040F480703060FEF743FE054630684005F6
:1028D00000F1D580FEF73CFE401B0228F6D9A7E0A8
:1028E000D6F894006169002900F0918040F0010061
:1028F000C6F89400FEF72CFE0546D6F89400800733
:102900003FF54FAFFEF724FE401B0228F5D98FE0BC
:10291000306880037FF53EAF606800287FF43AAFEF
:1029200021E0B06DC0003AD4B06D4FF0010840F026
:102930008050B065B06D00F080500190019830E09B
:102940003068400501D5E06868B12069716821F000
:10295000FE4141EA006070609E480068FEF716FE86
:1029600000283FF41AAF0120BDE8FC81D6F898009A
:10297000A169002900F0A48040F00100C6F8980089
:10298000FEF7E6FD0546D6F8980080073FF511AF43
:10299000FEF7DEFD411B03200229F4D918E14FF0B8
:1029A00000088D4F3868C0050FD4386840F4807037
:1029B0003860FEF7CDFD05463868C00505D4FEF742
:1029C000C7FD401B0228F7D932E0A768012F08D0C5
:1029D000D6F89000052F40F0868040F00400C6F83D
:1029E0009000D6F8900040F00100C6F89000FEF785
:1029F000AFFD054641F28837D6F89000800700F118
:102A00009380FEF7A5FD401BB842F5D910E020F0F9
:102A10000100C6F89400FEF79BFD0546D6F8940029
:102A200080077FF5BEAEFEF793FD401B0228F5D967
:102A30000320BDE8FC8120F480703060FEF788FD43
:102A40000546306840057FF5A8AEFEF781FD411BC5
:102A500003200229F5D9BBE03168022821F08071FA
:102A600031606AD1FEF774FD0546306880017AD581
:102A7000FEF76EFD411B03200229F6D9A8E020696C
:102A8000716821F0FE4141EA0060706085E620F443
:102A900080303060306820F480203060FEF758FDD0
:102AA0000546002F7FF4ECAE06E0FEF751FD411B1A
:102AB0000320642900F28C8030688003F5D469E635
:102AC00020F00100C6F89800FEF742FD0546D6F852
:102AD000980080077FF56DAEFEF73AFD411B03209D
:102AE0000229F4D974E020F00100C6F89000D6F86D
:102AF000900020F00400C6F89000FEF729FD05467E
:102B0000002F7FF477AF41F28837D6F89000800726
:102B10000AD5FEF71DFD411B0320B942F5D957E048
:102B2000001002400000E0FFB8F1000F3FF43DAE9E
:102B3000B06D20F08050B06537E6F068274920F08E
:102B40000300F060F0680840F060FEF701FD044605
:102B5000306880017FF56FAEFEF7FAFC011B0320A1
:102B60000229F5D934E004F120036FF00F051C4F62
:102B70000FCB05EB0111F5683D4028430843216B5D
:102B800040EA0220174A02EA01514FF07E42A1F5C5
:102B900000110843616B40EAC36002EA016101F180
:102BA0007E410843F060306840F080703060F0682B
:102BB00040F08070F060FEF7CBFC04463068800186
:102BC0003FF539AEFEF7C4FC011B03200229F5D9FD
:102BD000BDE8FC810400002000700040FFFFEEFE15
:102BE0000C809F010000E0FF411E0020B0EB116F40
:102BF0001CBF01207047044AF023516003490B7049
:102C0000072190601160704710E000E023ED00E0C4
:102C1000FEE7F0B55200002337240025AA4208BF82
:102C2000F0BD04EB1076070FB0F1204F4FEA001013
:102C300038BF07F130064E5545F0010602358B5579
:102C4000ECE700000268B0F1804F0BD0E74B9842F0
:102C500008D0214B984205D0204B984202D0204BFF
:102C6000984203D14B6822F070021A43B0F1804FB2
:102C700014D0DE4B984211D0174B98420ED0184B0F
:102C800098420BD0154B984208D0164B984205D06D
:102C9000154B984202D0154B984203D1CB6822F4D1
:102CA00040721A4302608A68C2620A888262104ACD
:102CB00002444FEAB222072A07D8012303FA02F29C
:102CC00012F0E50F1CBF09690163416941F0010180
:102CD00041610020704700BF0008004000340140FF
:102CE000002C0140004001400048014000440140E8
:102CF00000D4FEBF2DE9F04F87B000273E483F4C7F
:102D000000224FF003090697016804F5805641F050
:102D100020010160016801F0200101910199016821
:102D200041F040010160016801F040010191019909
:102D3000016841F001010160016801F001010191A8
:102D40000199016841F0020101600321006800F06F
:102D50000200019001983046FEF7F4FB204640F255
:102D60000111002240F2011AA346FEF7EBFB02AD6F
:102D7000234C4FF001083046CDE904772946CDE9D0
:102D80000298A0474FF48060CDE90397294602904E
:102D90000BF5A050A04748F2FF70CDE903972946F4
:102DA00002904FF09040A04758462946CDE904775D
:102DB000CDE902A8A0471020CDE90397294602904B
:102DC0005846A0470F4E6020294604970290584667
:102DD0000396A0478020CDE9036829460290584613
:102DE000A047172000210022FEF71CFC1720FEF749
:102DF0000BFC07B0BDE8F08F4C1002400004004807
:102E0000B513000800001110B0B586B06C4614214F
:102E10002046FDF704FA19484FF00052734D01683F
:102E200041F0020101600021006800F002000590FD
:102E300005981348006813480170134802602C205D
:102E40000391CDE9011044F29F102146ADF8000036
:102E50002846FFF7F7FE28680C4920F0800028601C
:102E6000A86808400A49A86068680840203068607F
:102E7000A86820F08000A86006B0B0BD58100240DD
:102E80000CED00E01DE400E000E100E0F8BFFEFF13
:102E90008FFFFFFD80B50F480F49002200F016FBA1
:102EA00008B1FEF7EDF80B480C4900F0CEFC08B174
:102EB000FEF7E6F807480A4900F0EDF908B1FEF719
:102EC000DFF8044800F0DBFC18B1BDE88040FEF7F5
:102ED000D7B880BD840E00200C00002030000020F8
:102EE00054010020FEE770477047704770B586B008
:102EF0000446FEF719FA01203F2100260590CDE98E
:102F0000030102A801A90296FEF74CF9094DF6B299
:102F1000192E0BD206F0F80046EA0501225820448B
:102F200043680020FEF7B8F90836F0E7FEF7AAF983
:102F300006B070BD00F80108FEF70EBBF0B5A5B0F5
:102F400017AD1421281DFDF76AF901AC4021402777
:102F5000201DFDF764F900200026FFF76FF902201D
:102F60002A212490CDE92200CDE92001CDE91E00DF
:102F700001201B971D904FF480701A90222017900B
:102F80002846FFF7FDFB03201696CDE914660421C1
:102F900013900F20129012A8FFF7CAFA4FF40050B6
:102FA0000E9601902046FFF7ABF925B0F0BD00006A
:102FB0000548D0F8801041F47001C0F880104FF03F
:102FC00000610160704700BF08ED00E010B5074CDC
:102FD00001210022206820F00100206004F100603F
:102FE000FEF7B0FA6FF00100206110BD0004004050
:102FF00010B59E4C0A4603A0214600F03DFA20463B
:1030000010BD00BF43444320436F6E6669670000F4
:1030100070B50A46D0F8BC1201B302EB820300EB94
:10302000830353F8184F5CB1D0F8C45202EB820608
:1030300005EBC605AD6BB4FBF5F606FB15447CB19C
:103040000024C1F81442D0F8C00203697BB1D1F862
:10305000080201F504719847002408E0032406E003
:103060000024114600221C60002300F0DAFB2046F9
:1030700070BDB0B5D0F8BC5275B1044600F0D2FABC
:10308000D4F8C012C5F80C02D5F80402CA6805F5D8
:10309000037190470020B0BD0320B0BD70B50F4E46
:1030A00081210446B0470025204601212587B047ED
:1030B00020468221A4F87851B047D4F8BC02E564D8
:1030C00048B1D4F8C00240688047D4F8BC0200F090
:1030D000FAFDC4F8BC52002070BD00BF05350008E1
:1030E0001220088000487047F000002010B5D0F88A
:1030F000C01269B1D0F8BC4294F80002FF2807D092
:103100008B6894F8012221469847FF2084F800023A
:10311000002010BD0A2101800048704704010020F2
:10312000432101800048704768000020432101804E
:1031300000487047AC0000204321018000487047E0
:10314000100100202DE9F04104464FF4077000F013
:10315000BBFD002840D00546C4F8BC02207C4026B8
:10316000DFF8808081210222002808BF4FF400761A
:1031700020463346C047012720460121022233461C
:103180002787C0471020822103220823A4F87871E2
:10319000A4F84E002046C047D4F8BC024FF4077193
:1031A000A4F84C70FDF73BF8D4F8C00200688047E3
:1031B00000200121C5F81402C5F81802207CD5F8BA
:1031C00004220028204614BF40234FF4007300F06F
:1031D0008BFA0020BDE8F0810020C4F8BC02022078
:1031E000BDE8F081D136000810B5204C0A4603A096
:1031F000214600F041F9204610BD00BF4344432062
:10320000496E746572666163650000000420088081
:10321000004870476801002010B5144C0A4603A00E
:10322000214600F029F9204610BD00BF53544D69D6
:1032300063726F656C656374726F6E6963730000AF
:1032400010B50A4C0A4603A0214600F015F92046A5
:1032500010BD00BF53544D333220566972747561EE
:103260006C20436F6D506F7274000000900200205C
:1032700080B5D0F8BC1261B1027C4023002A08BF9F
:103280004FF40073D1F80422012100F02DFA002040
:1032900080BD032080BD19B1C0F8C0120020704766
:1032A00003207047B0B51A200880094908688A6869
:1032B00080180BD0074D4C680822A91CFFF7A9FC09
:1032C00005F1120120460422FFF7A3FC0148B0BD1E
:1032D0009075FF1F6C010020D0F8BC02C0F80412EA
:1032E00000207047D0F8BC02C0F81022C0F80812C5
:1032F000002070477CB50446D0F8BC6200200D4623
:103300008DF80700ADF80400087810F060010FD0C8
:10331000202940D1EA88DAB1000622D46878314603
:1033200086F8012286F80002204600F075F82CE0AD
:1033300068780B282BD0012827D00A281BD050BB37
:1033400094F89C02032826D101A9204602221AE003
:10335000D4F8C0126878002200248B682946984768
:103360001EE0D4F8C01268788B6831469847EA8826
:103370002046314607E094F89C0203280BD10DF15A
:1033800007012046012200F05FF8002408E094F8CD
:103390009C020328F9D02046294600F032F8032485
:1033A00020467CBD80B5D0F8BC327BB1D3F8142266
:1033B000012162B9C3F814128121D3F80822D3F88D
:1033C0001032C36200F02DFA002100E0032108460C
:1033D00080BD80B5D0F8B8220AB15268904700206D
:1033E00080BD80B513460A46002100F07DF900201B
:1033F00080BD80B513460A46002100F012FA002075
:1034000080BD10B58021044600F0F0F9204600216F
:10341000BDE8104000F0EAB980B513460A46032122
:10342000C0E95633C0F89412002100F05DF9002085
:1034300080BD80B5052100220023C0F89412002130
:1034400000F052F9002080BD80B513460A460221E3
:10345000C0E90633C0F89412002100F0E2F9002020
:1034600080BD80B5042100220023C0F89412002101
:1034700000F0D7F9002080BDB0B5C8B100230446E4
:10348000257815B101340133FAE7DCB2022303EBEE
:103490004404148003220C704A70002204783CB16A
:1034A000DDB2023301304C5545F001040A55F5E711
:1034B000B0BD0000032884BF032070470249C0004C
:1034C00021FA00F0C0B270470003010378B1002375
:1034D000C0F8CC32C0F8C032C0F8B83209B1C0F878
:1034E000B4120121027080F89C1200F09FB80320F2
:1034F000704780B5D0F8C402FEF74DF9BDE88040B2
:10350000FFF7D8BF80B5D0F8C402FEF71FF9BDE8B9
:103510008040FFF7CFBFB0B5044671B1D4F8B80210
:10352000426942B194F89C02032804D12046904796
:10353000002841D0B0BD0320B0BDD4F894020228C9
:1035400033D1D4E9070188420DD9431A11462046E8
:103550001A46E361FFF74DFF2046002100220023B9
:1035600000F0C2F821E00FD1A16981420CD3D4F858
:103570009802814208D22046002100220025FFF750
:1035800038FFC4F89852E7E7D4F8B802C16829B107
:1035900094F89C02032801D12046884720468021C8
:1035A00000F024F92046FFF744FF94F8A002012818
:1035B00004BF002084F8A0020020B0BD10B504466E
:1035C00069B1D4F8B80282693AB194F89C02032830
:1035D00003D12046904718B310BD032010BDD4F886
:1035E000940203281CD1D4E9570398420BD9C01A7E
:1035F0001146C4F85C01984238BF034620461A467B
:10360000FFF7EFFE0CE0D4F8B802016929B194F895
:103610009C02032801D1204688472046FFF721FF5E
:10362000002010BDD0F8C402FEF7E4B8B0B50446DF
:103630001C481D4D002102220823C4F8C402C0F812
:10364000F042C0E900538260C0E90421C0E90611DC
:103650000162FEF713FD08B1FDF712FDD4F8C402B4
:10366000124D002100221823A847D4F8C40280215B
:1036700000225823A847D4F8C40281210022C02385
:10368000A847D4F8C402012100224FF48873A84748
:10369000D4F8C402822100224FF48073A84700208E
:1036A000B0BD00BF54110020005C0040ED160008C2
:1036B00001F07F02D0F8C402090602EB820200EB9F
:1036C000C20000F12A0258BF00F5B57210787047A9
:1036D00010B51446D0F8C4021A462346FEF793F8F4
:1036E000BDE81040FFF7E6BE80B5D0F8C402FEF793
:1036F000B8F8BDE88040FFF7DDBE70B50446002095
:103700000125C4F89402C4F8A4026060D4F8BC0295
:1037100084F89C5228B1D4F8B802002142682046AF
:10372000904720460021002240234026FFF7D0FF8B
:103730002046802100224023A4F86451C4F860612F
:10374000FFF7C6FF0020A584266270BD90F89C128A
:10375000042904BF90F89D1280F89C120020704745
:1037600080B590F89C12032904D1D0F8B812C96929
:1037700001B18847002080BD01740020704780B5EA
:10378000D0F8C402FEF71AFDBDE88040FFF792BEF4
:10379000B0B500F2AA250446284600F04BF8B4F86C
:1037A000B0120120C4E9A50194F8AA0200F01F019B
:1037B000022908D001290CD089B920462946BDE844
:1037C000B04000F05FB820462946BDE8B04000F0A8
:1037D000BDB920462946BDE8B04000F04EBA00F021
:1037E00080012046BDE8B040AFF3008080B5D0F83E
:1037F000C402FEF74CF8BDE88040FFF75BBE80B521
:10380000D0F8C402FEF7F5FCBDE88040FFF752BED9
:1038100090F89C1280F89D12042180F89C120020E0
:10382000704780B5D0F8C402FEF767F8BDE8804065
:10383000FFF740BE0A7802704A7842704A88428098
:103840008A888280C988C18070471CB504460020E0
:10385000ADF8060051B1C4F8B812C96A21B10DF132
:1038600006008847C4F8CC0200201CBD03201CBD04
:10387000D0F8B8220AB11268104703207047FFF74A
:10388000BEBF0000BCB5044608780D4610F06000CD
:103890000DD0402802D0202840F02F81D4F8B80263
:1038A00029468268204602B0BDE8B04010476878DB
:1038B000092800F22281DFE810F00A002000200130
:1038C000310020013900590020017300850094F86F
:1038D0009C020138022800F21081E888022840F09A
:1038E0000C81D4F8A40203222146002808BF01223B
:1038F00041F80C2F20460222FCE094F89C0201388B
:10390000022800F2FA8068880025012840F0F9803A
:10391000C4F8A4522046FFF7A4FDF2E0688801280D
:1039200040F0EE800120C4F8A402ECE0A888002852
:1039300040F0E380E888002840F0DF8068887F2836
:1039400000F2DB8094F89C12032900F0D680C5B207
:1039500084F89E0220462946FFF711FF2046FFF714
:1039600080FD002D00F0EC800220EAE000204FF006
:10397000FF31ADF80600688801EB10210E2900F236
:10398000BC80DFE801F0086B72BABA7E87BABABAB7
:10399000BABABABA9200D4F8B412207C0A6889E0A4
:1039A000E888012840F0A98094F89C02411E022971
:1039B00027D2002521462046012241F8085FFFF763
:1039C00043FD9EE06888604DC1B22870022903D390
:1039D0002046FFF716FD3FE094F89C02032817D01D
:1039E000022832D1002900F08E8020466160FFF766
:1039F0003FFF002800F08B8005462046FFF701FDC1
:103A00007FE0032840F07980211D2046012271E0EB
:103A1000002954D06068884200F07580C1B2204609
:103A2000FFF7D7FC297820466160FFF721FF0028C7
:103A300069D005462046FFF7E4FC21792046FFF7D0
:103A4000C8FC022084F89C025BE02046FFF7D9FC0A
:103A500029782046FFF7BDFC032552E0217CD4F8ED
:103A6000B802002934D0C16A33E0C0B2052844D876
:103A7000DFE800F00352565A5E62D4F8B40242689E
:103A800016E0207CC8BBD4F8B802416B0DF10600EB
:103A9000884712E0207C80BBD4F8B802016B0DF19E
:103AA000060088470146072018E0D4F8B402C2692E
:103AB0001AB3207C0DF10601904701460FE0022069
:103AC000002584F89C0220466560FFF782FC21E710
:103AD000816A0DF106008847014602204870EA8895
:103AE0008AB1BDF8060040B1904238BF0246ADF839
:103AF00006202046FFF7A8FC02E02046FFF781FCE5
:103B000000252846BCBD2046FFF7ABFCF8E7204661
:103B1000FFF7A7FC032014E0D4F8B4028268C7E7DB
:103B2000D4F8B402C268C3E7D4F8B4020269BFE7AC
:103B3000D4F8B4024269BBE7D4F8B4028269B7E7AB
:103B4000012084F89C02DBE78C020020B0B504461B
:103B500008780D4610F060000BD0402801D02028D6
:103B60006DD1D4F8B802294682682046BDE8B0403D
:103B7000104768782979B0B101282FD003285ED189
:103B800094F89C0203282DD1688840B941F0800048
:103B9000802804D0E88810B92046FFF727FE204689
:103BA000FFF75FFC4EE094F89C02032828D002281F
:103BB00045D141F08000802841D101F07F00090605
:103BC00000EB800004EB800000F1140258BF00F508
:103BD000AA7200201146106020464AE094F89C0228
:103BE000032831D002282AD141F08000802826D035
:103BF0002046FFF7FBFD20468021FFF7F7FD21E07F
:103C000001F00F0211F0800002EB820204EB82024D
:103C100014BF928CB2F864218AB101F07F020028AF
:103C200041F0800002EB820204EB820202F5AA75E9
:103C300018BF02F11405802812D1002016E020469A
:103C4000FFF7DFFB0020B0BD68880028FAD14806E6
:103C500002D02046FFF74DFC2046FFF702FC80E72C
:103C60002046FFF725FD0028E7D0012028602046E8
:103C700029460222FFF7E8FBE4E7B0B504460878DE
:103C80000D4610F0600018BF402815D194F89C0232
:103C90000138022812D8A88810F0FE0F0ED1D4F8EF
:103CA000B802294682682046904758B9E98849B940
:103CB0002046FFF7D6FB04E02028E7D02046FFF798
:103CC000A0FB0020B0BD7047004870479004002062
:103CD0002DE9F0430E7891F80380024647F27064B4
:103CE00000EB860930F82600B8F1030F20EA04073C
:103CF00007D80020DFE808F002070D0A47F4007734
:103D000006E0012005E047F4806701E047F4C06762
:103D1000002048F2800C47EA0C0440F60F77A9F81F
:103D20000040B9F800403C40344344EA0C04A9F890
:103D300000400C7B002C52D0B9F8004040F60F67D1
:103D40003C400CF580773C43A9F8004002F58064C4
:103D5000B2F850500B8904EBC60723F001037B53E4
:103D6000F3000433B2F8502023444C8924F00104BA
:103D70009C52B9F80020497802F48042002957D0BB
:103D80004AB1B9F8001040F60F7211400CF58042AC
:103D90001143A9F80010B9F80010490609D5B9F87F
:103DA000001040F60F7211400CF140021143A9F8C7
:103DB0000010B9F8001040F63F72B8F1010F01EAA7
:103DC00002010CF1200282EA010208BF41EA0C0262
:103DD000A9F80020B9F8001043F60F724FE0B2F8CE
:103DE000507002F58064F60004EB070E4F78002F48
:103DF00049D0C98821F001012EF80610B9F8001049
:103E0000490609D5B9F8001040F60F7211400CF1BF
:103E100040021143A9F80010B9F8001040F63F72B3
:103E2000B8F1010F01EA02012AD00CF1200269E089
:103E30004AB1B9F8001040F60F7211400CF58042FB
:103E40001143A9F80010B9F80010490609D5B9F8CE
:103E5000001040F60F7211400CF140021143A9F816
:103E60000010B9F8001043F60F7211400CF54052E3
:103E7000514040F63F72A9F80010B9F80010114007
:103E800041EA0C013FE0CF8846F0040527F0010726
:103E90002EF8057046F006050E69B2F8501025445C
:103EA0003EB13E2E0DD806F0010202EB5602920200
:103EB00012E04A5B164C22F4F8424A534A5B224312
:103EC0000AE0F4064FF0FF324FEA561408BF02EB47
:103ED00056140F4A42EA84224A53B9F800104904A2
:103EE00009D5B9F8001040F60F7211400CF5804268
:103EF0001143A9F80010B9F8001043F60F721140F1
:103F00000CF540525140A9F80010BDE8F08300BF05
:103F10000080FFFFB0B50C780D7B4B7848F2800134
:103F200030F8242000EB84003DB302F480427BB3E0
:103F30003AB1028840F60F731A4001F580431A43E4
:103F400002800288520607D5028840F60F731A4095
:103F500001F140031A430280028840F60F731A40B1
:103F600001F580431A4340F63F73028002881A40ED
:103F70000A43028043F60F722EE09BB3520629D506
:103F8000028840F60F731A4001F140031A4320E003
:103F90003AB1028840F60F731A4001F580431A4384
:103FA00002800288520607D5028840F60F731A4035
:103FB00001F140031A430280028840F60F731A4051
:103FC00001F140031A4343F60F73028002881A403E
:103FD0000A43028040F63F7203881A401143018071
:103FE0000020B0BD5204C5D5028840F60F731A40B8
:103FF00001F580431A43BCE7B0F8581041F4004182
:10400000A0F85810002070470121A0F840100021AE
:10401000A0F84010A0F84410A0F8501000207047FD
:10402000B0F8401044F27F021140A0F84010002088
:10403000704700207047B0B50A7B9ABB0A784C786D
:1040400030F822305200BCB15B0648F2A00309D51B
:1040500030F8124040F60F752C4003F120052C4338
:1040600020F81240C97801291CD030F8121040F60F
:104070003F742140594013E059044BF2800109D5A7
:1040800030F8123040F60F74234001F5805423437A
:1040900020F8123030F8123043F60F7423405940A4
:1040A00020F812100020B0BD10B50A784978094BED
:1040B000002940F63F7108BF03F57F6308BF43F650
:1040C0000F7130F822402140594020F82210002082
:1040D00010BD00BF9080FFFF2DE9F04104464878F5
:1040E0000D46012859D12E69AF69B74288BF3746BE
:1040F000287B002870D0E878022840F09B80287840
:1041000040F60F6234F820102B6A0A404100B34297
:1041100040F2C88048F28017C00048F280083A4355
:1041200004F5806724F811209A1B2A6234F81120C4
:10413000B4F850103944520600F10B8140F00200EF
:10414000B3B20E52204669692A8900F04AFA6869BA
:104150002A698119286A6961831A38BF00232B6292
:1041600088BF10466A78012A00F04D81002A40F08D
:10417000F081B4F850202B7800284FEAC3033A446A
:1041800003F1060300F0C8813E2800F2D58100F05B
:10419000010606EB5006B602DAE1297B61B3E97845
:1041A000012958D002297AD1002840F07B81B4F847
:1041B00050002A7804F580610B182869D200961CFB
:1041C000002800F0F4803E2800F22D8100F0010765
:1041D00007EB5007BF0231E1EA886969BBB22046AC
:1041E00000F0FFF9B4F850002978C90020440231EA
:1041F0000844A0F8007483E02869AA69111A38BF3E
:104200000021A96188BF0246B4F85000002A29782D
:1042100020444FEAC10100F5806001F1060348F235
:1042200080016FD03E2A75D802F0010606EB5202DB
:1042300092027BE0297834F82120B4F85000C900BC
:104240002044520600F5806040D441F002014752FC
:1042500005F108003FE02A69A9698B1A38BF0023DD
:10426000AB6188BF1146002840F03781B4F8500098
:1042700004F5806248F2800C002902EB00062878E1
:104280004FEAC00303F1020700F0A7803E2900F2C5
:10429000E38001F0010000EB51008002E7E0012023
:1042A000BDE8F08148F28006C0003243023024F8B5
:1042B00011202044B4F850100844A0F800349BB2F8
:1042C000204669692A8900F08CF919E041F006015D
:1042D000475205F10A0002886969BBB2204600F026
:1042E00080F9697848F28000012923D041B9297802
:1042F00040F60F7334F821201A4000F1400321E00A
:104300009F4822E01A5A22F4F8421A521A5A42F4EA
:1043100000420BE0D7064FF0FF364FEA521708BFB6
:1043200006EB52174FF4004242EA87221A5201F577
:104330004050E5E0297840F60F7334F821201A4008
:1043400000F580431A4324F82120303040F63F71B5
:10435000D8E040F00600B3B20E52204669696A897F
:1043600000F03FF968692A698119286A6961831A2E
:1043700038BF00232B6288BF10466A78012A4AD0D2
:10438000002A40F0F580B4F850202B7800284FEA3E
:10439000C3033A4403F1020300F0C6803E2800F252
:1043A000DA8000F0010606EB5006B602DFE0F05AB4
:1043B00020F4F840F052F05A40F40040F052B4F8C3
:1043C0005000084442F00601425A22F4F842425298
:1043D000425A42F40042425264E0B85B43F00601A4
:1043E00020F4F840B853B85B40F40040B853B4F838
:1043F00050001044425A22F4F8424252425A42F4C7
:10440000004242527AE0B4F850202B78DB003A4464
:104410000633D0529DE0B4F850202B78DB003A44AC
:104420000233D052A4E0C7064FEA501E4FF0FF3CC3
:10443000544F08BF0CEB501E47EA8E27F75242F04C
:1044400006023E28B4F8503019441ED800F001038B
:1044500003EB5000800224E0C8064FEA51184FF0E9
:10446000FF3E484808BF0EEB511840EA8820B85379
:1044700043F006033E29B4F85000024431D801F05D
:10448000010000EB5100800237E0C6064FF0FF3319
:104490004FEA501608BF03EB50164FF4004040EAB5
:1044A00086205052E869C0B12A7844F2400648F2AA
:1044B000800134F8220000EA060301F54050B342BF
:1044C00000D0EBB9520040F60F76403134F812308C
:1044D0003340194324F8121012E0294800F54050E7
:1044E0000EE0CE064FF0FF304FEA511608BF00EB4A
:1044F00051164FF4004040EA862098520CF5405087
:1045000043F60F712A7834F822301940484024F8D5
:1045100022000020BDE8F0819E5A26F4F8469E5203
:104520009E5A46F4004613E09E5A26F4F8469E52E0
:104530009E5A46F400461AE0C7064FF0FF364FEA8F
:10454000501708BF06EB50174FF4004646EA87267F
:104550009E526A890DE0C7064FF0FF364FEA5017AA
:1045600008BF06EB50174FF4004646EA87269E52D6
:104570002A8983B2204600F034F808F13000E5E6DD
:104580008080FFFF0080FFFF0021A0F844104BF661
:104590008071A0F840100020704700000148FDF72E
:1045A000C3B900BF54110020B0F84400704710B5E3
:1045B000104400F58062481C590831B132F8024BB2
:1045C000013920F8014C0230F7E7D9071CBF1188E8
:1045D00000F8011C10BD11B98021A0F84C1000207A
:1045E000704710445A1C00F5806052082AB131F817
:1045F000023B013A20F8023BF8E77047FEE7000073
:1046000010B5074C00F00F03044AB0F1FF3F2344FC
:10461000C8BF83180801187010BD00BF00E400E097
:1046200014ED00E00000000080B510EE100AFBF76A
:1046300087FE9FED050B53EC102BFBF70FFEFBF7EE
:1046400092FE00EE100A80BD6F1283C0CA2119408D
:104650008AB0804808AC006807907F4800680890DE
:104660007E4800680990FCF783FFFEF767FCFEF7C1
:1046700041FBFEF70FFCFEF7C7FB794DE86840F001
:104680000100E8606420FCF77DFD94ED008A94ED64
:10469000019AB0EE480AFFF7C7FF89EE000ADDF87D
:1046A0001C80DFF8C0B14FF0000A4FF0FF34EE2756
:1046B000002001EE108A8BF801A0B8EEC11A20EE9E
:1046C000010ABDEEC00A10EE109A54FA80F00428D8
:1046D00000F29A80DFE800F0031A3C63910081A0A9
:1046E0001721FCF7A7FC9BF8020000284FF0000000
:1046F000FBD073488BF802A000F01AF951EC100BB4
:10470000FBF731FE08EE100A089037E06DA01C217F
:10471000FCF790FC9BF8020000284FF000084FF0D7
:104720000000F9D066488BF80280FBF78AFD00286C
:10473000079000F08B80B0EE480A8246FFF774FFC6
:1047400089EE000A01EE10AAD0464FF0000A1DE0E3
:1047500053A01C21FCF76EFC9BF8020000284FF0D0
:104760000000FBD056488BF802A000F0E1F851ECB5
:10477000100BFBF7F8FD099009EE100AB0EE480A9D
:10478000FFF752FF89EE000A01EE108AB8EEC11A57
:1047900020EE010ABDEEC00A10EE109A34E09BF83C
:1047A00000003BA6002837A008BF064618EE100AF6
:1047B000FBF7C6FD2F46054619EE100A0C46FBF71F
:1047C000BFFDCDE90496344E41EC100B44EC115B77
:1047D000324942463D464FF0FF34EE2730468DEDDC
:1047E000001B8DED020B00F089F83046FBF722FD2F
:1047F00001463046FCF71EFC06E01BA01921FCF721
:1048000019FC07A8FEF772FB8BF801A09BF80000CB
:10481000C8B1DBF80400484515DB05F10060012153
:104820000122CBE901AAFCF78DFE6FF00100012106
:104830002861286840F0010028600DF11B008DF808
:104840001B70FCF7F7FB9BF801003EE74FF0000AF6
:10485000DCE700BF00F8010804F8010808F80108C7
:104860000004004080020020536176696E67206377
:10487000757272656E7420706172616D2E2E2E0DD0
:104880000A00000044697361626C65640000000006
:10489000537461727465640010150020045300089D
:1048A000496E7075742074726967676572206469F7
:1048B0007374616E6365286D29203E20000000003E
:1048C00048140020496E70757420656E636F6465CE
:1048D000722070756C736520636E742E2E203E20DE
:1048E00000000000496E70757420776865656C2063
:1048F0007261646975732E2E203E20000FB4084B40
:1049000010B504A902AA039800F014F9044602A9FC
:10491000002000F0A6FC204610BC5DF814FB00004F
:1049200063520008004870470000002000000000AB
:1049300030B583B0044600F017F89FED090B05462B
:104940008DED000B0123002221466846FBF78DFD0B
:10495000284600F01FF89DED000B03B030BD0000AD
:1049600000000000000000000148006870470000DF
:104970000000002002E008C8121F08C1002AFAD176
:1049800070477047002001E001C1121F002AFBD1CF
:1049900070470000014908607047000000000020D7
:1049A0002DE9FF5F82B00021DDE90430020DDDF862
:1049B00040B0034318D044F61050A2F2FF324243F5
:1049C0001514119801281FD0A5EB0B00401C5FEABD
:1049D000000A4FF000064E4FDFF83891B0465046BF
:1049E00015D5CAF1000413E0119801244AA3012847
:1049F00001D16FEA0B010298119AC0E90031C0E9B8
:104A0000024206B0BDE8F09FCBF10000DFE70446AC
:104A10000021404A491842EB0450CDE9001012E051
:104A2000E00707D032463B4640464946FBF716FCB6
:104A30008046894632463B4610461946FBF70EFC37
:104A400006460F466410002CEAD1DDE90401DDE9D9
:104A50000023BAF1000F06DAFBF700FC42464B4692
:104A6000FBF7FCFB05E0FBF7A8FE42464B46FBF7D5
:104A7000A4FE04460E460022284BFBF725FF03D870
:104A80004FF0FF30014607E00022254B204631461B
:104A9000FBF7ECFDFBF700FF102409E0002C0ADB1C
:104AA0000A220023FBF791FC039B30321A55641E47
:104AB00050EA0102F2D1641C039AC4F111031444B8
:104AC000119A012A03D0012208430DD10AE00843BC
:104AD00004D000204FF0110B119072E7A3EB0B05EF
:104AE0006D1E0DE05B4504DD4FF0000205F1010590
:104AF00004E003DA4FF00002A5F10105002AECD032
:104B000002981199C0E90231C0E9004579E7000037
:104B1000000014400000F03F300000000000F043AF
:104B20000000E03F30380A2801D201207047002001
:104B3000704700002DE9FF4F95B09B468946064619
:104B400000250FE2252877D100242746F84A0121C5
:104B5000059400E0044316F8013F203B01FA03F0FE
:104B60001042F7D130782A2811D06FF02F03307817
:104B7000A0F13002092A16D8059A44F0020402EB8B
:104B8000820203EB42021044761C0590EFE759F8CD
:104B9000042B0592002A03DA504244F40054059095
:104BA00044F00204761C30782E2816D116F8010F36
:104BB00044F004042A280DD06FF02F023078A0F1C1
:104BC0003003092B09D807EB870302EB4303C7180F
:104BD000761CF3E759F8047B761C30786C280FD0EC
:104BE00006DC4C2817D068280DD06A2814D104E0C0
:104BF000742810D07A280FD10DE044F400140AE094
:104C000044F4801401E044F440147278824202D1EA
:104C100004F58014761C761C307866280BD013DCE3
:104C2000582877D009DC002875D04528F6D04628CA
:104C3000F4D047281AD19DE118E0632835D06428C4
:104C400079D0652812D195E1702873D008DC6728E7
:104C5000F1D069286FD06E280DD06F2806D1B5E04D
:104C600073282CD0752875D0782874D05A46179997
:104C700090476D1C75E1C4F30250022809D0032847
:104C80000DD0D9F8001004280DD00D6009F10409E9
:104C900067E1D9F80010EA17C1E90052F6E7D9F840
:104CA00000100D80F2E70D70F0E719F8041B8DF885
:104CB000001000208DF80100EA46012003E059F8B9
:104CC00004AB4FF0FF3061074FF0000102D40DE05C
:104CD00008F101018846B9420FDA8045F8DB1AF87D
:104CE00008100029F4D108E008F10101884681424A
:104CF000FADB1AF808100029F6D105985B46A0EBFC
:104D0000080721463846179A00F094FA284400EB29
:104D1000080507E04DE029E10DE01AF8010B5A46BD
:104D200017999047B8F10108F7D25B4621463846FB
:104D3000179A13E142E00A220092C4F302524FF0A4
:104D4000000A022A08D059F804CB032A4FEAEC7172
:104D50000AD00DE029E02AE009F1070121F007025D
:104D6000F2E802C1914609E00FFA8CFC4FEAEC71BF
:104D7000042A03D14FFA8CFC4FEAEC71002907DAC0
:104D80000A460021DCF1000C61EB02012D2202E059
:104D9000220504D52B228DF80420012203E0E2072E
:104DA00001D02022F7E7904659E00A2102E01022C4
:104DB0000DE010214FF0000A00910BE010224FF09F
:104DC000000A44F004040827009203E008224FF090
:104DD000000A0092C4F30252022A05D059F804CB0B
:104DE0000021032A08D009E009F1070121F0070298
:104DF000F2E802C1914605E01FFA8CFC042A01D1B9
:104E00000CF0FF0C4FF00008220728D5702806D0C0
:104E1000009B83F0100353EA0A0305D00EE0402202
:104E20008DF80420012208E05CEA010206D030225D
:104E30008DF804208DF8050002229046009B83F037
:104E4000080353EA0A030AD15CEA010201D16207AE
:104E500005D530228DF804204FF001087F1E582818
:104E600004D034A003900EA802900DE036A0F9E71C
:104E700053466046009AFBF7A8FA84460398825C82
:104E80000298401E029002705CEA0100F0D1029884
:104E900006A9081A00F1200A600702D524F480341C
:104EA00000E00127574502DDA7EB0A0000E00020E3
:104EB00000EB0A01009005984144401A0590E00378
:104EC00006D45B462146179A059800F0B3F90544CD
:104ED000002706E001A85A46C05D179990476D1C4F
:104EE0007F1C4745F6DBE0030CD55B462146179A4D
:104EF000059800F09FF9054404E030205A461799C0
:104F000090476D1C0099481E00900029F5DC08E0D0
:104F1000029802995A460078491C029117999047C5
:104F20006D1CBAF10001AAF1010AF1DC65E1000093
:104F3000092801003031323334353637383961626F
:104F40006364656600000000303132333435363733
:104F500038394142434445460000000000F058F90A
:104F60000544761C307800287FF4ECAD19B0284653
:104F7000BDE8F08F620700D4062709F1070222F08E
:104F8000070CFCE80223E14603F000485FEA080C46
:104F900002D00FF2702C0DE05FEA045C02D50FF234
:104FA000682C07E05FEAC47C02D00FF2602C01E0BD
:104FB000AFF2700C4FF0FF3823F00043CDF850C033
:104FC00065280CD006DC452809D046281DD0472886
:104FD0003DD13DE0662818D067287ED138E0002119
:104FE000112F01DB112000E0781CCDE9000106A99A
:104FF0000EA8FFF7D5FCDDE90F010E9A0391002101
:10500000009207F1010A04914DE04FF00040009733
:10501000CDE9011006A90EA8FFF7C2FCDDE90F02D9
:1050200003920E9B11990022DDF80CA000930492CC
:1050300011B9791C00EB010AB7EB0A0004D4C0F1E6
:10504000FF3007F1010A0490AAEB0700019044E049
:10505000012F00DA01270021112F01DD112000E0CE
:105060003846CDE9000106A90EA8FFF799FCDDE955
:105070000F010E9A0391002104910092BA46210774
:105080000CD40399514500DA8A46BAF1010F05DDC7
:10509000009AAAF10101515C302908D0B84202DA25
:1050A00010F1040F06DA0121CDE9011015E0AAF193
:1050B0000101E9E7002805DC049901440491AAEB09
:1050C000000102E0411C514500DD8A460499401A66
:1050D000401C01904FF000400290200704D401983A
:1050E000504501DBCDF8048000208DF84F00029878
:1050F0000DF14F07B0F1004F25D02B200E900298F4
:105100004FF0020800280CDA404202902D200E9049
:1051100007E00A210298FBF742F93031029007F8C4
:10512000011DB8F10001A8F10108F2DC0298002885
:10513000EFD1791E0E980870307800F0200040F012
:10514000450007F8020D12A8C01B00F107081498CB
:10515000007800B1012000EB0A01019801EBE07139
:1051600005984144401A401E0590E00306D45B4672
:105170002146179A059800F05DF8054414980078C8
:1051800018B15A46179990476D1CE00324D55B4629
:105190002146179A059800F04DF805441CE0049844
:1051A000002807DBDDE90301884203DD0098405C4D
:1051B000179901E0179930205A469047049805F155
:1051C0000105401C04900198401E019004D12E203E
:1051D0005A46179990476D1CBAF10001AAF1010ACD
:1051E000DDDC05E017F8010B5A46179990476D1C56
:1051F000B8F10001A8F10108F4DC5B462146179ADA
:105200000598ABE62D0000002B00000020000000F8
:105210002DE9F041044600251E461746880404D4B3
:1052200005E039462020B0476D1C641EF9D528469C
:10523000BDE8F0812DE9F041044600251E46904668
:10524000C80301D5302700E02027880404D505E0F5
:1052500041463846B0476D1C641EF9D52846BDE866
:10526000F0810A68531C0B6010707047004040408A
:105270004040404040404141414141404040404029
:1052800040404040404040404040404040050202D5
:105290000202020202020202020202020220202094
:1052A00020202020202020020202020202029090F0
:1052B00090909090101010101010101010101010EE
:1052C0001010101010101010020202020202888842
:1052D000888888880808080808080808080808084E
:1052E0000808080808080808020202024000000036
:1052F0006D520008000000000000000001020304DD
:1053000006070809456E636F64657250756C7365B6
:10531000436E743D20256C750D0A576865656C20D9
:105320005261646975733D2025302E35660D0A542F
:105330007269676765722044697374616E63653D65
:105340002025302E32660D0A546172676574207014
:10535000756C736520636F756E743D2025640D0A4E
:105360004175746F2074726967676572696E673D15
:105370002025730D0A00000098530008000000204B
:10538000800200000E0E0008085500088002002070
:10539000C017000084490008413210320113E13087
:1053A00014080D321B0819041A41041AA50413F13C
:1053B0002F1408E93152081324F41A450C1A9D28B9
:1053C0001AF51C411AED0C1A11041A7304C11A2D96
:1053D000281A21041A39041A150414090243130265
:1053E000011DC03209046D1A020B130524161001A9
:1053F00005240110090104240202052406170107EF
:1054000005820308151009040133020A2E0705015D
:105410000240072A810711093744113A024419074B
:10542000111A12171302021E40830440574D1B022B
:1054300003F92B0A061A111A400B112B0907640AEB
:105440003B04A813710E1B086B041A67041A950419
:1054500013311000081808040309041A03481850EF
:1054600072696E742074686973206D657373616707
:10547000653A20480D0A17281A7374617475733AD7
:1054800020550D0A53657420776865656C2072613C
:105490006469154A57154815656E636F6465722017
:1054A00070756C736520636E743A204C1A1E7472AA
:1054B0006967671A1B6469481B6E63596808440D65
:1054C0000A4175746F1A2C696E67631A72330A1277
:1054D000521A980D6F703A20540D0A466F72636528
:1054E0001A1C3A2046611B61766E1D75727265A8A2
:1054F0001E636F6E666918000812530D0A3E200D78
:085500000A0213010000000083
:04000005080001D915
:00000001FF
