:020000040800F2
:100000000080002031180008A1140008AF14000877
:10001000B5140008BB140008C1140008000000005B
:10002000000000000000000000000000C7140008ED
:10003000D514000800000000E3140008F1140008C3
:10004000811800088118000881180008811800082C
:10005000811800088118000881180008811800081C
:10006000811800088118000881180008811800080C
:1000700081180008811800088118000881180008FC
:10008000811800080000000081180008811800088D
:10009000FD140008811800088118000811150008D7
:1000A00081180008811800088118000881180008CC
:1000B000811800082D150008811800088118000813
:1000C00081180008811800088118000881180008AC
:1000D000811800088118000881180008811800089C
:1000E000811800088118000881180008811800088C
:1000F000811800088118000881180008000000001D
:1001000000000000811800080000000081180008AD
:1001100081180008000000008118000881180008FC
:10012000811800088118000881180008811800084B
:10013000811800080000000000000000811800087D
:10014000811800088118000800000000000000006D
:10015000000000000000000000000000000000009F
:1001600000000000000000000000000081180008EE
:1001700081180008000000000000000000000000DE
:1001800000000000811800080000000000000000CE
:10019000000000000000000000000000000000005F
:1001A000000000000000000081180008811800080D
:1001B000811800088118000881180008000000005C
:1001C000000000008118000800000000000000008E
:0801D0008118000881180008E5
:1001E00010B5054C237833B9044B13B10448AFF371
:1001F00000800123237010BD48040020000000008F
:1002000034B0000808B5034B1BB103490348AFF3F2
:10021000008008BD000000004C04002034B000083D
:10022000034613F8012B002AFBD1181A0138704736
:1002300001F0FF01102A2BDB10F0070F08D010F897
:10024000013B013A8B422DD010F0070F42B3F6D19B
:10025000F0B441EA012141EA014122F007047FF0B4
:1002600000070023F0E80256083C85EA010586EA0B
:10027000010685FA47F5A3FA87F586FA47F6A5FA47
:1002800087F68EB9EED1F0BC01F0FF0102F0070253
:1002900032B110F8013B013A83EA010313B1F8D1FE
:1002A0000020704701387047002D06BF35460338DF
:1002B000073815F0010F07D1013015F4807F02BF18
:1002C000013015F4C03F0130F0BC0138704700BF69
:1002D00081F0004102E000BF83F0004330B54FEAF7
:1002E00041044FEA430594EA050F08BF90EA020F64
:1002F0001FBF54EA000C55EA020C7FEA645C7FEAF7
:10030000655C00F0E2804FEA5454D4EB5555B8BF19
:100310006D420CDD2C4480EA020281EA030382EA8A
:10032000000083EA010180EA020281EA0303362D1C
:1003300088BF30BD11F0004F4FEA01314FF4801CEF
:100340004CEA113102D0404261EB410113F0004F01
:100350004FEA03334CEA133302D0524263EB4303B8
:1003600094EA050F00F0A780A4F10104D5F1200E56
:100370000DDB02FA0EFC22FA05F2801841F10001B1
:1003800003FA0EF2801843FA05F359410EE0A5F185
:1003900020050EF1200E012A03FA0EFC28BF4CF0B6
:1003A000020C43FA05F3C01851EBE37101F000456C
:1003B00007D54FF0000EDCF1000C7EEB00006EEB79
:1003C0000101B1F5801F1BD3B1F5001F0CD3490803
:1003D0005FEA30004FEA3C0C04F101044FEA44525A
:1003E00012F5800F80F09A80BCF1004F08BF5FEAE1
:1003F000500C50F1000041EB045141EA050130BDC1
:100400005FEA4C0C404141EB010111F4801FA4F163
:100410000104E9D191F0000F04BF01460020B1FAB8
:1004200081F308BF2033A3F10B03B3F120020CDAF0
:100430000C3208DD02F1140CC2F10C0201FA0CF0CE
:1004400021FA02F10CE002F11402D8BFC2F1200C33
:1004500001FA02F120FA0CFCDCBF41EA0C019040E9
:10046000E41AA2BF01EB0451294330BD6FEA040432
:100470001F3C1CDA0C340EDC04F11404C4F120021D
:1004800020FA04F001FA02F340EA030021FA04F32F
:1004900045EA030130BDC4F10C04C4F1200220FA86
:1004A00002F001FA04F340EA0300294630BD21FAC4
:1004B00004F0294630BD94F0000F83F4801306BF8A
:1004C00081F480110134013D4EE77FEA645C18BF7E
:1004D0007FEA655C29D094EA050F08BF90EA020F15
:1004E00005D054EA000C04BF1946104630BD91EA0D
:1004F000030F1EBF0021002030BD5FEA545C05D110
:100500004000494128BF41F0004130BD14F580044E
:100510003CBF01F5801130BD01F0004545F0FE41C2
:1005200041F470014FF0000030BD7FEA645C1ABFF7
:10053000194610467FEA655C1CBF0B46024650EA2E
:10054000013406BF52EA033591EA030F41F400215A
:1005500030BD00BF90F0000F04BF0021704730B5E0
:100560004FF4806404F132044FF000054FF00001B5
:1005700050E700BF90F0000F04BF0021704730B576
:100580004FF4806404F1320410F0004548BF40424B
:100590004FF000013EE700BF42004FEAE2014FEAA0
:1005A00031014FEA02701FBF12F07F4393F07F4F7B
:1005B00081F06051704732F07F4208BF704793F07E
:1005C0007F4F04BF41F40021704730B54FF4607491
:1005D00001F0004521F000411CE700BF50EA010294
:1005E00008BF704730B54FF000050AE050EA01023D
:1005F00008BF704730B511F0004502D5404261EBAD
:1006000041014FF4806404F132045FEA915C3FF4ED
:10061000D8AE4FF003025FEADC0C18BF03325FEA8A
:10062000DC0C18BF033202EBDC02C2F1200300FA3B
:1006300003FC20FA02F001FA03FE40EA0E0021FA60
:1006400002F11444BDE600BF70B54FF0FF0C4CF44E
:10065000E06C1CEA11541DBF1CEA135594EA0C0F00
:1006600095EA0C0F00F0DEF82C4481EA030621EA3B
:100670004C5123EA4C5350EA013518BF52EA033576
:1006800041F4801143F4801338D0A0FB02CE4FF028
:100690000005E1FB02E506F00042E0FB03E54FF058
:1006A0000006E1FB03569CF0000F18BF4EF0010E50
:1006B000A4F1FF04B6F5007F64F5407404D25FEA4C
:1006C0004E0E6D4146EB060642EAC62141EA5551FF
:1006D0004FEAC52040EA5E504FEACE2EB4F1FD0C41
:1006E00088BFBCF5E06F1ED8BEF1004F08BF5FEABF
:1006F000500E50F1000041EB045170BD06F0004671
:1007000046EA010140EA020081EA0301B4EB5C041D
:10071000C2BFD4EB0C0541EA045170BD41F4801115
:100720004FF0000E013C00F3AB8014F1360FDEBF3A
:10073000002001F0004170BDC4F10004203C35DA16
:100740000C341BDC04F11404C4F1200500FA05F399
:1007500020FA04F001FA05F240EA020001F000423A
:1007600021F0004110EBD37021FA04F642EB0601B0
:100770005EEA430E08BF20EAD37070BDC4F10C04DA
:10078000C4F1200500FA04F320FA05F001FA04F29E
:1007900040EA020001F0004110EBD37041F100018A
:1007A0005EEA430E08BF20EAD37070BDC4F1200595
:1007B00000FA05F24EEA020E20FA04F301FA05F2FD
:1007C00043EA020321FA04F001F0004121FA04F2A5
:1007D00020EA020000EBD3705EEA430E08BF20EA75
:1007E000D37070BD94F0000F0FD101F000464000AF
:1007F00041EB010111F4801F08BF013CF7D041EA31
:10080000060195F0000F18BF704703F00046520034
:1008100043EB030313F4801F08BF013DF7D043EA05
:100820000603704794EA0C0F0CEA135518BF95EABB
:100830000C0F0CD050EA410618BF52EA4306D1D142
:1008400081EA030101F000414FF0000070BD50EA61
:10085000410606BF1046194652EA430619D094EAEB
:100860000C0F02D150EA013613D195EA0C0F05D1D5
:1008700052EA03361CBF104619460AD181EA030129
:1008800001F0004141F0FE4141F470014FF00000E1
:1008900070BD41F0FE4141F4780170BD70B54FF07C
:1008A000FF0C4CF4E06C1CEA11541DBF1CEA1355FC
:1008B00094EA0C0F95EA0C0F00F0A7F8A4EB0504DE
:1008C00081EA030E52EA03354FEA013100F08880D5
:1008D0004FEA03334FF0805545EA131343EA12639E
:1008E0004FEA022245EA111545EA10654FEA002653
:1008F0000EF000419D4208BF964244F1FD0404F50C
:10090000407402D25B084FEA3202B61A65EB030567
:100910005B084FEA32024FF480104FF4002CB6EB24
:10092000020E75EB030E22BFB61A754640EA0C00A4
:100930005B084FEA3202B6EB020E75EB030E22BFE4
:10094000B61A754640EA5C005B084FEA3202B6EB25
:10095000020E75EB030E22BFB61A754640EA9C00E4
:100960005B084FEA3202B6EB020E75EB030E22BFB4
:10097000B61A754640EADC0055EA060E18D04FEA72
:10098000051545EA16754FEA06164FEAC30343EA12
:1009900052734FEAC2025FEA1C1CC0D111F4801FDF
:1009A0000BD141EA00014FF000004FF0004CB6E7D8
:1009B00011F4801F04BF01430020B4F1FD0C88BF77
:1009C000BCF5E06F3FF6AFAEB5EB030C04BFB6EB82
:1009D000020C5FEA500C50F1000041EB045170BD75
:1009E0000EF0004E4EEA113114EB5C04C2BFD4EBA2
:1009F0000C0541EA045170BD41F480114FF0000E26
:100A0000013C90E645EA060E8DE60CEA135594EAA1
:100A10000C0F08BF95EA0C0F3FF43BAF94EA0C0FA4
:100A20000AD150EA01347FF434AF95EA0C0F7FF419
:100A300025AF104619462CE795EA0C0F06D152EA6D
:100A400003353FF4FDAE1046194622E750EA410651
:100A500018BF52EA43067FF4C5AE50EA41047FF462
:100A60000DAF52EA43057FF4EBAE12E74FF0FF3CC7
:100A700006E000BF4FF0010C02E000BF4FF0010C98
:100A80004DF804CD4FEA410C7FEA6C5C4FEA430C11
:100A900018BF7FEA6C5C1BD001B050EA410C0CBF60
:100AA00052EA430C91EA030F02BF90EA020F0020C2
:100AB000704710F1000F91EA030F58BF994208BF29
:100AC00090422CBFD8176FEAE37040F001007047E6
:100AD0004FEA410C7FEA6C5C02D150EA013C07D13D
:100AE0004FEA430C7FEA6C5CD6D152EA033CD3D088
:100AF0005DF8040B704700BF8446104662468C4682
:100B00001946634600E000BF01B5FFF7B7FF0028B4
:100B100048BF10F1000F01BD4DF808EDFFF7F4FFDD
:100B20000CBF012000205DF808FB00BF4DF808ED68
:100B3000FFF7EAFF34BF012000205DF808FB00BF8B
:100B40004DF808EDFFF7E0FF94BF012000205DF8AD
:100B500008FB00BF4DF808EDFFF7CEFF94BF012062
:100B600000205DF808FB00BF4DF808EDFFF7C4FF5B
:100B700034BF012000205DF808FB00BF4FEA410CA4
:100B80007FEA6C5C02D150EA013C0AD14FEA430C87
:100B90007FEA6C5C02D152EA033C02D14FF00000C4
:100BA00070474FF0010070474FEA410212F5001202
:100BB00015D211D56FF47873B3EB625212D94FEAA4
:100BC000C12343F0004343EA505311F0004F23FA8E
:100BD00002F018BF404270474FF00000704750EAE3
:100BE000013005D111F0004008BF6FF000407047A0
:100BF0004FF00000704700BF4A0011D212F50012FA
:100C000011D20DD56FF47873B3EB62520ED44FEA64
:100C1000C12343F0004343EA505323FA02F07047E4
:100C20004FF00000704750EA013002D14FF0FF3022
:100C300070474FF0000070474FEA4102B2F1E043C5
:100C400024BFB3F5001CDCF1FE5C0DD901F0004CB3
:100C50004FEAC0024CEA5070B2F1004F40EB830003
:100C600008BF20F00100704711F0804F21D113F12F
:100C70003872BCBF01F00040704741F480114FEA68
:100C80005252C2F11802C2F1200C10FA0CF320FAF1
:100C900002F018BF40F001004FEAC1234FEAD3230E
:100CA00003FA0CFC40EA0C0023FA02F34FEA430378
:100CB000CCE77FEA625307D150EA01331EBF4FF001
:100CC000FE4040F44000704701F0004040F0FE401C
:100CD00040F40000704700BF80B58AB000AF07F154
:100CE000140300221A605A609A60DA601A61514B4C
:100CF000DB6C504A43F02003D3644E4BDB6C03F0B3
:100D000020033B613B694B4BDB6C4A4A43F0400399
:100D1000D364484BDB6C03F04003FB60FB68454B3E
:100D2000DB6C444A43F00103D364424BDB6C03F0B9
:100D30000103BB60BB683F4BDB6C3E4A43F00203E0
:100D4000D3643C4BDB6C03F002037B607B680022C6
:100D50000321394801F01CFB002240F20111374801
:100D600001F016FB03237B610123BB610023FB61C0
:100D700000233B6207F1140319462F4801F086F95E
:100D80004FF480637B610323BB610023FB6107F1A8
:100D9000140319462A4801F079F948F2FF737B6180
:100DA0000323BB610023FB6107F1140319464FF0D5
:100DB000904001F06BF940F201137B610123BB61AC
:100DC0000023FB6100233B6207F1140319461B4813
:100DD00001F05CF910237B610323BB610023FB61FD
:100DE00007F114031946154801F050F960237B619F
:100DF000144BBB610023FB6107F1140319460F4834
:100E000001F044F980237B610E4BBB610123FB6140
:100E100007F114031946094801F038F900220021AE
:100E2000172000F09CFE172000F0B3FE00BF28370B
:100E3000BD4680BD00100240001400480004004878
:100E4000001800480000111080B483B000AF786033
:100E50007B681B6843F001027B681A6000BF0C3797
:100E6000BD465DF8047B704780B483B000AF786006
:100E70007B686FF001021A6100BF0C37BD465DF858
:100E8000047B704780B483B000AF78607B68DB6818
:100E900043F001027B68DA6000BF0C37BD465DF8A5
:100EA000047B704780B582B000AF0346FB80FB88AF
:100EB000402B12D0802B1ED0202B00D024E001210B
:100EC000134801F07DFA134B1B78002B19D0124BFD
:100ED0001B680133104A136013E002210C4801F033
:100EE0006FFA0C4B1B78002B0DD00C4B1B68013399
:100EF0000A4A136007E04FF48071094801F060FA74
:100F000002E000BF00E000BF00BF0837BD4680BD63
:100F1000001400486C0400206404002068040020D1
:100F2000000400480000000090B583B000AF87EDDA
:100F3000010A7868FFF730FB09A3D3E90023FFF724
:100F400083FB03460C4618462146FFF775FE034611
:100F500007EE903AB0EE670A0C37BD4690BD00BF71
:100F60006F1283C0CA21194080B483B000AF87EDEF
:100F7000010AC7ED000A97ED017AD7ED007AC7EEB6
:100F8000276AF0EE667AB0EE670A0C37BD465DF868
:100F9000047B704780B483B000AF87ED010A3860EE
:100FA0003B6807EE903AB8EEE77AD7ED017A67EE44
:100FB000277AFDEEE77A17EE903A18460C37BD46D1
:100FC0005DF8047B7047B0B588B000AF786000F082
:100FD00051FE0023FB6001233B613F237B61012322
:100FE000BB6107F1080207F10C031146184600F037
:100FF00029FF7D680023FB7714E0FB7F03F100638A
:1010000003F5FC331946FB7FDB08DBB2DB002B4426
:10101000D3E900341A462346002000F0D5FDFB7FBB
:101020000833FB77FB7F182BE7D900F045FE00BFA4
:101030002037BD46B0BD0000F0B52DED028BB3B03A
:1010400006AFA64A07F1080307CA83E807004FF076
:10105000FF33C7F8AC3000F014FC00F061F9FFF783
:101060003BFE05F023FE00F0A3FB9D48FFF70AFFBF
:10107000642000F077FC97ED048AD7ED037AB0EE98
:10108000670AFFF751FFF0EE407AF0EE670AB0EE24
:10109000480AFFF769FFF0EE407ABB681846B0EEE9
:1010A000670AFFF777FFC7F8AC008E4B00221A7073
:1010B0008C4B1B78013B042B00F2E58001A252F817
:1010C00023F000BFD910000843110008A91100083F
:1010D000131200086D1200081721834805F0DEFF87
:1010E00000BF824B1B78002BFBD0804B00221A7074
:1010F0007F4806F00FFC54EC103B18462146FFF7E2
:101100009BFD0346FB6097ED048AD7ED037AB0EEB2
:10111000670AFFF709FFF0EE407AF0EE670AB0EEDB
:10112000480AFFF721FFF0EE407ABB681846B0EEA0
:10113000670AFFF72FFFC7F8AC006A4B00221A704E
:10114000A6E01C216B4805F0A9FF00BF674B1B7888
:10115000002BFBD0654B00221A70654806F0DDFBC2
:101160000346BB60BB68002B00F0918097ED048ABA
:10117000D7ED037AB0EE670AFFF7D6FEF0EE407ABD
:10118000F0EE670AB0EE480AFFF7EEFEF0EE407AA6
:10119000BB681846B0EE670AFFF7FCFEC7F8AC0064
:1011A000504B00221A7073E01C21534805F076FF63
:1011B00000BF4E4B1B78002BFBD04C4B00221A700B
:1011C0004B4806F0A7FB54EC103B18462146FFF7AE
:1011D00033FD03463B6197ED048AD7ED037AB0EE09
:1011E000670AFFF7A1FEF0EE407AF0EE670AB0EE74
:1011F000480AFFF7B9FEF0EE407ABB681846B0EE39
:10120000670AFFF7C7FEC7F8AC00364B00221A701A
:101210003EE0BE68FB681846FFF7BEF904460D467F
:101220003B691846FFF7B8F902460B46334909787F
:10123000002901D0324900E032490591D7F8AC10BD
:101240000491CDE90223CDE9004532462E492F48CD
:1012500006F0F6FF2D48FEF7E3FF034619462B483C
:1012600005F01CFF1F4B00221A7011E019212848BD
:1012700005F014FF07F108031846FFF7A4FE194B09
:1012800000221A7004E0174B00221A7000E000BF21
:101290001A4B1B78002B3FF40BAF1E4B1B68D7F883
:1012A000AC209A423FF704AF1A4B00221A601A4B47
:1012B00000221A6001220121184801F069F808484B
:1012C000FFF7D2FD0648FFF7BFFDEE23FB71FB1DC4
:1012D0000121184605F0E2FEEAE600BF00F8010829
:1012E000000400406D04002050B000086E0400208F
:1012F000940A002068B0000888B000086C04002040
:10130000A8B00008B0B00008BCB00008A0060020DB
:1013100030B1000864040020680400200004004884
:1013200080B5A4B000AF07F1580338220021184659
:1013300006F022FB07F1440300221A605A609A600B
:10134000DA601A613B4644220021184606F014FB7D
:10135000002001F07DFF2223BB654FF480737B6684
:101360004023BB6601233B6702237B670223BB67E5
:101370000223FB672A23C7F880300223C7F8843092
:101380000223C7F888300223C7F88C3007F15803CE
:10139000184602F001F80346002B01D000F027F8B0
:1013A0000F237B640323BB640023FB6400233B65A2
:1013B00000237B6507F144030821184602F004FB73
:1013C0000346002B01D000F012F84FF400533B60AD
:1013D00000237B633B46184602F0DAFC0346002BF1
:1013E00001D000F004F800BF9037BD4680BD80B446
:1013F00000AF00BFBD465DF8047B704780B400AF0E
:10140000054B9B68044A43F48043936000BFBD468C
:101410005DF8047B704700BF0070004080B582B06B
:1014200000AF0F4B1B6E0E4A43F0010313660C4BCB
:101430001B6E03F001037B607B68094B9B6D084AC0
:1014400043F080539365064B9B6D03F080533B60E4
:101450003B68FFF7D3FF00BF0837BD4680BD00BF24
:101460000010024080B483B000AF78607B681B68D6
:1014700023F001027B681A6000BF0C37BD465DF89F
:10148000047B704780B483B000AF78607B686FF0F6
:1014900001021A6100BF0C37BD465DF8047B70473E
:1014A00080B400AF00BFBD465DF8047B704780B4D8
:1014B00000AFFEE780B400AFFEE780B400AFFEE708
:1014C00080B400AFFEE780B400AF00BFBD465DF85A
:1014D000047B704780B400AF00BFBD465DF8047B5D
:1014E000704780B400AF00BFBD465DF8047B704715
:1014F00080B500AF00F018FA00BF80BD80B500AF26
:10150000024801F06CF800BF80BD00BF301500201C
:1015100080B500AF202000F06DFF402000F06AFF92
:10152000802000F067FF00BF80BD000080B500AFE5
:101530000648FFF797FF00220121054800F028FF29
:101540000248FFF79FFF00BF80BD00BF00040040BE
:101550000004004880B584B000AF7860114B1B6870
:10156000002B02D10F4B104A1A600E4B1B68FB6018
:101570000C4B1A687B6813446A46934207D906F0FD
:10158000D1F902460C2313604FF0FF3306E0054B00
:101590001A687B681344034A1360FB6818461037C7
:1015A000BD4680BD70040020A817002080B400AFA5
:1015B000084BD3F88830074A43F47003C2F88830E8
:1015C000044B4FF000629A6000BFBD465DF8047B9B
:1015D000704700BF00ED00E080B400AF044BDB6853
:1015E0001B0A03F007031846BD465DF8047B7047ED
:1015F00000ED00E080B483B000AF0346FB7197F9C3
:101600000730002B0BDBFB7903F01F02074997F92A
:1016100007305B09012000FA02F241F8232000BFE5
:101620000C37BD465DF8047B704700BF00E100E069
:1016300080B483B000AF03463960FB7197F907307F
:10164000002B0ADB3B68DAB20C4997F9073012012C
:10165000D2B20B4483F800230AE03B68DAB20849AF
:10166000FB7903F00F03043B1201D2B20B441A764C
:1016700000BF0C37BD465DF8047B704700E100E019
:1016800000ED00E080B489B000AFF860B9607A6026
:10169000FB6803F00703FB61FB69C3F10703042B3D
:1016A00028BF0423BB61FB690433062B02D9FB6905
:1016B000033B00E000237B614FF0FF32BB6902FA7D
:1016C00003F3DA43BB681A407B699A404FF0FF315D
:1016D0007B6901FA03F3D9437B680B401343184637
:1016E0002437BD465DF8047B704780B483B000AFFB
:1016F00078607B681B6823F080027B681A6000BFFB
:101700000C37BD465DF8047B704780B483B000AFF2
:10171000786039607B689B6823F4A03323F007036B
:101720003A681A437B689A6000BF0C37BD465DF883
:10173000047B704780B483B000AF786039607B6809
:101740005B6823F0007323F070033A681A437B68E8
:101750005A6000BF0C37BD465DF8047B704780B40B
:1017600083B000AF78607B689B6823F080027B6861
:101770009A6000BF0C37BD465DF8047B70470000DF
:1017800080B485B000AF7860084B9A6D07497B68DC
:1017900013438B65054B9A6D7B681340FB60FB68B8
:1017A00000BF1437BD465DF8047B7047001002404F
:1017B00080B586B000AF3B1D00221A605A609A6067
:1017C000DA601A610220FFF7DBFFFFF705FF03462F
:1017D000002200211846FFF755FF034619461D2039
:1017E000FFF726FF1D20FFF705FF44F29F13BB8084
:1017F0000023BB602C23FB6000233B613B1D19468B
:101800000A4802F0EFFC0948FFF76FFF0021074884
:10181000FFF77BFF20210548FFF78CFF0348FFF708
:101820009EFF00BF1837BD4680BD00BF00040040CA
:101830000D4885460D480E490E4A002302E0D45853
:10184000C4500433C4188C42F9D30B4A0B4C002308
:1018500001E013600432A242FBD3FFF7A7FE06F0BB
:1018600067F8FFF7E9FBFEE700800020000000209A
:1018700048040020A8B4000848040020A81700204D
:10188000FEE780B582B000AF0023FB71032000F0BB
:101890005BF9002000F00EF80346002B02D0012374
:1018A000FB7101E0FFF7BAFDFB7918460837BD462A
:1018B00080BD000080B584B000AF78600023FB736A
:1018C000164B1B68002B22D0154B1A68134B1B6854
:1018D0004FF47A71B1FBF3F3B2FBF3F3184600F067
:1018E00066F90346002B0FD17B680F2B09D8002225
:1018F00079684FF0FF3000F032F90A4A7B681360D4
:1019000007E00123FB7304E00123FB7301E00123E3
:10191000FB73FB7B18461037BD4680BD08000020D6
:10192000000000200400002080B400AF054B1A68BE
:10193000054B1B681344034A136000BFBD465DF8A6
:10194000047B7047CC0700200800002080B400AF63
:10195000034B1B681846BD465DF8047B704700BF0B
:10196000CC07002080B584B000AF7860FFF7EEFFB1
:10197000B8607B68FB60FB68B3F1FF3F04D0094BA4
:101980001B68FA681344FB6000BFFFF7DFFF0246E5
:10199000BB68D31AFA689A42F7D800BF1037BD4621
:1019A00080BD00BF0800002080B485B000AF786023
:1019B0007B6803F00703FB600C4BDB68BB60BA6815
:1019C0004FF6FF031340BB60FB681A02BB6813436A
:1019D00043F0BF6343F40033BB60044ABB68D36089
:1019E00000BF1437BD465DF8047B704700ED00E092
:1019F00080B400AF044BDB681B0A03F007031846F2
:101A0000BD465DF8047B704700ED00E080B483B014
:101A100000AF0346FB7197F90730002B0BDBFB7916
:101A200003F01F02074997F907305B09012000FA0C
:101A300002F241F8232000BF0C37BD465DF8047B5D
:101A4000704700BF00E100E080B483B000AF034600
:101A50003960FB7197F90730002B0ADB3B68DAB27B
:101A60000C4997F907301201D2B20B4483F80023D6
:101A70000AE03B68DAB20849FB7903F00F03043B44
:101A80001201D2B20B441A7600BF0C37BD465DF886
:101A9000047B704700E100E000ED00E080B489B015
:101AA00000AFF860B9607A60FB6803F00703FB6180
:101AB000FB69C3F10703042B28BF0423BB61FB6947
:101AC0000433062B02D9FB69033B00E000237B6152
:101AD0004FF0FF32BB6902FA03F3DA43BB681A40E6
:101AE0007B699A404FF0FF317B6901FA03F3D943D8
:101AF0007B680B40134318462437BD465DF8047BD2
:101B00007047000080B582B000AF78607B68013B11
:101B1000B3F1807F01D301230FE00A4A7B68013BC8
:101B200053600F214FF0FF30FFF78EFF054B00226F
:101B30009A60044B07221A60002318460837BD46F6
:101B400080BD00BF10E000E080B582B000AF7860DB
:101B50007868FFF729FF00BF0837BD4680BD80B514
:101B600086B000AF0346B9607A60FB73FFF740FFB1
:101B700078617A68B9687869FFF790FF024697F94B
:101B80000F3011461846FFF75FFF00BF1837BD46FC
:101B900080BD80B582B000AF0346FB7197F9073076
:101BA0001846FFF733FF00BF0837BD4680BD80B53C
:101BB00082B000AF78607868FFF7A4FF034618464C
:101BC0000837BD4680BD000080B586B000AFF86024
:101BD000B960C7E9002300233B61244B1B78012B2C
:101BE00001D102233EE0214B01221A704FF47A709A
:101BF00000F07CF80346FB75FB7D002B2ED11B4BC0
:101C000000225A60FB68002B07D1D7E90023B8688F
:101C100000F0C0F801233B6110E0FB68012B02D00B
:101C2000FB68022B0AD13B681946B86800F0D6F869
:101C3000FB68022B02D14FF480233B614FF47A7092
:101C400000F054F80346FB753B69002B06D0084BA7
:101C50005A693B69DB43064913404B61034B002241
:101C60001A70FB7D18461837BD4680BD0C00002059
:101C70000020024080B483B000AF0023FB710B4B07
:101C80005B69002B0BDA094B094A9A60074B094A3A
:101C90009A60064B5B69002B01DA0123FB71FB792B
:101CA00018460C37BD465DF8047B704700200240A3
:101CB00023016745AB89EFCD80B483B000AF01232A
:101CC000FB71094B5B69084A43F000435361064BC3
:101CD0005B69002B01DA0023FB71FB7918460C3796
:101CE000BD465DF8047B70470020024080B584B09B
:101CF00000AF7860FFF72AFEF86009E0FFF726FEE4
:101D00000246FB68D31A7A689A4201D2032338E06C
:101D10001E4B1B6903F48033B3F5803FEED01B4BA1
:101D20001A694CF2FA331340BB60BB68002B1ED01B
:101D3000174B5A68BB681343154A5360BB6803F0DE
:101D40004043002B07D0114B9A69BB6803F0404316
:101D50000E4913438B61BB6823F04043002B04D032
:101D60000A4ABB6823F040431361012309E0074B93
:101D70001B6903F00103012B02D1044B01221A61FC
:101D8000002318461037BD4680BD00BF002002402A
:101D90000C00002090B484B000AFF860C7E90023C5
:101DA0000D4B5B690C4A43F001035361FB683A68D1
:101DB0001A60BFF36F8FD7E900124FF000034FF0A6
:101DC000000413000024FA680432136000BF1037C7
:101DD000BD4690BC704700BF0020024080B489B06F
:101DE00000AF786039604023FB777B68BB613B685C
:101DF0007B61134B5B69124A43F480235361EFF319
:101E00001083FB60FB683B6172B67B691A68BB6933
:101E10001A60BB690433BB617B6904337B61FB7F60
:101E2000013BFB77FB7F002BEFD13B69BB60BB68BD
:101E300083F3108800BF2437BD465DF8047B7047EC
:101E40000020024080B584B000AF786039604A4B12
:101E50001B78012B01D1022389E0474B01221A7024
:101E60004FF47A70FFF742FF0346FB73FB7B002BB6
:101E700079D1414B00225A60404B1B6803F4007338
:101E8000002B19D03D4B1B683C4A23F400731360B0
:101E90003A4B1B6803F48063002B09D0374B1B6857
:101EA000364A23F480631360334B03221A7716E01B
:101EB000314B01221A7712E0304B1B6803F4806328
:101EC000002B09D02D4B1B682C4A23F48063136030
:101ED000294B02221A7702E0274B00221A777B68EF
:101EE0001B68012B11D17B685B68184600F048F82D
:101EF0004FF47A70FFF7FAFE0346FB731F4B5B69E2
:101F00001E4A23F0040353612BE03B684FF0FF327D
:101F10001A607B689B68BB601BE07B685B68194646
:101F2000B86800F04BF84FF47A70FFF7DFFE034615
:101F3000FB73124B5B69114A23F4FD735361FB7B06
:101F4000002B03D03B68BA681A600AE0BB68013313
:101F5000BB607B689A687B68DB681344BA689A4206
:101F6000DBD300F04FF8044B00221A70FB7B1846BD
:101F70001037BD4680BD00BF0C000020002002408D
:101F800080B483B000AF78607B6803F00103002B5E
:101F900005D0094B5B69084A43F004035361064BC3
:101FA0005B69054A43F48033536100BF0C37BD467B
:101FB0005DF8047B704700BF0020024080B483B00E
:101FC00000AF786039600E4B5B6923F4FC727B686C
:101FD000DB0003F4FF630A4913434B61084B5B6961
:101FE000074A43F002035361054B5B69044A43F41B
:101FF0008033536100BF0C37BD465DF8047B7047EA
:102000000020024080B483B000AF1E4B1B7FFB71E9
:10201000FB79012B02D0FB79032B11D11A4B1B68E2
:10202000194A43F400631360174B1B68164A23F4E4
:1020300000631360144B1B68134A43F4007313606E
:10204000FB79022B02D0FB79032B11D10E4B1B68BD
:102050000D4A43F4805313600B4B1B680A4A23F468
:1020600080531360084B1B68074A43F48063136076
:10207000044B00221A7700BF0C37BD465DF8047B85
:10208000704700BF0C0000200020024080B487B0E1
:1020900000AF7860396000237B615AE13B681A68C1
:1020A00001217B6901FA03F31340FB60FB68002BFD
:1020B00000F04C813B685B68012B0BD03B685B6890
:1020C000022B07D03B685B68112B03D03B685B6831
:1020D000122B30D17B689B683B617B695B000322DC
:1020E00002FA03F3DB433A6913403B613B68DA6869
:1020F0007B695B0002FA03F33A6913433B617B6837
:102100003A699A607B685B683B6101227B6902FAED
:1021100003F3DB433A6913403B613B685B681B098F
:1021200003F001027B6902FA03F33A6913433B614E
:102130007B683A695A607B68DB683B617B695B005E
:10214000032202FA03F3DB433A6913403B613B6825
:102150009A687B695B0002FA03F33A6913433B61B7
:102160007B683A69DA603B685B68022B03D03B68A6
:102170005B68122B23D17B69DA087B68083253F83D
:1021800022303B617B6903F007039B000F2202FAB8
:1021900003F3DB433A6913403B613B681A697B698F
:1021A00003F007039B0002FA03F33A6913433B6110
:1021B0007B69DA087B680832396943F822107B684A
:1021C0001B683B617B695B00032202FA03F3DB437C
:1021D0003A6913403B613B685B6803F003027B692B
:1021E0005B0002FA03F33A6913433B617B683A6987
:1021F0001A603B685B6803F08053002B00F0A680F8
:102200005B4B1B6E5A4A43F001031366584B1B6E1F
:1022100003F00103BB60BB68564A7B699B0802332D
:1022200052F823303B617B6903F003039B000F22CC
:1022300002FA03F3DB433A6913403B617B68B3F175
:10224000904F1FD07B684C4A934219D07B684B4A11
:10225000934213D07B684A4A93420DD07B68494A27
:10226000934207D07B68484A934201D105230AE094
:10227000062308E0042306E0032304E0022302E02F
:10228000012300E000237A6902F0030292009340E8
:102290003A6913433B6137497B699B0802333A69CA
:1022A00041F82320394B1B683B61FB68DB433A69EB
:1022B00013403B613B685B6803F48033002B03D021
:1022C0003A69FB6813433B61304A3B6913602F4B0B
:1022D0005B683B61FB68DB433A6913403B613B68E9
:1022E0005B6803F40033002B03D03A69FB681343A7
:1022F0003B61264A3B695360244B9B683B61FB680A
:10230000DB433A6913403B613B685B6803F480132D
:10231000002B03D03A69FB6813433B611B4A3B69BE
:1023200093601A4BDB683B61FB68DB433A691340FF
:102330003B613B685B6803F40013002B03D03A69F0
:10234000FB6813433B61114A3B69D3607B690133EE
:102350007B613B681A687B6922FA03F3002B7FF4E8
:102360009DAE00BF1C37BD465DF8047B704700BFC3
:10237000001002400000014000040048000800482E
:10238000000C004800100048001400480004014000
:1023900080B483B000AF78600B467B8013467B70BF
:1023A0007B78002B03D07A887B689A6102E07A8878
:1023B0007B689A6200BF0C37BD465DF8047B7047AE
:1023C00080B483B000AF78600B467B807B685A692D
:1023D0007B881340002B03D07A887B689A6202E0E6
:1023E0007A887B689A6100BF0C37BD465DF8047B34
:1023F0007047000080B582B000AF0346FB80084BF9
:102400005A69FB881340002B06D0054AFB885361AC
:10241000FB881846FEF746FD00BF0837BD4680BD65
:1024200000040140F0B58BB006AF78607B68002BEC
:1024300001D10123ADE07B6893F82932DBB2002B98
:1024400006D17B68002283F82822786804F05AFFBE
:102450007B68032283F829227B681B68184601F0F9
:1024600064FF0023FB7335E0FB7B7A685B01134458
:10247000293301221A70FB7B7A685B0113442833ED
:10248000FA7B1A70FB7BFA7B91B27A685B0113448A
:1024900036330A461A80FB7B7A685B0113442B3380
:1024A00000221A70FB7B7A685B01134438330022E8
:1024B0001A60FB7B7A685B0113443C3300221A608C
:1024C000FB7B7A6802335B01134400221A60FB7BBA
:1024D0000133FB73FA7B7B685B689A42C4D30023A9
:1024E000FB7331E0FB7B7A685B01134403F2291331
:1024F00000221A70FB7B7A685B01134403F5947326
:10250000FA7B1A70FB7B7A685B01134403F22B138E
:1025100000221A70FB7B7A685B01134403F59C73FD
:1025200000221A60FB7B7A685B01134403F59E73FB
:1025300000221A60FB7B7A680A335B011344002295
:102540001A60FB7B0133FB73FA7B7B685B689A4202
:10255000C8D37B681B683B607E686D4606F110043B
:102560000FCC0FC523682B60331D0ECB386801F0EC
:10257000F7FE7B68002283F824207B68012283F821
:1025800029227B68DB69012B02D1786800F035FED7
:10259000002318461437BD46F0BD80B582B000AFA9
:1025A00078607B6893F82832012B01D1022312E076
:1025B0007B68012283F828227B681B68184602F09A
:1025C0001BFF7B681B68184601F096FE7B680022A3
:1025D00083F82822002318460837BD4680BD80B501
:1025E00082B000AF78607B681B68184602F01BFF62
:1025F000034603F40043B3F5004F02D1786800F0BE
:1026000033FB7B681B68184602F00DFF034603F49A
:102610008063B3F5806F12D17B681B68B3F84430D8
:102620009AB27B681B6822F4806292B2A3F84420BD
:10263000786804F0FEFE0021786800F01EF97B68DF
:102640001B68184602F0EFFE034603F48043B3F51F
:10265000804F0BD17B681B68B3F844309AB27B681B
:102660001B6822F4804292B2A3F844207B681B6866
:10267000184602F0D8FE034603F40053B3F5005F9A
:102680000BD17B681B68B3F844309AB27B681B6837
:1026900022F4005292B2A3F844207B681B681846CB
:1026A00002F0C1FE034603F48053B3F5805F33D1DB
:1026B0007B681B68B3F840309AB27B681B6822F0D5
:1026C000040292B2A3F840207B681B68B3F8403044
:1026D0009AB27B681B6822F0080292B2A3F84020ED
:1026E0007B6893F86032012B07D17B68002283F866
:1026F00060220021786805F08DF8786804F0D2FE39
:102700007B681B68B3F844309AB27B681B6822F47C
:10271000805292B2A3F844207B681B68184602F0EE
:1027200082FE034603F40063B3F5006F26D17B6895
:102730001B68B3F840309AB27B681B6842F008020D
:1027400092B2A3F840207B681B68B3F844309AB279
:102750007B681B6822F4006292B2A3F844207B6875
:102760001B68B3F840309AB27B681B6842F00402E1
:1027700092B2A3F84020786804F07AFE7B681B6868
:10278000184602F050FE034603F08003802B3FD131
:102790007B681B68B3F844309AB27B681B6822F0F0
:1027A000800292B2A3F844207B6893F86032002B39
:1027B0002BD17B681B68B3F840309AB27B681B68EA
:1027C00042F0040292B2A3F840207B681B68B3F881
:1027D00040309AB27B681B6842F0080292B2A3F8BC
:1027E00040207B68012283F860227B681B68B3F875
:1027F00054309BB29B0803F03C027B68C3F8642210
:102800000121786805F006F802E0786804F030FEEF
:102810007B681B68184602F006FE034603F400734B
:10282000B3F5007F0ED17B681B68B3F844309AB2D1
:102830007B681B6822F4007292B2A3F84420786887
:1028400004F0E9FD7B681B68184602F0ECFD0346C6
:1028500003F48073B3F5807F0BD17B681B68B3F8FA
:1028600044309AB27B681B6822F4807292B2A3F85B
:10287000442000BF0837BD4680BD80B582B000AFA0
:1028800078600B46FB707B6893F82832012B01D1EE
:10289000022313E07B68012283F828227B68FA7800
:1028A00083F824207B681B68FA781146184602F0EA
:1028B0008FFD7B68002283F8282200231846083702
:1028C000BD4680BD80B584B000AF78600846114633
:1028D0001A460346FB700B463B801346BB70002331
:1028E000FB7297F90330002B0BDAFB7803F0070338
:1028F0005B0128337A681344FB60FB6801225A703D
:102900000BE0FB7803F007035B0103F594737A682F
:102910001344FB60FB6800225A70FB7803F0070346
:10292000DAB2FB681A703A88FB681A61FB68BA78F9
:10293000DA70FB685B78002B04D0FB681B789AB2D6
:10294000FB68DA81BB78022B02D1FB6800221A7186
:102950007B6893F82832012B01D102230EE07B68BB
:10296000012283F828227B681B68F968184601F069
:102970001BFD7B68002283F82822FB7A184610375B
:10298000BD4680BD80B584B000AF78600B46FB705B
:1029900097F90330002B0BDAFB7803F007035B0198
:1029A00028337A681344FB60FB6801225A700BE0FD
:1029B000FB7803F007035B0103F594737A68134413
:1029C000FB60FB6800225A70FB7803F00703DAB261
:1029D000FB681A707B6893F82832012B01D102231F
:1029E0000EE07B68012283F828227B681B68F96867
:1029F000184601F0C9FF7B68002283F828220023D3
:102A000018461037BD4680BD80B586B000AFF8606F
:102A10007A603B600B46FB72FB7A03F007035B01B5
:102A200003F59473FA6813447B617B697A685A6191
:102A30007B693A689A617B690022DA617B690022CE
:102A40005A70FB7A03F00703DAB27B691A70FB7ADB
:102A500003F00703002B06D1FB681B687969184651
:102A600002F028F905E0FB681B687969184602F056
:102A700021F9002318461837BD4680BD80B483B0C5
:102A800000AF78600B46FB70FB7803F007037A68B1
:102A90000A335B01134404331B6818460C37BD46E8
:102AA0005DF8047B704780B586B000AFF8607A604F
:102AB0003B600B46FB72FB7A03F007035B01283394
:102AC000FA6813447B617B697A685A617B693A686A
:102AD0009A617B690022DA617B6901225A70FB7A74
:102AE00003F00703DAB27B691A70FB7A03F007037D
:102AF000002B06D1FB681B687969184602F0DAF8EA
:102B000005E0FB681B687969184602F0D3F80023DA
:102B100018461837BD4680BD80B584B000AF7860D8
:102B20000B46FB70FB7803F007027B685B689A42F8
:102B300001D9012346E097F90330002B0BDAFB782B
:102B400003F007035B0128337A681344FB60FB68DA
:102B500001225A7009E0FB785B0103F594737A68EF
:102B60001344FB60FB6800225A70FB6801229A70D4
:102B7000FB7803F00703DAB2FB681A707B6893F8FE
:102B80002832012B01D102231CE07B68012283F84B
:102B900028227B681B68F968184602F043FBFB7823
:102BA00003F00703002B08D17B681A687B6803F5E4
:102BB0000C731946104602F046FC7B68002283F82D
:102BC0002822002318461037BD4680BD80B584B04A
:102BD00000AF78600B46FB70FB7803F00F027B6858
:102BE0005B689A4201D901233AE097F90330002B40
:102BF0000BDAFB7803F007035B0128337A68134490
:102C0000FB60FB6801225A700BE0FB7803F00703BE
:102C10005B0103F594737A681344FB60FB68002240
:102C20005A70FB6800229A70FB7803F00703DAB24F
:102C3000FB681A707B6893F82832012B01D10223BC
:102C40000EE07B68012283F828227B681B68F96804
:102C5000184602F029FB7B68002283F82822002313
:102C600018461037BD4680BD90B589B000AF78607A
:102C700074E27B681B68B3F84430FB82FB8ADBB2EA
:102C800003F00F037B757B7D002B40F03C81FB8ABA
:102C900003F01003002B4FD17B681B681B889BB28D
:102CA00023F4E14323F070039CB27B681A686FEA57
:102CB00044436FEA53439BB213807B682833FB6025
:102CC0007B681B68B3F850309BB21A46FB681B78D0
:102CD000DB0013447A681268134403F202431B8832
:102CE000C3F30902FB68DA61FB685A69FB68DB69B8
:102CF0001A44FB685A610021786804F075FB7B6810
:102D000093F82430DBB2002B00F02882FB689B692B
:102D1000002B40F023827B6893F82430DBB263F011
:102D20007F03DAB27B681B6892B2A3F84C207B6801
:102D3000002283F8242011E27B6803F59473FB6082
:102D40007B681B681B887B827B8A03F40063002BF3
:102D500031D07B681B68B3F850309BB21A46FB68D1
:102D60001B78DB0013447A681268134403F20643AD
:102D70001B88C3F30902FB68DA617B6818687B680B
:102D800003F50C71FB68DA88FB68DB699BB202F023
:102D9000A7FB7B681B681B889AB240F68F731340B1
:102DA0009CB27B681B6844F0800292B21A807868FB
:102DB00004F0F0FAD2E1B7F91230002B80F2CE81A4
:102DC0007B681B681B889AB240F68F7313409CB2D5
:102DD0007B681B6844F0800292B21A807B681B6893
:102DE000B3F850309BB21A46FB681B78DB001344E3
:102DF0007A681268134403F206431B88C3F309027E
:102E0000FB68DA61FB68DB69002B19D0FB685B6942
:102E1000002B15D07B681868FB685969FB68DA8855
:102E2000FB68DB699BB202F05BFBFB685A69FB68DD
:102E3000DB691A44FB685A610021786804F0BCFA27
:102E40007B681B681C467B681B68B3F850309BB2DC
:102E50001C4404F206431C46FB681B69002B0ED180
:102E600023889BB223F4F8439BB2238023889BB230
:102E70006FEA43436FEA53439BB223802DE0FB6824
:102E80001B693E2B12D8FB681B695B08BB61FB68A2
:102E90001B6903F00103002B02D0BB690133BB6146
:102EA000BB699BB29B029BB2238016E0FB681B6947
:102EB0005B09BB61FB681B6903F01F03002B02D198
:102EC000BB69013BBB61BB699BB29B029BB26FEAD2
:102ED00043436FEA53439BB223807B681B681B8884
:102EE0009BB223F4804323F070039CB284F480539C
:102EF0009CB284F400539CB27B681A689E4B2343B7
:102F00009BB213802AE17B681B681A467B7D9B007D
:102F100013441B887B82B7F91230002B80F2CB80E0
:102F20007B681B681A467B7D9B0013441B889AB202
:102F300040F68F7313409CB27B681B681A467B7DFA
:102F40009B00134444F0800292B21A807B7D5B01A7
:102F500003F594737A681344FB60FB681B7B002BBA
:102F60001FD17B681B68B3F850309BB21A46FB68D0
:102F70001B78DB0013447A681268134403F206439B
:102F80001B88C3F30903FB83FB8B002B6ED07B688C
:102F90001868FB685969FB68DA88FB8B02F0A0FAB5
:102FA00064E07B681B681A46FB681B789B0013442F
:102FB0001B889BB223F4E04323F070039CB27B6830
:102FC0001B681A46FB681B789B001A446B4B234313
:102FD0009BB213807B681B681A46FB681B789B00BA
:102FE00013441B889BB203F48043002B1FD07B68E3
:102FF0001B68B3F850309BB21A46FB681B78DB00A5
:1030000013447A681268134403F202431B88C3F323
:103010000903FB83FB8B002B28D07B681868FB68B7
:103020005969FB681A89FB8B02F05AFA1EE07B682B
:103030001B68B3F850309BB21A46FB681B78DB0064
:1030400013447A681268134403F206431B88C3F3DF
:103050000903FB83FB8B002B08D07B681868FB6897
:103060005969FB685A89FB8B02F03AFAFB68DA6906
:10307000FB8B1A44FB68DA61FB685A69FB8B1A44C4
:10308000FB685A61FB689B69002B04D0FA8BFB68D4
:103090001B699A4206D2FB681B781946786804F0CF
:1030A0008BF908E0FB681978FB685A69FB689B6933
:1030B0007868FFF7A9FC7B8A03F08003002B4DD0D2
:1030C0007B7D5B0128337A681344FB607B681B6857
:1030D0001A467B7D9B0013441B889BB223F4E1437B
:1030E00023F070039CB27B681B681A467B7D9B00B3
:1030F0001A446FEA44436FEA53439BB213807B68E0
:103100001B68B3F850309BB21A46FB681B78DB0093
:1031100013447A681268134403F202431B88C3F312
:103120000902FB68DA61FB685A69FB68DB691A44CB
:10313000FB685A61FB689B69002B06D1FB681B7812
:103140001946786804F050F908E0FB681978FB68C4
:103150005A69FB689B697868FFF7A5FC7B681B6868
:10316000B3F844309BB21BB2002BFFF682AD0023B4
:1031700018462437BD4690BD8080FFFFC080FFFF0A
:1031800080B487B000AFF8607B600B467B8113464C
:103190003B817B8903F080039BB2002B08D07B89A5
:1031A00003F007035B012833FA6813447B6106E0F0
:1031B0007B895B0103F59473FA6813447B613B8957
:1031C000002B07D17B6900221A737B689AB27B6956
:1031D000DA800BE07B6901221A737B689AB27B6903
:1031E0001A817B681B0C9AB27B695A8100231846AE
:1031F0001C37BD465DF8047B704780B485B000AFD6
:1032000078607B681B68FB607B680122C3F86822DA
:103210007B68002283F86022FB68B3F854309BB2CD
:1032200043F001039AB2FB68A3F85420FB68B3F89B
:1032300054309BB243F002039AB2FB68A3F85420C7
:10324000002318461437BD465DF8047B7047000024
:1032500080B485B000AF78607B68002B41D14B4BC8
:103260001B6803F4C063B3F5806F31D1474BD3F8CB
:103270008030464A23F48073C2F88030434B1B6889
:1032800023F4C063414A43F400731360404B1B684E
:10329000322202FB03F33F4AA2FB03239B0C0133C0
:1032A000FB6002E0FB68013BFB60384B5B6903F4A9
:1032B0008063B3F5806F02D1FB68002BF2D1334BF2
:1032C0005B6903F48063B3F5806F58D1032357E043
:1032D0002E4BD3F880302D4A23F48073C2F880300F
:1032E0004DE07B68B3F5007F41D1284B1B6803F4A8
:1032F000C063B3F5806F31D1244BD3F88030234ABB
:1033000043F48073C2F88030204B1B6823F4C06301
:103310001E4A43F4007313601D4B1B68322202FBEC
:1033200003F31C4AA2FB03239B0C0133FB6002E066
:10333000FB68013BFB60154B5B6903F48063B3F5ED
:10334000806F02D1FB68002BF2D1104B5B6903F454
:103350008063B3F5806F12D1032311E00B4BD3F8D8
:1033600080300A4A43F48073C2F8803007E0074B8C
:103370001B6823F4C063054A43F480631360002391
:1033800018461437BD465DF8047B70470070004056
:103390000000002083DE1B4380B588B000AF78605A
:1033A0007B68002B01D1012308E37B681B6803F0D5
:1033B0000103002B75D0A34B9B6803F00C03BB618A
:1033C000A04BDB6803F003037B61BB690C2B02D1CC
:1033D0007B69032B02D0BB69082B0BD1994B1B686F
:1033E00003F40033002B5BD07B685B68002B57D164
:1033F0000123E3E27B685B68B3F5803F06D1914B24
:103400001B68904A43F4803313601DE07B685B685F
:10341000B3F5A02F0CD18B4B1B688A4A43F4802351
:103420001360884B1B68874A43F4803313600BE0BA
:10343000844B1B68834A23F480331360814B1B68E1
:10344000804A23F4802313607B685B68002B13D0D1
:10345000FEF77CFA386108E0FEF778FA02463B692D
:10346000D31A642B01D90323A8E2764B1B6803F41B
:103470000033002BF0D014E0FEF768FA386108E062
:10348000FEF764FA02463B69D31A642B01D9032381
:1034900094E26C4B1B6803F40033002BF0D100E086
:1034A00000BF7B681B6803F00203002B75D0654BDF
:1034B0009B6803F00C03BB61624BDB6803F0030302
:1034C0007B61BB690C2B02D17B69022B02D0BB69EB
:1034D000042B1FD15B4B1B6803F48063002B05D0CA
:1034E0007B68DB68002B01D1012367E2554B5B68E9
:1034F00023F0FE427B681B691B06524913434B6055
:10350000514B1B681846FEF7D5F90346002B43D0F4
:10351000012353E27B68DB68002B23D0494B1B68F7
:10352000484A43F480731360FEF710FA386108E0EC
:10353000FEF70CFA02463B69D31A022B01D903238A
:103540003CE2404B1B6803F48063002BF0D03D4B02
:103550005B6823F0FE427B681B691B0639491343F5
:103560004B601AE0374B1B68364A23F480731360B4
:10357000FEF7ECF9386108E0FEF7E8F902463B692E
:10358000D31A022B01D9032318E22E4B1B6803F434
:103590008063002BF0D100E000BF7B681B6803F064
:1035A0000803002B3CD07B685B69002B1CD0254BAB
:1035B000D3F89430234A43F00103C2F89430FEF765
:1035C000C5F9386108E0FEF7C1F902463B69D31A34
:1035D000022B01D90323F1E11A4BD3F8943003F005
:1035E0000203002BEFD01BE0164BD3F89430154AA2
:1035F00023F00103C2F89430FEF7A8F9386108E01F
:10360000FEF7A4F902463B69D31A022B01D9032322
:10361000D4E10C4BD3F8943003F00203002BEFD12C
:103620007B681B6803F00403002B00F0AB800023D1
:10363000FB77044B9B6D03F08053002B06D10123D5
:1036400005E000BF00100240040000200023002B12
:103650000DD0AF4B9B6DAE4A43F080539365AC4B9E
:103660009B6D03F08053FB60FB680123FB77A94B44
:103670001B6803F48073002B18D1A64B1B68A54A66
:1036800043F480731360FEF761F9386108E0FEF7D8
:103690005DF902463B69D31A022B01D903238DE160
:1036A0009C4B1B6803F48073002BF0D07B689B68F5
:1036B000012B08D1964BD3F89030954A43F0010383
:1036C000C2F8903024E07B689B68052B10D1904BAA
:1036D000D3F890308E4A43F00403C2F890308C4BFC
:1036E000D3F890308A4A43F00103C2F890300FE0DB
:1036F000874BD3F89030864A23F00103C2F890300C
:10370000834BD3F89030824A23F00403C2F8903000
:103710007B689B68002B16D0FEF718F938610AE029
:10372000FEF714F902463B69D31A41F288329342FC
:1037300001D9032342E1764BD3F8903003F0020322
:10374000002BEDD015E0FEF701F938610AE0FEF735
:10375000FDF802463B69D31A41F28832934201D9FF
:1037600003232BE16A4BD3F8903003F00203002BC4
:10377000EDD1FB7F012B05D1654B9B6D644A23F096
:10378000805393657B681B6803F02003002B3CD0BB
:103790007B689B69002B1CD05D4BD3F898305C4A4A
:1037A00043F00103C2F89830FEF7D0F8386108E022
:1037B000FEF7CCF802463B69D31A022B01D903234A
:1037C000FCE0534BD3F8983003F00203002BEFD00A
:1037D0001BE04F4BD3F898304D4A23F00103C2F859
:1037E0009830FEF7B3F8386108E0FEF7AFF802460C
:1037F0003B69D31A022B01D90323DFE0444BD3F8F2
:10380000983003F00203002BEFD17B68DB69002BBB
:1038100000F0D3803E4B9B6803F00C030C2B00F0B0
:103820008D807B68DB69022B5AD1394B1B68384A83
:1038300023F080731360FEF789F8386108E0FEF723
:1038400085F802463B69D31A022B01D90323B5E060
:103850002F4B1B6803F00073002BF0D12C4BDA6860
:103860002D4B13407A68116A7A68526A013A120144
:1038700011437A68926A120211437A68126B5208F5
:10388000013A520511437A68526B5208013A5206C6
:1038900011437A68D26AD2060A431D491343CB60AA
:1038A0001B4B1B681A4A43F080731360184BDB688C
:1038B000174A43F08073D360FEF748F8386108E098
:1038C000FEF744F802463B69D31A022B01D90323C1
:1038D00074E00F4B1B6803F00073002BF0D06CE01A
:1038E0000B4B1B680A4A23F080731360084BDB689C
:1038F000074A23F00303D360054BDB68044A23F037
:10390000887323F48033D360FEF720F838610EE02B
:1039100000100240007000400C809F01FEF716F876
:1039200002463B69D31A022B01D9032346E0254BFB
:103930001B6803F00073002BF0D13EE07B68DB696D
:10394000012B01D1012339E01E4BDB687B617B69D0
:1039500003F003027B681B6A9A422CD17B6903F057
:10396000F0027B685B6A013B1B019A4223D17B69B1
:1039700003F4FE427B689B6A1B029A421BD17B695F
:1039800003F078427B68DB6ADB069A4213D17B69DD
:1039900003F4C0027B681B6B5B08013B5B059A422A
:1039A00009D17B6903F0C0627B685B6B5B08013BFC
:1039B0005B069A4201D0012300E00023184620371D
:1039C000BD4680BD0010024080B586B000AF786073
:1039D000396000237B617B68002B01D101231EE14C
:1039E000914B1B6803F00F033A689A4210D98E4B33
:1039F0001B6823F00F028C493B6813430B608A4B12
:103A00001B6803F00F033A689A4201D0012306E1D4
:103A10007B681B6803F00103002B73D07B685B6835
:103A2000032B29D1814B1B6803F00073002B01D1BC
:103A30000123F4E000F066F938613B697C4A934267
:103A40003FD97A4B9B6803F0F003002B09D07B68C9
:103A50001B6803F00203002B33D07B689B68002BAC
:103A60002FD1724B9B6823F0F003704A43F0800320
:103A7000936080237B6124E07B685B68022B07D125
:103A80006A4B1B6803F40033002B09D10123C6E005
:103A9000664B1B6803F48063002B01D10123BEE059
:103AA00000F0CEF838613B69614A934209D95F4B17
:103AB0009B6823F0F0035D4A43F08003936080230A
:103AC0007B615A4B9B6823F003027B685B68574914
:103AD00013438B60FDF73AFFF8600AE0FDF736FF0D
:103AE0000246FB68D31A41F28832934201D903237C
:103AF00095E04E4B9B6803F00C027B685B689B0073
:103B00009A42EBD17B681B6803F00203002B23D0A1
:103B10007B681B6803F00403002B05D0434B9B68B4
:103B2000424A43F4E06393607B681B6803F0080338
:103B3000002B07D03D4B9B6823F47C533B4A43F456
:103B4000E0639360394B9B6823F0F0027B689B68CD
:103B5000364913438B6008E07B69802B05D1334BDA
:103B60009B68324A23F0F00393602F4B1B6803F0ED
:103B70000F033A689A421DD22B4B1B6823F00F02A9
:103B800029493B6813430B60FDF7E0FEF8600AE04B
:103B9000FDF7DCFE0246FB68D31A41F288329342FD
:103BA00001D903233BE0204B1B6803F00F033A6865
:103BB0009A42EDD17B681B6803F00403002B08D008
:103BC0001A4B9B6823F4E0627B68DB681749134358
:103BD0008B607B681B6803F00803002B09D0134B34
:103BE0009B6823F460527B681B69DB000F49134319
:103BF0008B6000F025F801460C4B9B681B0903F015
:103C00000F030C4AD35C03F01F0321FA03F30A4AA3
:103C100013600A4B1B681846FDF74CFE0346184616
:103C20001837BD4680BD00BF002002400010024092
:103C300000B4C404E0B1000800000020040000202B
:103C400080B487B000AF2C4B9B6803F00C03042BAF
:103C500002D12A4B3B6147E0274B9B6803F00C03E2
:103C6000082B02D1264B3B613EE0234B9B6803F0BF
:103C70000C030C2B36D1204BDB6803F00303FB60F5
:103C80001D4BDB681B0903F00F030133BB60FB68AE
:103C9000032B0CD11A4ABB68B2FBF3F3164AD26865
:103CA000120A02F07F0202FB03F37B610CE0134A6D
:103CB000BB68B2FBF3F3104AD268120A02F07F022B
:103CC00002FB03F37B6100BF0B4BDB685B0E03F071
:103CD000030301335B007B607A697B68B2FBF3F31B
:103CE0003B6101E000233B613B6918461C37BD4640
:103CF0005DF8047B704700BF001002400024F40010
:103D000000127A0080B487B000AF1E4BDB6803F06E
:103D100003033B611B4BDB681B0903F00F030133FB
:103D2000FB603B69032B0CD1174AFB68B2FBF3F332
:103D3000144AD268120A02F07F0202FB03F37B618D
:103D40000CE0124AFB68B2FBF3F30E4AD268120A87
:103D500002F07F0202FB03F37B6100BF094BDB68CB
:103D60005B0E03F0030301335B00BB607A69BB6841
:103D7000B2FBF3F37B607B6818461C37BD465DF8E9
:103D8000047B70470010024000127A000024F40007
:103D900080B586B000AF78600023FB740023BB744D
:103DA0007B681B6803F40023002B00F0988000233D
:103DB0007B74434B9B6D03F08053002B0DD1404B24
:103DC0009B6D3F4A43F0805393653D4B9B6D03F0E1
:103DD0008053BB60BB6801237B743A4B1B68394A34
:103DE00043F480731360FDF7B1FDF86009E0FDF75F
:103DF000ADFD0246FB68D31A022B02D90323FB74E4
:103E000005E0304B1B6803F48073002BEFD0FB7C84
:103E1000002B59D12A4BD3F8903003F440737B61C7
:103E20007B69002B1ED07B681B6C7A699A4219D083
:103E3000234BD3F8903023F440737B61204BD3F8AD
:103E400090301F4A43F48033C2F890301C4BD3F8B3
:103E500090301B4A23F48033C2F89030184A7B69B3
:103E6000C2F890307B6903F00103002B16D0FDF7F8
:103E70006DFDF8600BE0FDF769FD0246FB68D31AA3
:103E800041F28832934202D90323FB7406E00C4BC3
:103E9000D3F8903003F00203002BECD0FB7C002B16
:103EA0000BD1074BD3F8903023F440727B681B6C26
:103EB00003491343C1F8903008E0FB7CBB7405E074
:103EC0000010024000700040FB7CBB747B7C012B27
:103ED00005D1A64B9B6DA54A23F0805393657B6863
:103EE0001B6803F00103002B0AD0A04BD3F88830E5
:103EF00023F003027B685B689C491343C1F8883058
:103F00007B681B6803F00203002B0AD0974BD3F8A1
:103F1000883023F00C027B689B6894491343C1F8F6
:103F200088307B681B6803F00403002B0AD08F4B9A
:103F3000D3F8883023F030027B68DB688B49134369
:103F4000C1F888307B681B6803F00803002B0AD097
:103F5000864BD3F8883023F0C0027B681B69834905
:103F60001343C1F888307B681B6803F02003002BE3
:103F70000AD07E4BD3F8883023F440627B685B69BB
:103F80007A491343C1F888307B681B6803F040030B
:103F9000002B0AD0754BD3F8883023F440527B684D
:103FA0009B6972491343C1F888307B681B6803F032
:103FB0008003002B0AD06D4BD3F8883023F44042A5
:103FC0007B68DB6969491343C1F888307B681B68EB
:103FD00003F48073002B0AD0644BD3F8883023F4A9
:103FE00040327B681B6A61491343C1F888307B68A3
:103FF0001B6803F40073002B0AD05C4BD3F88830A5
:1040000023F440227B685B6A58491343C1F8883027
:104010007B681B6803F48063002B15D0534BD3F8E7
:10402000883023F440127B689B6A50491343C1F8DF
:1040300088307B689B6AB3F5801F05D14B4BDB68EA
:104040004A4A43F48013D3607B681B6803F400631F
:10405000002B15D0454BD3F8883023F440027B6801
:10406000DB6A42491343C1F888307B68DB6AB3F5E9
:10407000800F05D13D4BDB683C4A43F48013D3608D
:104080007B681B6803F48053002B15D0374BD3F8A3
:10409000883023F040727B681B6B34491343C1F8AE
:1040A00088307B681B6BB3F1807F05D12F4BDB68B9
:1040B0002E4A43F48013D3607B681B6803F40053DB
:1040C000002B15D0294BD3F8883023F040627B6851
:1040D0005B6B26491343C1F888307B685B6BB3F197
:1040E000006F05D1214BDB68204A43F48013D36075
:1040F0007B681B6803F48043002B15D01B4BD3F85F
:10410000883023F040627B689B6B18491343C1F8E9
:1041100088307B689B6BB3F1006F05D1134BDB6874
:10412000124A43F48013D3607B681B6803F4004396
:10413000002B15D00D4BD3F8883023F040527B680C
:10414000DB6B0A491343C1F888307B68DB6BB3F142
:10415000805F05D1054BDB68044A43F48033D360AC
:10416000BB7C18461837BD4680BD00BF001002401A
:1041700080B483B000AF786039607B683A689A6237
:1041800000BF0C37BD465DF8047B704780B483B038
:1041900000AF786039607B683A68DA6200BF0C373C
:1041A000BD465DF8047B704780B483B000AF786093
:1041B00039607B683A681A6300BF0C37BD465DF80A
:1041C000047B704780B483B000AF78607B685B6924
:1041D00043F001027B685A6100BF0C37BD465DF8B1
:1041E000047B704780B584B000AF786039607B682D
:1041F0001B68FB607B68394A93420FD07B68B3F140
:10420000804F0BD07B68364A934207D07B68354A93
:10421000934203D07B68344A934206D1FB6823F073
:1042200070023B685B681343FB607B682B4A9342D8
:104230001BD07B68B3F1804F17D07B68284A93422C
:1042400013D07B68274A93420FD07B68264A93425B
:104250000BD07B68254A934207D07B68244A93425F
:1042600003D07B68234A934206D1FB6823F4407253
:104270003B68DB681343FB607B68FA681A603B6845
:104280009B6819467868FFF781FF3B681B881946D1
:104290007868FFF76DFF7B68104A93420FD07B6808
:1042A000114A93420BD07B68104A934207D07B6837
:1042B0000F4A934203D07B680E4A934205D13B6874
:1042C0001B6919467868FFF76FFF7868FFF77AFF78
:1042D000002318461037BD4680BD00BF002C0140AA
:1042E000000400400008004000340140004001404C
:1042F000004401400048014080B485B000AF7860C0
:104300004BF68073FB607B68B3F840309AB2FB6871
:104310009BB213439AB27B68A3F84020002318464F
:104320001437BD465DF8047B704780B485B000AF9C
:1043300078604BF68073FB607B68B3F840309AB2CC
:10434000FB689BB2DB439BB213409AB27B68A3F835
:104350004020002318461437BD465DF8047B7047A3
:1043600084B080B582B000AF786007F1140080E8B7
:104370000E007B680122A3F840207B680022A3F88E
:1043800040207B680022A3F844207B680022A3F829
:1043900050207868FFF7B0FF002318460837BD4665
:1043A000BDE8804004B0704790B484B000AF78603E
:1043B00039600023FB737A683B681B789B001344C9
:1043C0001B889BB223F4EC4323F07003BB813B6852
:1043D000DB78032B19D801A252F823F0ED43000833
:1043E0000144000811440008F7430008BB8943F466
:1043F0000073BB810DE0BB8943F4C063BB8108E05F
:10440000BB8943F48063BB8103E00123FB7300E0BD
:1044100000BF7A683B681B789B001A44BB8943F055
:104420007F4343F47F0343F4004343F080039BB294
:1044300013807A683B681B789B0013441B889BB2EF
:104440001BB223F4E04323F070031AB23B681B78DD
:104450001BB213431BB29CB27A683B681B789B006B
:104460001A448A4B23439BB213803B681B7B002B6F
:1044700040F012813B685B78002B67D07C687B68DA
:10448000B3F850309BB21C443B681B78DB002344DC
:1044900003F580631C463B68DB885B089BB25B00CE
:1044A0009BB223807A683B681B789B0013441B886F
:1044B0009CB2234603F04003002B14D07A683B687B
:1044C0001B789B0013441B889BB223F4E04323F02A
:1044D00070039CB27A683B681B789B001A446C4B53
:1044E00023439BB213803B68DB78012B18D07A689A
:1044F0003B681B789B0013441B889BB223F4E0436A
:1045000023F040039CB284F020039CB27A683B689D
:104510001B789B001A445D4B23439BB213802BE214
:104520007A683B681B789B0013441B889BB223F47A
:10453000E04323F040039CB27A683B681B789B0001
:104540001A44524B23439BB2138015E27C687B686C
:10455000B3F850309BB21C443B681B78DB0023440B
:1045600003F204431C463B68DB885B089BB25B009C
:104570009BB223807C687B68B3F850309BB21C44AC
:104580003B681B78DB00234403F206431C463B6870
:104590001B69002B0ED123889BB223F4F8439BB2F6
:1045A000238023889BB26FEA43436FEA53439BB255
:1045B00023802DE03B681B693E2B12D83B681B69AA
:1045C0005B08BB603B681B6903F00103002B02D052
:1045D000BB680133BB60BB689BB29B029BB223806C
:1045E00016E03B681B695B09BB603B681B6903F015
:1045F0001F03002B02D1BB68013BBB60BB689BB2B1
:104600009B029BB26FEA43436FEA53439BB2238002
:104610007A683B681B789B0013441B889CB2234636
:1046200003F48043002B14D07A683B681B789B000E
:1046300013441B889BB223F4E04323F070039CB225
:104640007A683B681B789B001A44124B23439BB249
:1046500013807A683B681B789B0013441B889BB2CD
:1046600023F4804323F070039CB284F480539CB203
:1046700084F400539CB27A683B681B789B001A4410
:10468000024B23439BB2138076E100BF8080FFFF83
:10469000C080FFFF80C0FFFF7A683B681B789B00EB
:1046A00013441B889BB223F4E04323F070039CB2B5
:1046B0007A683B681B789B001A44964B23439BB255
:1046C00013807C687B68B3F850309BB21C443B6815
:1046D0001B78DB00234403F580631C463B681B8981
:1046E0005B089BB25B009BB223807C687B68B3F85D
:1046F00050309BB21C443B681B78DB00234403F220
:1047000004431C463B685B895B089BB25B009BB221
:1047100023803B685B78002B40F088807A683B6898
:104720001B789B0013441B889CB2234603F48043F0
:10473000002B14D07A683B681B789B0013441B88BD
:104740009BB223F4E04323F070039CB27A683B6889
:104750001B789B001A44704B23439BB213807A68EA
:104760003B681B789B0013441B889CB2234603F0D4
:104770004003002B14D07A683B681B789B001344DD
:104780001B889BB223F4E04323F070039CB27A6849
:104790003B681B789B001A44604B23439BB21380F9
:1047A0007A683B681B789B0013441B889BB223F4F8
:1047B000E04323F070039CB27A683B681B789B004F
:1047C0001A44564B23439BB213807A683B681B788C
:1047D0009B0013441B889BB223F4804323F0700397
:1047E0009CB284F480539CB284F400539CB27A68E7
:1047F0003B681B789B001A44494B23439BB21380B0
:104800007A683B681B789B0013441B889BB223F497
:10481000E04323F040039CB27A683B681B789B001E
:104820001A443F4B23439BB21380A5E07A683B6850
:104830001B789B0013441B889CB2234603F48043DF
:10484000002B14D07A683B681B789B0013441B88AC
:104850009BB223F4E04323F070039CB27A683B6878
:104860001B789B001A442C4B23439BB213807A681D
:104870003B681B789B0013441B889CB2234603F0C3
:104880004003002B14D07A683B681B789B001344CC
:104890001B889BB223F4E04323F070039CB27A6838
:1048A0003B681B789B001A441C4B23439BB213802C
:1048B0007A683B681B789B0013441B889BB223F4E7
:1048C000E04323F070039CB27A683B681B789B003E
:1048D0001A44114B23439BB213803B68DB78012BB6
:1048E00020D07A683B681B789B0013441B889BB2DE
:1048F00023F4E04323F040039CB284F020039CB2F5
:104900007A683B681B789B001A44054B23439BB293
:1049100013801CE08081FFFF80C0FFFFC080FFFF8D
:104920008080FFFF7A683B681B789B0013441B88DC
:104930009BB223F4E04323F040039CB27A683B68C7
:104940001B789B001A440F4B23439BB213807A6859
:104950003B681B789B0013441B889BB223F4804365
:1049600023F070039CB27A683B681B789B001A4462
:10497000044B23439BB21380FB7B18461037BD4684
:1049800090BC70478080FFFF90B482B000AF786029
:1049900039603B681B7B002B71D13B685B78002B37
:1049A00036D07A683B681B789B0013441B889CB206
:1049B000234603F04003002B14D07A683B681B7831
:1049C0009B0013441B889BB223F4E04323F0700345
:1049D0009CB27A683B681B789B001A446B4B23435C
:1049E0009BB213807A683B681B789B0013441B883A
:1049F0009BB223F4E04323F040039CB27A683B6807
:104A00001B789B001A44624B23439BB2138044E102
:104A10007A683B681B789B0013441B889CB2234632
:104A200003F48043002B14D07A683B681B789B000A
:104A300013441B889BB223F4E04323F070039CB221
:104A40007A683B681B789B001A44524B23439BB205
:104A500013807A683B681B789B0013441B889BB2C9
:104A600023F4804323F070039CB27A683B681B7880
:104A70009B001A44464B23439BB213800DE13B68D5
:104A80005B78002B40F088807A683B681B789B003D
:104A900013441B889CB2234603F48043002B14D09C
:104AA0007A683B681B789B0013441B889BB223F4F5
:104AB000E04323F070039CB27A683B681B789B004C
:104AC0001A44344B23439BB213807A683B681B78AB
:104AD0009B0013441B889CB2234603F04003002B29
:104AE00014D07A683B681B789B0013441B889BB2E8
:104AF00023F4E04323F070039CB27A683B681B7890
:104B00009B001A44214B23439BB213807A683B6875
:104B10001B789B0013441B889BB223F4E04323F0D3
:104B200070039CB27A683B681B789B001A44174B51
:104B300023439BB213807A683B681B789B00134425
:104B40001B889BB223F4804323F070039CB27A68E5
:104B50003B681B789B001A440D4B23439BB2138088
:104B60007A683B681B789B0013441B889BB223F434
:104B7000E04323F040039CB27A683B681B789B00BB
:104B80001A44034B23439BB2138086E0C080FFFF8F
:104B90008080FFFF80C0FFFF7A683B681B789B0026
:104BA00013441B889CB2234603F48043002B14D08B
:104BB0007A683B681B789B0013441B889BB223F4E4
:104BC000E04323F070039CB27A683B681B789B003B
:104BD0001A44354B23439BB213807A683B681B7899
:104BE0009B0013441B889CB2234603F04003002B18
:104BF00014D07A683B681B789B0013441B889BB2D7
:104C000023F4E04323F070039CB27A683B681B787E
:104C10009B001A44254B23439BB213807A683B6860
:104C20001B789B0013441B889BB223F4E04323F0C2
:104C300070039CB27A683B681B789B001A441A4B3D
:104C400023439BB213807A683B681B789B00134414
:104C50001B889BB223F4E04323F040039CB27A68A4
:104C60003B681B789B001A44114B23439BB2138073
:104C70007A683B681B789B0013441B889BB223F423
:104C8000804323F070039CB27A683B681B789B00DA
:104C90001A44074B23439BB213800023184608375E
:104CA000BD4690BC704700BF80C0FFFFC080FFFFC3
:104CB0008080FFFF90B58DB000AF786039603B68B1
:104CC0005B78012B40F060813B689A693B681B6907
:104CD0009A4209D93B681B69BB623B689A69BB6A07
:104CE000D21A3B689A6105E03B689B69BB623B68EE
:104CF00000229A613B681B7B002B19D13B685969E4
:104D00003B68DA88BB6A9BB2786800F0A8FB7C68D5
:104D10007B68B3F850309BB21C443B681B78DB00C7
:104D2000234403F202431C46BB6A9BB223800FE17B
:104D30007A683B681B789B0013441B889BB203F086
:104D40004003002B65D07C683B685B78002B48D122
:104D50007C687B68B3F850309BB21C443B681B787E
:104D6000DB00234403F206431C46BB6A002B0ED132
:104D700023889BB223F4F8439BB2238023889BB201
:104D80006FEA43436FEA53439BB223803DE0BB6A23
:104D90003E2B10D8BB6A5B087B62BB6A03F0010341
:104DA000002B02D07B6A01337B627B6A9BB29B0241
:104DB0009BB2238029E0BB6A5B097B62BB6A03F07C
:104DC0001F03002B02D17B6A013B7B627B6A9BB293
:104DD0009B029BB26FEA43436FEA53439BB223802B
:104DE00013E03B685B78012B0FD17B68B3F8503040
:104DF0009BB21C443B681B78DB00234403F2064350
:104E0000FB60BB6A9AB2FB681A803B685B89FB85D2
:104E100063E03B685B78002B48D17C687B68B3F823
:104E200050309BB21C443B681B78DB00234403F2E8
:104E300002431C46BB6A002B0ED123889BB223F48D
:104E4000F8439BB2238023889BB26FEA43436FEA07
:104E500053439BB223803DE0BB6A3E2B10D8BB6A14
:104E60005B083B62BB6A03F00103002B02D03B6A84
:104E700001333B623B6A9BB29B029BB2238029E0D9
:104E8000BB6A5B093B62BB6A03F01F03002B02D1C4
:104E90003B6A013B3B623B6A9BB29B029BB26FEA5F
:104EA00043436FEA53439BB2238013E03B685B7834
:104EB000012B0FD17C687B68B3F850309BB21C4447
:104EC0003B681B78DB00234403F202431C46BB6AA9
:104ED0009BB223803B681B89FB853B685969BB6A91
:104EE0009BB2FA8D786800F0BAFA3B685B78002BC9
:104EF00015D17A683B681B789B0013441B889BB2D2
:104F000023F4E04323F070039CB27A683B681B787B
:104F10009B001A449A4B23439BB2138018E03B68D2
:104F20005B78012B14D17A683B681B789B00134493
:104F30001B889BB223F4E04323F070039CB27A6891
:104F40003B681B789B001A448E4B23439BB2138013
:104F50007A683B681B789B0013441B889BB223F440
:104F6000E04323F040039CB284F010039CB284F031
:104F700020039CB27A683B681B789B001A44824BE2
:104F800023439BB2138046E13B689A693B681B69E7
:104F90009A4209D93B681B69BB623B689A69BB6A44
:104FA000D21A3B689A6105E03B689B69BB623B682B
:104FB00000229A613B681B7B002B48D17C687B6890
:104FC000B3F850309BB21C443B681B78DB00234491
:104FD00003F206431C46BB6A002B0ED123889BB20A
:104FE00023F4F8439BB2238023889BB26FEA4343A8
:104FF0006FEA53439BB22380F2E0BB6A3E2B10D88A
:10500000BB6A5B08FB61BB6A03F00103002B02D0A3
:10501000FB690133FB61FB699BB29B029BB223805E
:10502000DEE0BB6A5B09FB61BB6A03F01F03002B78
:1050300002D1FB69013BFB61FB699BB29B029BB206
:105040006FEA43436FEA53439BB22380C8E03B6857
:105050005B78002B48D17C687B68B3F850309BB2FA
:105060001C443B681B78DB00234403F202431C46CC
:10507000BB6A002B0ED123889BB223F4F8439BB26A
:10508000238023889BB26FEA43436FEA53439BB26A
:1050900023803DE0BB6A3E2B10D8BB6A5B08BB6136
:1050A000BB6A03F00103002B02D0BB690133BB6173
:1050B000BB699BB29B029BB2238029E0BB6A5B0960
:1050C000BB61BB6A03F01F03002B02D1BB69013B2C
:1050D000BB61BB699BB29B029BB26FEA43436FEA21
:1050E00053439BB2238013E03B685B78012B0FD1C5
:1050F0007C687B68B3F850309BB21C443B681B78DB
:10510000DB00234403F202431C46BB6A9BB22380AC
:105110007C683B685B78002B4ED17C687B68B3F879
:1051200050309BB21C443B681B78DB00234403F2E5
:1051300006431C46BB6A002B0ED123889BB223F486
:10514000F8439BB2238023889BB26FEA43436FEA04
:1051500053439BB2238043E0BB6A3E2B16D8BB6A05
:105160005B087B61BB6A03F00103002B02D07B6903
:1051700001337B617B699BB29B029BB223802FE052
:10518000C080FFFF80C0FFFF8080FFFFBB6A5B091C
:105190007B61BB6A03F01F03002B02D17B69013BDB
:1051A0007B617B699BB29B029BB26FEA43436FEAD0
:1051B00053439BB2238013E03B685B78012B0FD1F4
:1051C0007B68B3F850309BB21C443B681B78DB0013
:1051D000234403F206433B61BB6A9AB23B691A80DF
:1051E0007A683B681B789B0013441B889BB223F4AE
:1051F000804323F070039CB284F480539CB284F407
:1052000000539CB27A683B681B789B001A44044B9D
:1052100023439BB21380002318463437BD4690BD0C
:105220008080FFFF90B482B000AF786039603B6847
:105230005B78002B18D07A683B681B789B0013447E
:105240001B889BB223F4E04323F040039CB284F01C
:1052500010039CB27A683B681B789B001A44114B80
:1052600023439BB2138017E07A683B681B789B004E
:1052700013441B889BB223F4804323F070039CB239
:1052800084F480539CB27A683B681B789B001A4474
:10529000044B23439BB21380002318460837BD46B6
:1052A00090BC70478080FFFF90B482B000AF786000
:1052B00039603B681B7B002B7DD13B685B78002B02
:1052C0003DD07A683B681B789B0013441B889CB2D6
:1052D000234603F04003002B14D07A683B681B7808
:1052E0009B0013441B889BB223F4E04323F070031C
:1052F0009CB27A683B681B789B001A44314B23436D
:105300009BB213803B68DB78012B54D07A683B68F2
:105310001B789B0013441B889BB223F4E04323F0CB
:1053200040039CB284F020039CB27A683B681B78EF
:105330009B001A44244B23439BB213803BE07A68C2
:105340003B681B789B0013441B889CB2234603F4E4
:105350008043002B14D07A683B681B789B00134471
:105360001B889BB223F4E04323F070039CB27A685D
:105370003B681B789B001A44144B23439BB2138059
:105380007A683B681B789B0013441B889BB223F40C
:10539000804323F070039CB284F480539CB284F465
:1053A00000539CB27A683B681B789B001A44064BFA
:1053B00023439BB21380002318460837BD4690BC98
:1053C000704700BFC080FFFF8080FFFF80C0FFFFED
:1053D00080B483B000AF78600B46FB70FB78002B85
:1053E00003D17B688022A3F84C20002318460C3799
:1053F000BD465DF8047B704780B483B000AF786031
:105400007B68B3F858309BB26FEA43436FEA53436B
:105410009AB27B68A3F85820002318460C37BD4683
:105420005DF8047B704780B485B000AF78607B681E
:10543000B3F844309BB2FB60FB6818461437BD4696
:105440005DF8047B704780B483B000AF786039604A
:10545000002318460C37BD465DF8047B704780B4C6
:105460008DB000AFF860B96011461A460B46FB805C
:105470001346BB80BB8801335B083B62FB68FB6162
:10548000BB687B62FA88FB69134403F58063BB62E7
:105490003B6AFB621BE07B6A1B78BB617B6A013362
:1054A0007B627B6A1B789BB21B029BB21A46BB696C
:1054B00013437B617B699AB2BB6A1A80BB6A023371
:1054C000BB627B6A01337B62FB6A013BFB62FB6A66
:1054D000002BE0D100BF3437BD465DF8047B704738
:1054E00080B48BB000AFF860B96011461A460B4625
:1054F000FB801346BB80BB885B089BB2BB61FB682B
:105500007B61BB68FB61FA887B69134403F58063A8
:105510003B62BB697B6218E03B6A1B889BB23B61C4
:105520003B6A02333B623B69DAB2FB691A70FB6982
:105530000133FB613B691B0ADAB2FB691A70FB6934
:105540000133FB617B6A013B7B627B6A002BE3D109
:10555000BB8803F001039BB2002B07D03B6A1B887A
:105560009BB23B613B69DAB2FB691A7000BF2C3712
:10557000BD465DF8047B704780B584B000AF7860AD
:105580000B46FB700023FB737B681B7C002B15D143
:105590004FF4007302228121786802F01AF87B68C8
:1055A0000122DA624FF4007302220121786802F0CE
:1055B00010F87B680122C3F86C2112E0402302221C
:1055C0008121786802F005F87B680122DA624023C5
:1055D00002220121786801F0FCFF7B680122C3F8F8
:1055E0006C21082303228221786801F0F2FF7B6896
:1055F00001221A644FF4077002F042F902467B68F8
:10560000C3F8B8227B68D3F8B8324FF40772002190
:10561000184602F0B1F97B68D3F8B832002B02D1FA
:105620000123FB7326E07B68D3F8B832BB607B684C
:10563000D3F8BC321B689847BB680022C3F8142219
:10564000BB680022C3F818227B681B7C002B09D1A1
:10565000BB68D3F804224FF400730121786802F08C
:10566000A3F807E0BB68D3F804224023012178683F
:1056700002F09AF8FB7B18461037BD4680BD80B516
:1056800084B000AF78600B46FB700023FB73812170
:10569000786801F0C4FF7B680022DA620121786833
:1056A00001F0BDFF7B680022C3F86C21822178687D
:1056B00001F0B5FF7B6800221A647B68D3F8B8322A
:1056C000002B0ED07B68D3F8BC325B6898477B68B0
:1056D000D3F8B832184602F0E1F87B680022C3F82C
:1056E000B822FB7B18461037BD4680BD80B586B01A
:1056F00000AF786039607B68D3F8B8323B61002333
:10570000FB730023BB810023FB753B681B7803F010
:105710006003002B39D0202B7CD13B68DB88002B29
:1057200029D03B681B785BB2002B11DA7B68D3F879
:10573000BC329B683A68507839693A68D288984791
:1057400039693B68DB881A46786801F02BFA68E013
:105750003B685A783B6983F800223B68DB88DAB201
:105760003B6983F8012239693B68DB881A4678680F
:1057700001F046FA55E07B68D3F8BC329B683A6882
:1057800050780022396898474BE03B685B780A2BD9
:1057900017D00B2B29D0002B33D17B6893F89C3288
:1057A000032B07D107F10C0302221946786801F098
:1057B000F9F92EE03968786801F089F90223FB7560
:1057C00027E07B6893F89C32032B07D107F10F0386
:1057D00001221946786801F0E5F91AE0396878681D
:1057E00001F075F90223FB7513E07B6893F89C3296
:1057F000032B0DD03968786801F069F90223FB7535
:1058000006E03968786801F062F90223FB7500E070
:1058100000BF06E03968786801F059F90223FB758A
:1058200000BFFB7D18461837BD4680BD80B584B0EB
:1058300000AF78600B46FB707B68D3F8B832FB6032
:105840007B68D3F8C032BB607B68D3F8B832002BDA
:1058500037D0FA78796813469B0013449B000B44B9
:105860001C331B68002B26D0FA78796813469B00FE
:1058700013449B000B441C331B68FA78B96852012F
:105880000A4438321268B3FBF2F102FB01F29B1AB0
:10589000002B10D1FA78796813469B0013449B00C3
:1058A0000B441C3300221A60F97800230022786828
:1058B00001F057FF03E0FB680022C3F81422002325
:1058C00000E0022318461037BD4680BD80B584B085
:1058D00000AF78600B46FB707B68D3F8B832FB6092
:1058E000FB781946786801F082FF0246FB68C3F82E
:1058F0000C227B68D3F8B832002B0DD07B68D3F82C
:10590000BC32DB68FA68D2F80402FA6802F5037266
:1059100011469847002300E0022318461037BD4681
:1059200080BD80B584B000AF78607B68D3F8B832B2
:10593000FB607B68D3F8BC32002B15D0FB6893F872
:105940000032FF2B10D07B68D3F8BC329B68FA681A
:1059500092F80002F968FA6892F8012292B2984728
:10596000FB68FF2283F80022002318461037BD464B
:1059700080BD000080B483B000AF78607B684322B4
:105980001A80034B18460C37BD465DF8047B704700
:10599000B400002080B483B000AF78607B684322FD
:1059A0001A80034B18460C37BD465DF8047B7047E0
:1059B0007000002080B483B000AF78607B68432221
:1059C0001A80034B18460C37BD465DF8047B7047C0
:1059D000F800002080B483B000AF78607B680A22B2
:1059E0001A80034B18460C37BD465DF8047B7047A0
:1059F0002C00002080B485B000AF786039600223AD
:105A0000FB733B68002B05D07B683A68C3F8BC2267
:105A10000023FB73FB7B18461437BD465DF8047BFF
:105A2000704780B487B000AFF860B9601346FB8060
:105A3000FB68D3F8B8327B617B69BA68C3F8082287
:105A4000FA887B69C3F81022002318461C37BD462C
:105A50005DF8047B704780B485B000AF7860396032
:105A60007B68D3F8B832FB60FB683A68C3F804225D
:105A7000002318461437BD465DF8047B704780B597
:105A800084B000AF78607B68D3F8B832FB607B6885
:105A9000D3F8B832002B1CD0FB68D3F81432002B9B
:105AA00015D1FB680122C3F81422FB68D3F8102239
:105AB0007B681A63FB68D3F80822FB68D3F81032BE
:105AC0009BB28121786801F04CFE002302E00123A3
:105AD00000E0022318461037BD4680BD80B584B073
