:020000040800F2
:1000000000800020AD1600081D1300082B13000807
:1000100031130008371300083D13000800000000EA
:100020000000000000000000000000004313000872
:1000300051130008000000005F1300086D13000852
:10004000FD160008FD160008FD160008FD16000844
:10005000FD160008FD160008FD160008FD16000834
:10006000FD160008FD160008FD160008FD16000824
:10007000FD160008FD160008FD160008FD16000814
:10008000FD16000800000000FD160008FD1600081F
:10009000FD160008FD160008FD160008791300087B
:1000A000FD160008FD160008FD160008FD160008E4
:1000B000FD16000895130008FD160008FD1600083F
:1000C000FD160008FD160008FD160008BD13000807
:1000D000FD160008FD160008FD160008FD160008B4
:1000E000FD160008FD160008FD160008FD160008A4
:1000F000FD160008FD160008FD16000800000000AF
:1001000000000000FD16000800000000FD160008B9
:10011000FD16000800000000FD160008FD1600088E
:10012000FD160008FD160008FD160008FD16000863
:10013000FD1600080000000000000000FD16000889
:10014000FD160008FD160008000000000000000079
:10015000000000000000000000000000000000009F
:10016000000000000000000000000000FD16000874
:10017000FD16000800000000000000000000000064
:1001800000000000FD160008000000000000000054
:10019000000000000000000000000000000000005F
:1001A0000000000000000000FD160008FD16000819
:1001B000FD160008FD160008FD16000800000000EE
:1001C00000000000FD160008000000000000000014
:0801D000FD160008FD160008F1
:1001D80010B5054C237833B9044B13B10448AFF379
:1001E80000800123237010BD0002002000000000E1
:1001F800045E000808B5034B1BB103490348AFF37D
:10020800008008BD0000000004020020045E000811
:10021800034613F8012B002AFBD1181A013870473E
:1002280081F0004102E000BF83F0004330B54FEA9F
:1002380041044FEA430594EA050F08BF90EA020F0C
:100248001FBF54EA000C55EA020C7FEA645C7FEA9F
:10025800655C00F0E2804FEA5454D4EB5555B8BFC2
:100268006D420CDD2C4480EA020281EA030382EA33
:10027800000083EA010180EA020281EA0303362DC5
:1002880088BF30BD11F0004F4FEA01314FF4801C98
:100298004CEA113102D0404261EB410113F0004FAA
:1002A8004FEA03334CEA133302D0524263EB430361
:1002B80094EA050F00F0A780A4F10104D5F1200EFF
:1002C8000DDB02FA0EFC22FA05F2801841F100015A
:1002D80003FA0EF2801843FA05F359410EE0A5F12E
:1002E80020050EF1200E012A03FA0EFC28BF4CF05F
:1002F800020C43FA05F3C01851EBE37101F0004515
:1003080007D54FF0000EDCF1000C7EEB00006EEB21
:100318000101B1F5801F1BD3B1F5001F0CD34908AB
:100328005FEA30004FEA3C0C04F101044FEA445202
:1003380012F5800F80F09A80BCF1004F08BF5FEA89
:10034800500C50F1000041EB045141EA050130BD69
:100358005FEA4C0C404141EB010111F4801FA4F10C
:100368000104E9D191F0000F04BF01460020B1FA61
:1003780081F308BF2033A3F10B03B3F120020CDA99
:100388000C3208DD02F1140CC2F10C0201FA0CF077
:1003980021FA02F10CE002F11402D8BFC2F1200CDC
:1003A80001FA02F120FA0CFCDCBF41EA0C01904092
:1003B800E41AA2BF01EB0451294330BD6FEA0404DB
:1003C8001F3C1CDA0C340EDC04F11404C4F12002C6
:1003D80020FA04F001FA02F340EA030021FA04F3D8
:1003E80045EA030130BDC4F10C04C4F1200220FA2F
:1003F80002F001FA04F340EA0300294630BD21FA6D
:1004080004F0294630BD94F0000F83F4801306BF32
:1004180081F480110134013D4EE77FEA645C18BF26
:100428007FEA655C29D094EA050F08BF90EA020FBD
:1004380005D054EA000C04BF1946104630BD91EAB5
:10044800030F1EBF0021002030BD5FEA545C05D1B8
:100458004000494128BF41F0004130BD14F58004F7
:100468003CBF01F5801130BD01F0004545F0FE416B
:1004780041F470014FF0000030BD7FEA645C1ABFA0
:10048800194610467FEA655C1CBF0B46024650EAD7
:10049800013406BF52EA033591EA030F41F4002103
:1004A80030BD00BF90F0000F04BF0021704730B589
:1004B8004FF4806404F132044FF000054FF000015E
:1004C80050E700BF90F0000F04BF0021704730B51F
:1004D8004FF4806404F1320410F0004548BF4042F4
:1004E8004FF000013EE700BF42004FEAE2014FEA49
:1004F80031014FEA02701FBF12F07F4393F07F4F24
:1005080081F06051704732F07F4208BF704793F026
:100518007F4F04BF41F40021704730B54FF4607439
:1005280001F0004521F000411CE700BF50EA01023C
:1005380008BF704730B54FF000050AE050EA0102E5
:1005480008BF704730B511F0004502D5404261EB55
:1005580041014FF4806404F132045FEA915C3FF496
:10056800D8AE4FF003025FEADC0C18BF03325FEA33
:10057800DC0C18BF033202EBDC02C2F1200300FAE4
:1005880003FC20FA02F001FA03FE40EA0E0021FA09
:1005980002F11444BDE600BF70B54FF0FF0C4CF4F7
:1005A800E06C1CEA11541DBF1CEA135594EA0C0FA9
:1005B80095EA0C0F00F0DEF82C4481EA030621EAE4
:1005C8004C5123EA4C5350EA013518BF52EA03351F
:1005D80041F4801143F4801338D0A0FB02CE4FF0D1
:1005E8000005E1FB02E506F00042E0FB03E54FF001
:1005F8000006E1FB03569CF0000F18BF4EF0010EF9
:10060800A4F1FF04B6F5007F64F5407404D25FEAF4
:100618004E0E6D4146EB060642EAC62141EA5551A7
:100628004FEAC52040EA5E504FEACE2EB4F1FD0CE9
:1006380088BFBCF5E06F1ED8BEF1004F08BF5FEA67
:10064800500E50F1000041EB045170BD06F0004619
:1006580046EA010140EA020081EA0301B4EB5C04C6
:10066800C2BFD4EB0C0541EA045170BD41F48011BE
:100678004FF0000E013C00F3AB8014F1360FDEBFE3
:10068800002001F0004170BDC4F10004203C35DABF
:100698000C341BDC04F11404C4F1200500FA05F342
:1006A80020FA04F001FA05F240EA020001F00042E3
:1006B80021F0004110EBD37021FA04F642EB060159
:1006C8005EEA430E08BF20EAD37070BDC4F10C0483
:1006D800C4F1200500FA04F320FA05F001FA04F247
:1006E80040EA020001F0004110EBD37041F1000133
:1006F8005EEA430E08BF20EAD37070BDC4F120053E
:1007080000FA05F24EEA020E20FA04F301FA05F2A5
:1007180043EA020321FA04F001F0004121FA04F24D
:1007280020EA020000EBD3705EEA430E08BF20EA1D
:10073800D37070BD94F0000F0FD101F00046400057
:1007480041EB010111F4801F08BF013CF7D041EAD9
:10075800060195F0000F18BF704703F000465200DD
:1007680043EB030313F4801F08BF013DF7D043EAAE
:100778000603704794EA0C0F0CEA135518BF95EA64
:100788000C0F0CD050EA410618BF52EA4306D1D1EB
:1007980081EA030101F000414FF0000070BD50EA0A
:1007A800410606BF1046194652EA430619D094EA94
:1007B8000C0F02D150EA013613D195EA0C0F05D17E
:1007C80052EA03361CBF104619460AD181EA0301D2
:1007D80001F0004141F0FE4141F470014FF000008A
:1007E80070BD41F0FE4141F4780170BD70B54FF025
:1007F800FF0C4CF4E06C1CEA11541DBF1CEA1355A5
:1008080094EA0C0F95EA0C0F00F0A7F8A4EB050486
:1008180081EA030E52EA03354FEA013100F088807D
:100828004FEA03334FF0805545EA131343EA126346
:100838004FEA022245EA111545EA10654FEA0026FB
:100848000EF000419D4208BF964244F1FD0404F5B4
:10085800407402D25B084FEA3202B61A65EB030510
:100868005B084FEA32024FF480104FF4002CB6EBCD
:10087800020E75EB030E22BFB61A754640EA0C004D
:100888005B084FEA3202B6EB020E75EB030E22BF8D
:10089800B61A754640EA5C005B084FEA3202B6EBCE
:1008A800020E75EB030E22BFB61A754640EA9C008D
:1008B8005B084FEA3202B6EB020E75EB030E22BF5D
:1008C800B61A754640EADC0055EA060E18D04FEA1B
:1008D800051545EA16754FEA06164FEAC30343EABB
:1008E80052734FEAC2025FEA1C1CC0D111F4801F88
:1008F8000BD141EA00014FF000004FF0004CB6E781
:1009080011F4801F04BF01430020B4F1FD0C88BF1F
:10091800BCF5E06F3FF6AFAEB5EB030C04BFB6EB2A
:10092800020C5FEA500C50F1000041EB045170BD1D
:100938000EF0004E4EEA113114EB5C04C2BFD4EB4A
:100948000C0541EA045170BD41F480114FF0000ECE
:10095800013C90E645EA060E8DE60CEA135594EA4A
:100968000C0F08BF95EA0C0F3FF43BAF94EA0C0F4D
:100978000AD150EA01347FF434AF95EA0C0F7FF4C2
:1009880025AF104619462CE795EA0C0F06D152EA16
:1009980003353FF4FDAE1046194622E750EA4106FA
:1009A80018BF52EA43067FF4C5AE50EA41047FF40B
:1009B8000DAF52EA43057FF4EBAE12E74FF0FF3C70
:1009C80006E000BF4FF0010C02E000BF4FF0010C41
:1009D8004DF804CD4FEA410C7FEA6C5C4FEA430CBA
:1009E80018BF7FEA6C5C1BD001B050EA410C0CBF09
:1009F80052EA430C91EA030F02BF90EA020F00206B
:100A0800704710F1000F91EA030F58BF994208BFD1
:100A180090422CBFD8176FEAE37040F0010070478E
:100A28004FEA410C7FEA6C5C02D150EA013C07D1E5
:100A38004FEA430C7FEA6C5CD6D152EA033CD3D030
:100A48005DF8040B704700BF8446104662468C462A
:100A58001946634600E000BF01B5FFF7B7FF00285D
:100A680048BF10F1000F01BD4DF808EDFFF7F4FF86
:100A78000CBF012000205DF808FB00BF4DF808ED11
:100A8800FFF7EAFF34BF012000205DF808FB00BF34
:100A98004DF808EDFFF7E0FF94BF012000205DF856
:100AA80008FB00BF4DF808EDFFF7CEFF94BF01200B
:100AB80000205DF808FB00BF4DF808EDFFF7C4FF04
:100AC80034BF012000205DF808FB00BF4FEA410C4D
:100AD8007FEA6C5C02D150EA013C0AD14FEA430C30
:100AE8007FEA6C5C02D152EA033C02D14FF000006D
:100AF80070474FF0010070474FEA410212F50012AB
:100B080015D211D56FF47873B3EB625212D94FEA4C
:100B1800C12343F0004343EA505311F0004F23FA36
:100B280002F018BF404270474FF00000704750EA8B
:100B3800013005D111F0004008BF6FF00040704748
:100B48004FF00000704700BF4FEA4102B2F1E043A6
:100B580024BFB3F5001CDCF1FE5C0DD901F0004C9C
:100B68004FEAC0024CEA5070B2F1004F40EB8300EC
:100B780008BF20F00100704711F0804F21D113F118
:100B88003872BCBF01F00040704741F480114FEA51
:100B98005252C2F11802C2F1200C10FA0CF320FADA
:100BA80002F018BF40F001004FEAC1234FEAD323F7
:100BB80003FA0CFC40EA0C0023FA02F34FEA430361
:100BC800CCE77FEA625307D150EA01331EBF4FF0EA
:100BD800FE4040F44000704701F0004040F0FE4005
:100BE80040F40000704700BF80B58AB000AF07F13D
:100BF800140300221A605A609A60DA601A61514B35
:100C0800DB6C504A43F02003D3644E4BDB6C03F09B
:100C180020033B613B694B4BDB6C4A4A43F0400382
:100C2800D364484BDB6C03F04003FB60FB68454B27
:100C3800DB6C444A43F00103D364424BDB6C03F0A2
:100C48000103BB60BB683F4BDB6C3E4A43F00203C9
:100C5800D3643C4BDB6C03F002037B607B680022AF
:100C68000321394801F034FB002240F201113748D2
:100C780001F02EFB03237B610123BB610023FB6191
:100C880000233B6207F1140319462F4801F09EF92F
:100C98004FF480637B610323BB610023FB6107F191
:100CA800140319462A4801F091F949F60F737B613C
:100CB8000323BB610023FB6107F1140319464FF0BE
:100CC800904001F083F940F201137B610123BB617D
:100CD8000023FB6100233B6207F1140319461B48FC
:100CE80001F074F910237B610323BB610023FB61CE
:100CF80007F114031946154801F068F960237B6170
:100D0800144BBB610023FB6107F1140319460F481C
:100D180001F05CF980237B610E4BBB610123FB6111
:100D280007F114031946094801F050F9002200217F
:100D3800172000F04EFE172000F065FE00BF283790
:100D4800BD4680BD00100240001400480004004861
:100D5800001800480000111080B483B000AF78601C
:100D68007B681B6843F001027B681A6000BF0C3780
:100D7800BD465DF8047B704780B483B000AF7860EF
:100D88007B686FF001021A6100BF0C37BD465DF841
:100D9800047B704780B483B000AF78607B68DB6801
:100DA80043F001027B68DA6000BF0C37BD465DF88E
:100DB800047B704780B582B000AF78607B681A68A2
:100DC800074B1B689A4207D10C220649044802F0D7
:100DD80037FC054B01221A6000BF0837BD4680BDAD
:100DE80040020020340200202402002080B582B096
:100DF80000AF0346FB80FB88402B0ED0802B16D01B
:100E0800202B00D019E001210E4801F079FA0E4B91
:100E18001B6801330C4A13600FE00221094801F0F6
:100E28006FFA0A4B1B680133084A136005E04FF458
:100E38008071074801F064FA00BF00BF0837BD465B
:100E480080BD00BF001400481C02002020020020C2
:100E5800000400480000000090B583B000AF87EDA3
:100E6800010A7868FFF740FB09A3D3E90023FFF7DD
:100E780093FB03460C4618462146FFF765FE0346DA
:100E880007EE903AB0EE670A0C37BD4690BD00BF3A
:100E98006F1283C0CA21194080B483B000AF87EDB8
:100EA800010AC7ED000A97ED017AD7ED007AC7EE7F
:100EB800276AF0EE667AB0EE670A0C37BD465DF831
:100EC800047B704780B483B000AF87ED010A3860B7
:100ED8003B6807EE903AB8EEE77AD7ED017A67EE0D
:100EE800277AFDEEE77A17EE903A18460C37BD469A
:100EF8005DF8047B7047B0B588B000AF786000F04B
:100F080059FE0023FB6001233B613F237B610123E2
:100F1800BB6107F1080207F10C031146184600F0FF
:100F280031FF7D680023FB7714E0FB7F03F100634A
:100F380003F5FC331946FB7FDB08DBB2DB002B44EF
:100F4800D3E900341A462346002000F0DDFDFB7F7C
:100F58000833FB77FB7F182BE7D900F04DFE00BF65
:100F68002037BD46B0BD000090B583B000AF4B4AF6
:100F78004B4B144607CB20606160A26000F0BBFBBE
:100F880000F0A2F8FFF730FE00F04CFB00F0EEF89E
:100F98004448FFF7FFFE0C224049434802F050FB4B
:100FA800642000F019FC3D4B9C6823461C463B4BD3
:100FB8001B6800EE103AFFF74FFFF0EE407AF0EEB4
:100FC800670A00EE104AFFF767FFF0EE407A334BEE
:100FD8005B681846B0EE670AFFF774FF0246334BAA
:100FE8001A600C222D49304802F02AFB304B1B684E
:100FF800012B38D14FF47A73042228492A4801F08A
:10100800E3FF4FF47A7304222A49274801F0DCFFF2
:101018004FF47A7304222849234801F0D5FF1F4B67
:101028009C6823461C461D4B1B6800EE103AFFF7D0
:1010380013FFF0EE407AF0EE670A00EE104AFFF771
:101048002BFFF0EE407A154B5B681846B0EE670A46
:10105800FFF738FF0246154B1A60154B00221A603D
:101068000E48FFF748FF154B1A68104B1B689A4249
:10107800B7DB124B00221A60114B00221A600122C2
:101088000121104801F024F90648FFF775FE0548CC
:10109800FFF762FEEE23FB71A3E700BF34020020D6
:1010A80000F8010800040040400200200000002071
:1010B80024020020380200203C0200201C020020EC
:1010C800200200200004004880B594B000AF07F16A
:1010D800180338220021184603F062F93B1D00224C
:1010E8001A605A609A60DA601A61002001F03AF9D1
:1010F8000223BB614FF480737B624023BB620223EF
:101108007B630223BB630223FB632A233B64022322
:101118007B640223BB640223FB6407F118031846AF
:1011280001F0C4F90346002B01D000F018F80F2392
:101138007B600323BB600023FB6000233B6100232B
:101148007B613B1D0821184601F0C8FC0346002BB3
:1011580001D000F004F800BF5037BD4680BD80B410
:1011680000AF00BFBD465DF8047B704780B500AF97
:10117800184B194A1A60174B00225A60154B002267
:101188009A60144B4FF4E062DA60124B00221A6145
:10119800104B00225A610F4B00229A610D4B00221E
:1011A8001A620C4B00225A620A4B00229A62094BBF
:1011B8000722DA62074B00221A63064B00225A63A1
:1011C800044801F06FFE0346002B01D0FFF7C7FF6C
:1011D80000BF80BD400200200030014080B58AB0C9
:1011E80000AF786007F1140300221A605A609A6011
:1011F800DA601A617B681B681B4A934230D11B4B2B
:101208001B6E1A4A43F480531366184B1B6E03F483
:1012180080533B613B69154BDB6C144A43F0010377
:10122800D364124BDB6C03F00103FB60FB68F02313
:101238007B610223BB610023FB6100233B62052322
:101248007B6207F1140319464FF0904000F0BEFE90
:1012580000220021232000F0BCFB232000F0D3FB58
:1012680000BF2837BD4680BD003001400010024055
:1012780080B400AF054B9B68044A43F480439360F5
:1012880000BFBD465DF8047B704700BF007000409A
:1012980080B582B000AF0F4B1B6E0E4A43F00103BE
:1012A80013660C4B1B6E03F001037B607B68094BD4
:1012B8009B6D084A43F080539365064B9B6D03F082
:1012C80080533B603B68FFF7D3FF00BF0837BD463C
:1012D80080BD00BF0010024080B483B000AF7860CA
:1012E8007B681B6823F001027B681A6000BF0C371B
:1012F800BD465DF8047B704780B483B000AF78606A
:101308007B686FF001021A6100BF0C37BD465DF8BB
:10131800047B704780B400AF00BFBD465DF8047B16
:10132800704780B400AFFEE780B400AFFEE780B43A
:1013380000AFFEE780B400AFFEE780B400AF00BFA7
:10134800BD465DF8047B704780B400AF00BFBD4662
:101358005DF8047B704780B400AF00BFBD465DF800
:10136800047B704780B500AF00F018FA00BF80BD5D
:1013780080B500AF202000F0DDFF402000F0DAFF4C
:10138800802000F0D7FF00BF80BD000080B500AF0F
:101398000648FFF7A1FF00220121054800F098FF49
:1013A8000248FFF7A9FF00BF80BD00BF000400404E
:1013B8000004004880B500AF024802F099FA00BF67
:1013C80080BD00BF4002002080B584B000AF7860C7
:1013D800114B1B68002B02D10F4B104A1A600E4BA1
:1013E8001B68FB600C4B1A687B6813446A4693427F
:1013F80007D902F0ABFF02460C2313604FF0FF330E
:1014080006E0054B1A687B681344034A1360FB68BF
:1014180018461037BD4680BD28020020B0020020C3
:1014280080B400AF084BD3F88830074A43F4700300
:10143800C2F88830044B4FF000629A6000BFBD4686
:101448005DF8047B704700BF00ED00E080B400AF9A
:10145800044BDB681B0A03F007031846BD465DF81A
:10146800047B704700ED00E080B483B000AF034612
:10147800FB7197F90730002B0BDBFB7903F01F0298
:10148800074997F907305B09012000FA02F241F891
:10149800232000BF0C37BD465DF8047B704700BFB2
:1014A80000E100E080B483B000AF03463960FB710F
:1014B80097F90730002B0ADB3B68DAB20C4997F939
:1014C80007301201D2B20B4483F800230AE03B68CC
:1014D800DAB20849FB7903F00F03043B1201D2B2D8
:1014E8000B441A7600BF0C37BD465DF8047B704785
:1014F80000E100E000ED00E080B489B000AFF860E2
:10150800B9607A60FB6803F00703FB61FB69C3F10C
:101518000703042B28BF0423BB61FB690433062B94
:1015280002D9FB69033B00E000237B614FF0FF32E7
:10153800BB6902FA03F3DA43BB681A407B699A4035
:101548004FF0FF317B6901FA03F3D9437B680B4005
:10155800134318462437BD465DF8047B704780B4B2
:1015680083B000AF78607B681B6823F080027B68DB
:101578001A6000BF0C37BD465DF8047B704780B425
:1015880083B000AF786039607B689B6823F4A03330
:1015980023F007033A681A437B689A6000BF0C3748
:1015A800BD465DF8047B704780B483B000AF7860B7
:1015B80039607B685B6823F0007323F070033A6836
:1015C8001A437B685A6000BF0C37BD465DF8047B40
:1015D800704780B483B000AF78607B689B6823F065
:1015E80080027B689A6000BF0C37BD465DF8047BBB
:1015F8007047000080B485B000AF7860084B9A6DE2
:1016080007497B6813438B65054B9A6D7B681340CC
:10161800FB60FB6800BF1437BD465DF8047B70476C
:101628000010024080B586B000AF3B1D00221A6052
:101638005A609A60DA601A610220FFF7DBFFFFF751
:1016480005FF0346002200211846FFF755FF034611
:1016580019461D20FFF726FF1D20FFF705FF44F25E
:101668009F13BB800023BB602C23FB6000233B61DE
:101678003B1D19460A4802F0DFFD0948FFF76FFFD6
:1016880000210748FFF77BFF20210548FFF78CFF63
:101698000348FFF79EFF00BF1837BD4680BD00BF57
:1016A800000400400D4885460D480E490E4A0023A7
:1016B80002E0D458C4500433C4188C42F9D30B4AFE
:1016C8000B4C002301E013600432A242FBD3FFF766
:1016D800A7FE02F041FEFFF747FCFEE7008000206E
:1016E80000000020000200206060000800020020C6
:1016F800AC020020FEE780B582B000AF0023FB718A
:10170800032000F05BF9002000F00EF80346002BE0
:1017180002D00123FB7101E0FFF7BAFDFB791846FF
:101728000837BD4680BD000080B584B000AF786042
:101738000023FB73164B1B68002B22D0154B1A682D
:10174800134B1B684FF47A71B1FBF3F3B2FBF3F35D
:10175800184600F066F90346002B0FD17B680F2B63
:1017680009D8002279684FF0FF3000F032F90A4AB0
:101778007B68136007E00123FB7304E00123FB731C
:1017880001E00123FB73FB7B18461037BD4680BD83
:101798000C000020040000200800002080B400AFE6
:1017A800054B1A68054B1B681344034A136000BFB6
:1017B800BD465DF8047B7047A40200200C000020A1
:1017C80080B400AF034B1B681846BD465DF8047B28
:1017D800704700BFA402002080B584B000AF7860D5
:1017E800FFF7EEFFB8607B68FB60FB68B3F1FF3F73
:1017F80004D0094B1B68FA681344FB6000BFFFF76D
:10180800DFFF0246BB68D31AFA689A42F7D800BFCE
:101818001037BD4680BD00BF0C00002080B485B0E5
:1018280000AF78607B6803F00703FB600C4BDB6854
:10183800BB60BA684FF6FF031340BB60FB681A022F
:10184800BB68134343F0BF6343F40033BB60044AEF
:10185800BB68D36000BF1437BD465DF8047B704792
:1018680000ED00E080B400AF044BDB681B0A03F016
:1018780007031846BD465DF8047B704700ED00E09D
:1018880080B483B000AF0346FB7197F90730002B93
:101898000BDBFB7903F01F02074997F907305B0957
:1018A800012000FA02F241F8232000BF0C37BD46A0
:1018B8005DF8047B704700BF00E100E080B483B0AE
:1018C80000AF03463960FB7197F90730002B0ADB3C
:1018D8003B68DAB20C4997F907301201D2B20B44CF
:1018E80083F800230AE03B68DAB20849FB7903F081
:1018F8000F03043B1201D2B20B441A7600BF0C3717
:10190800BD465DF8047B704700E100E000ED00E0B3
:1019180080B489B000AFF860B9607A60FB6803F002
:101928000703FB61FB69C3F10703042B28BF0423EA
:10193800BB61FB690433062B02D9FB69033B00E05A
:1019480000237B614FF0FF32BB6902FA03F3DA43ED
:10195800BB681A407B699A404FF0FF317B6901FAF6
:1019680003F3D9437B680B40134318462437BD461D
:101978005DF8047B7047000080B582B000AF7860E6
:101988007B68013BB3F1807F01D301230FE00A4A52
:101998007B68013B53600F214FF0FF30FFF78EFF4C
:1019A800054B00229A60044B07221A600023184650
:1019B8000837BD4680BD00BF10E000E080B582B0AA
:1019C80000AF78607868FFF729FF00BF0837BD4689
:1019D80080BD80B586B000AF0346B9607A60FB73FE
:1019E800FFF740FF78617A68B9687869FFF790FF78
:1019F800024697F90F3011461846FFF75FFF00BF00
:101A08001837BD4680BD80B582B000AF0346FB7174
:101A180097F907301846FFF733FF00BF0837BD4670
:101A280080BD80B582B000AF78607868FFF7A4FF0A
:101A3800034618460837BD4680BD80B584B000AF60
:101A480078600023FB737B6893F82530DBB2022BA8
:101A58000DD07B680422DA637B68012283F8252095
:101A68007B68002283F824200123FB7347E07B680E
:101A78001B681A687B681B6822F00E021A607B6874
:101A88001B681A687B681B6822F001021A607B6871
:101A98009B6C1A687B689B6C22F480721A607B6866
:101AA8005B6C03F01F027B681B6C012101FA02F2D8
:101AB8005A607B68DB6C7A68126D5A607B685B6D74
:101AC800002B0CD07B685B6D1A687B685B6D22F419
:101AD80080721A607B689B6D7A68D26D5A607B68E9
:101AE800012283F825207B68002283F824207B6864
:101AF8009B6B002B03D07B689B6B78689847FB7BBC
:101B080018461037BD4680BD80B586B000AFF86076
:101B1800B960C7E9002300233B61244B1B78012BE4
:101B280001D102233EE0214B01221A704FF47A7052
:101B380000F07CF80346FB75FB7D002B2ED11B4B78
:101B480000225A60FB68002B07D1D7E90023B86848
:101B580000F0C0F801233B6110E0FB68012B02D0C4
:101B6800FB68022B0AD13B681946B86800F0D6F822
:101B7800FB68022B02D14FF480233B614FF47A704B
:101B880000F054F80346FB753B69002B06D0084B60
:101B98005A693B69DB43064913404B61034B0022FA
:101BA8001A70FB7D18461837BD4680BD100000200E
:101BB8000020024080B483B000AF0023FB710B4BC0
:101BC8005B69002B0BDA094B094A9A60074B094AF3
:101BD8009A60064B5B69002B01DA0123FB71FB79E4
:101BE80018460C37BD465DF8047B7047002002405C
:101BF80023016745AB89EFCD80B483B000AF0123E3
:101C0800FB71094B5B69084A43F000435361064B7B
:101C18005B69002B01DA0023FB71FB7918460C374E
:101C2800BD465DF8047B70470020024080B584B053
:101C380000AF7860FFF7C4FDF86009E0FFF7C0FD6A
:101C48000246FB68D31A7A689A4201D2032338E025
:101C58001E4B1B6903F48033B3F5803FEED01B4B5A
:101C68001A694CF2FA331340BB60BB68002B1ED0D4
:101C7800174B5A68BB681343154A5360BB6803F097
:101C88004043002B07D0114B9A69BB6803F04043CF
:101C98000E4913438B61BB6823F04043002B04D0EB
:101CA8000A4ABB6823F040431361012309E0074B4C
:101CB8001B6903F00103012B02D1044B01221A61B5
:101CC800002318461037BD4680BD00BF00200240E3
:101CD8001000002090B484B000AFF860C7E900237A
:101CE8000D4B5B690C4A43F001035361FB683A688A
:101CF8001A60BFF36F8FD7E900124FF000034FF05F
:101D0800000413000024FA680432136000BF10377F
:101D1800BD4690BC704700BF0020024080B489B027
:101D280000AF786039604023FB777B68BB613B6814
:101D38007B61134B5B69124A43F480235361EFF3D1
:101D48001083FB60FB683B6172B67B691A68BB69EC
:101D58001A60BB690433BB617B6904337B61FB7F19
:101D6800013BFB77FB7F002BEFD13B69BB60BB6876
:101D780083F3108800BF2437BD465DF8047B7047A5
:101D88000020024080B584B000AF786039604A4BCB
:101D98001B78012B01D1022389E0474B01221A70DD
:101DA8004FF47A70FFF742FF0346FB73FB7B002B6F
:101DB80079D1414B00225A60404B1B6803F40073F1
:101DC800002B19D03D4B1B683C4A23F40073136069
:101DD8003A4B1B6803F48063002B09D0374B1B6810
:101DE800364A23F480631360334B03221A7716E0D4
:101DF800314B01221A7712E0304B1B6803F48063E1
:101E0800002B09D02D4B1B682C4A23F480631360E8
:101E1800294B02221A7702E0274B00221A777B68A7
:101E28001B68012B11D17B685B68184600F048F8E5
:101E38004FF47A70FFF7FAFE0346FB731F4B5B699A
:101E48001E4A23F0040353612BE03B684FF0FF3236
:101E58001A607B689B68BB601BE07B685B681946FF
:101E6800B86800F04BF84FF47A70FFF7DFFE0346CE
:101E7800FB73124B5B69114A23F4FD735361FB7BBF
:101E8800002B03D03B68BA681A600AE0BB680133CC
:101E9800BB607B689A687B68DB681344BA689A42BF
:101EA800DBD300F04FF8044B00221A70FB7B184676
:101EB8001037BD4680BD00BF100000200020024042
:101EC80080B483B000AF78607B6803F00103002B17
:101ED80005D0094B5B69084A43F004035361064B7C
:101EE8005B69054A43F48033536100BF0C37BD4634
:101EF8005DF8047B704700BF0020024080B483B0C7
:101F080000AF786039600E4B5B6923F4FC727B6824
:101F1800DB0003F4FF630A4913434B61084B5B6919
:101F2800074A43F002035361054B5B69044A43F4D3
:101F38008033536100BF0C37BD465DF8047B7047A2
:101F48000020024080B483B000AF1E4B1B7FFB71A2
:101F5800FB79012B02D0FB79032B11D11A4B1B689B
:101F6800194A43F400631360174B1B68164A23F49D
:101F780000631360144B1B68134A43F40073136027
:101F8800FB79022B02D0FB79032B11D10E4B1B6876
:101F98000D4A43F4805313600B4B1B680A4A23F421
:101FA80080531360084B1B68074A43F4806313602F
:101FB800044B00221A7700BF0C37BD465DF8047B3E
:101FC800704700BF100000200020024080B487B096
:101FD80000AF7860396000237B615AE13B681A687A
:101FE80001217B6901FA03F31340FB60FB68002BB6
:101FF80000F04C813B685B68012B0BD03B685B6849
:10200800022B07D03B685B68112B03D03B685B68E9
:10201800122B30D17B689B683B617B695B00032294
:1020280002FA03F3DB433A6913403B613B68DA6821
:102038007B695B0002FA03F33A6913433B617B68EF
:102048003A699A607B685B683B6101227B6902FAA6
:1020580003F3DB433A6913403B613B685B681B0948
:1020680003F001027B6902FA03F33A6913433B6107
:102078007B683A695A607B68DB683B617B695B0017
:10208800032202FA03F3DB433A6913403B613B68DE
:102098009A687B695B0002FA03F33A6913433B6170
:1020A8007B683A69DA603B685B68022B03D03B685F
:1020B8005B68122B23D17B69DA087B68083253F8F6
:1020C80022303B617B6903F007039B000F2202FA71
:1020D80003F3DB433A6913403B613B681A697B6948
:1020E80003F007039B0002FA03F33A6913433B61C9
:1020F8007B69DA087B680832396943F822107B6803
:102108001B683B617B695B00032202FA03F3DB4334
:102118003A6913403B613B685B6803F003027B69E3
:102128005B0002FA03F33A6913433B617B683A693F
:102138001A603B685B6803F08053002B00F0A680B0
:102148005B4B1B6E5A4A43F001031366584B1B6ED8
:1021580003F00103BB60BB68564A7B699B080233E6
:1021680052F823303B617B6903F003039B000F2285
:1021780002FA03F3DB433A6913403B617B68B3F12E
:10218800904F1FD07B684C4A934219D07B684B4ACA
:10219800934213D07B684A4A93420DD07B68494AE0
:1021A800934207D07B68484A934201D105230AE04D
:1021B800062308E0042306E0032304E0022302E0E8
:1021C800012300E000237A6902F0030292009340A1
:1021D8003A6913433B6137497B699B0802333A6983
:1021E80041F82320394B1B683B61FB68DB433A69A4
:1021F80013403B613B685B6803F48033002B03D0DA
:102208003A69FB6813433B61304A3B6913602F4BC3
:102218005B683B61FB68DB433A6913403B613B68A1
:102228005B6803F40033002B03D03A69FB6813435F
:102238003B61264A3B695360244B9B683B61FB68C2
:10224800DB433A6913403B613B685B6803F48013E6
:10225800002B03D03A69FB6813433B611B4A3B6977
:1022680093601A4BDB683B61FB68DB433A691340B8
:102278003B613B685B6803F40013002B03D03A69A9
:10228800FB6813433B61114A3B69D3607B690133A7
:102298007B613B681A687B6922FA03F3002B7FF4A1
:1022A8009DAE00BF1C37BD465DF8047B704700BF7C
:1022B80000100240000001400004004800080048E7
:1022C800000C0048001000480014004800040140B9
:1022D80080B483B000AF78600B467B8013467B7078
:1022E8007B78002B03D07A887B689A6102E07A8831
:1022F8007B689A6200BF0C37BD465DF8047B704767
:1023080080B483B000AF78600B467B807B685A69E5
:102318007B881340002B03D07A887B689A6202E09E
:102328007A887B689A6100BF0C37BD465DF8047BEC
:102338007047000080B582B000AF0346FB80084BB1
:102348005A69FB881340002B06D0054AFB88536165
:10235800FB881846FEF74AFD00BF0837BD4680BD1A
:102368000004014080B485B000AF78607B68002B22
:1023780041D14B4B1B6803F4C063B3F5806F31D177
:10238800474BD3F88030464A23F48073C2F8803034
:10239800434B1B6823F4C063414A43F40073136042
:1023A800404B1B68322202FB03F33F4AA2FB032384
:1023B8009B0C0133FB6002E0FB68013BFB60384B80
:1023C8005B6903F48063B3F5806F02D1FB68002B6F
:1023D800F2D1334B5B6903F48063B3F5806F58D156
:1023E800032357E02E4BD3F880302D4A23F4807313
:1023F800C2F880304DE07B68B3F5007F41D1284BAF
:102408001B6803F4C063B3F5806F31D1244BD3F854
:102418008030234A43F48073C2F88030204B1B6815
:1024280023F4C0631E4A43F4007313601D4B1B68FA
:10243800322202FB03F31C4AA2FB03239B0C013349
:10244800FB6002E0FB68013BFB60154B5B6903F432
:102458008063B3F5806F02D1FB68002BF2D1104B7B
:102468005B6903F48063B3F5806F12D1032311E035
:102478000B4BD3F880300A4A43F48073C2F880309B
:1024880007E0074B1B6823F4C063054A43F48063E5
:102498001360002318461437BD465DF8047B704767
:1024A800007000400400002083DE1B4380B588B024
:1024B80000AF78607B68002B01D1012308E37B68BB
:1024C8001B6803F00103002B75D0A34B9B6803F036
:1024D8000C03BB61A04BDB6803F003037B61BB69A2
:1024E8000C2B02D17B69032B02D0BB69082B0BD1C3
:1024F800994B1B6803F40033002B5BD07B685B6847
:10250800002B57D10123E3E27B685B68B3F5803F7A
:1025180006D1914B1B68904A43F4803313601DE049
:102528007B685B68B3F5A02F0CD18B4B1B688A4A7C
:1025380043F480231360884B1B68874A43F4803335
:1025480013600BE0844B1B68834A23F480331360C9
:10255800814B1B68804A23F4802313607B685B6887
:10256800002B13D0FFF72CF9386108E0FFF728F9A2
:1025780002463B69D31A642B01D90323A8E2764BA0
:102588001B6803F40033002BF0D014E0FFF718F9B0
:10259800386108E0FFF714F902463B69D31A642B47
:1025A80001D9032394E26C4B1B6803F40033002B1E
:1025B800F0D100E000BF7B681B6803F00203002B2A
:1025C80075D0654B9B6803F00C03BB61624BDB68FD
:1025D80003F003037B61BB690C2B02D17B69022BDF
:1025E80002D0BB69042B1FD15B4B1B6803F48063CB
:1025F800002B05D07B68DB68002B01D1012367E243
:10260800554B5B6823F0FE427B681B691B065249E9
:1026180013434B60514B1B681846FFF785F8034678
:10262800002B43D0012353E27B68DB68002B23D0C7
:10263800494B1B68484A43F480731360FFF7C0F89E
:10264800386108E0FFF7BCF802463B69D31A022B51
:1026580001D903233CE2404B1B6803F48063002B41
:10266800F0D03D4B5B6823F0FE427B681B691B067C
:10267800394913434B601AE0374B1B68364A23F439
:1026880080731360FFF79CF8386108E0FFF798F84B
:1026980002463B69D31A022B01D9032318E22E4BB9
:1026A8001B6803F48063002BF0D100E000BF7B6857
:1026B8001B6803F00803002B3CD07B685B69002B88
:1026C8001CD0254BD3F89430234A43F00103C2F8B9
:1026D8009430FFF775F8386108E0FFF771F80246A3
:1026E8003B69D31A022B01D90323F1E11A4BD3F822
:1026F800943003F00203002BEFD01BE0164BD3F805
:102708009430154A23F00103C2F89430FFF758F8C3
:10271800386108E0FFF754F802463B69D31A022BE8
:1027280001D90323D4E10C4BD3F8943003F002030E
:10273800002BEFD17B681B6803F00403002B00F02B
:10274800AB800023FB77044B9B6D03F08053002B79
:1027580006D1012305E000BF001002400800002058
:102768000023002B0DD0AF4B9B6DAE4A43F0805336
:102778009365AC4B9B6D03F08053FB60FB680123B2
:10278800FB77A94B1B6803F48073002B18D1A64B69
:102798001B68A54A43F480731360FFF711F838618A
:1027A80008E0FFF70DF802463B69D31A022B01D95E
:1027B80003238DE19C4B1B6803F48073002BF0D03E
:1027C8007B689B68012B08D1964BD3F89030954ACB
:1027D80043F00103C2F8903024E07B689B68052B26
:1027E80010D1904BD3F890308E4A43F00403C2F8CE
:1027F80090308C4BD3F890308A4A43F00103C2F8EA
:1028080090300FE0874BD3F89030864A23F00103CD
:10281800C2F89030834BD3F89030824A23F00403F7
:10282800C2F890307B689B68002B16D0FEF7C8FF73
:1028380038610AE0FEF7C4FF02463B69D31A41F249
:102848008832934201D9032342E1764BD3F8903082
:1028580003F00203002BEDD015E0FEF7B1FF38615D
:102868000AE0FEF7ADFF02463B69D31A41F288320F
:10287800934201D903232BE16A4BD3F8903003F03C
:102888000203002BEDD1FB7F012B05D1654B9B6D1E
:10289800644A23F0805393657B681B6803F0200328
:1028A800002B3CD07B689B69002B1CD05D4BD3F878
:1028B80098305C4A43F00103C2F89830FEF780FF75
:1028C800386108E0FEF77CFF02463B69D31A022B09
:1028D80001D90323FCE0534BD3F8983003F00203EB
:1028E800002BEFD01BE04F4BD3F898304D4A23F024
:1028F8000103C2F89830FEF763FF386108E0FEF77D
:102908005FFF02463B69D31A022B01D90323DFE09C
:10291800444BD3F8983003F00203002BEFD17B68C7
:10292800DB69002B00F0D3803E4B9B6803F00C035F
:102938000C2B00F08D807B68DB69022B5AD1394B58
:102948001B68384A23F080731360FEF739FF38613B
:1029580008E0FEF735FF02463B69D31A022B01D97E
:102968000323B5E02F4B1B6803F00073002BF0D155
:102978002C4BDA682D4B13407A68116A7A68526AD0
:10298800013A120111437A68926A120211437A6875
:10299800126B5208013A520511437A68526B520879
:1029A800013A520611437A68D26AD2060A431D498F
:1029B8001343CB601B4B1B681A4A43F080731360A8
:1029C800184BDB68174A43F08073D360FEF7F8FEB4
:1029D800386108E0FEF7F4FE02463B69D31A022B81
:1029E80001D9032374E00F4B1B6803F00073002B1D
:1029F800F0D06CE00B4B1B680A4A23F0807313601D
:102A0800084BDB68074A23F00303D360054BDB68F8
:102A1800044A23F0887323F48033D360FEF7D0FE92
:102A280038610EE000100240007000400C809F01E9
:102A3800FEF7C6FE02463B69D31A022B01D90323CF
:102A480046E0254B1B6803F00073002BF0D13EE0F5
:102A58007B68DB69012B01D1012339E01E4BDB6860
:102A68007B617B6903F003027B681B6A9A422CD165
:102A78007B6903F0F0027B685B6A013B1B019A42A9
:102A880023D17B6903F4FE427B689B6A1B029A424E
:102A98001BD17B6903F078427B68DB6ADB069A42CC
:102AA80013D17B6903F4C0027B681B6B5B08013B95
:102AB8005B059A4209D17B6903F0C0627B685B6B56
:102AC8005B08013B5B069A4201D0012300E000232A
:102AD80018462037BD4680BD0010024080B586B03C
:102AE80000AF7860396000237B617B68002B01D1DF
:102AF80001231EE1914B1B6803F00F033A689A42C9
:102B080010D98E4B1B6823F00F028C493B68134386
:102B18000B608A4B1B6803F00F033A689A4201D096
:102B2800012306E17B681B6803F00103002B73D0C7
:102B38007B685B68032B29D1814B1B6803F000730A
:102B4800002B01D10123F4E000F066F938613B69FC
:102B58007C4A93423FD97A4B9B6803F0F003002BE1
:102B680009D07B681B6803F00203002B33D07B6815
:102B78009B68002B2FD1724B9B6823F0F003704A9F
:102B880043F08003936080237B6124E07B685B686B
:102B9800022B07D16A4B1B6803F40033002B09D1C1
:102BA8000123C6E0664B1B6803F48063002B01D148
:102BB8000123BEE000F0CEF838613B69614A9342D8
:102BC80009D95F4B9B6823F0F0035D4A43F080030B
:102BD800936080237B615A4B9B6823F003027B68D8
:102BE8005B68574913438B60FEF7EAFDF8600AE01B
:102BF800FEF7E6FD0246FB68D31A41F2883293429B
:102C080001D9032395E04E4B9B6803F00C027B68C7
:102C18005B689B009A42EBD17B681B6803F0020358
:102C2800002B23D07B681B6803F00403002B05D01E
:102C3800434B9B68424A43F4E06393607B681B689C
:102C480003F00803002B07D03D4B9B6823F47C530B
:102C58003B4A43F4E0639360394B9B6823F0F002EE
:102C68007B689B68364913438B6008E07B69802B3F
:102C780005D1334B9B68324A23F0F00393602F4B06
:102C88001B6803F00F033A689A421DD22B4B1B684E
:102C980023F00F0229493B6813430B60FEF790FDB0
:102CA800F8600AE0FEF78CFD0246FB68D31A41F291
:102CB8008832934201D903233BE0204B1B6803F081
:102CC8000F033A689A42EDD17B681B6803F004034E
:102CD800002B08D01A4B9B6823F4E0627B68DB6802
:102CE800174913438B607B681B6803F00803002BAC
:102CF80009D0134B9B6823F460527B681B69DB0087
:102D08000F4913438B6000F025F801460C4B9B6874
:102D18001B0903F00F030C4AD35C03F01F0321FACD
:102D280003F30A4A13600A4B1B681846FEF7FCFCBB
:102D3800034618461837BD4680BD00BF0020024034
:102D48000010024000B4C404205E00080400002003
:102D58000800002080B487B000AF2C4B9B6803F0BC
:102D68000C03042B02D12A4B3B6147E0274B9B689D
:102D780003F00C03082B02D1264B3B613EE0234BAA
:102D88009B6803F00C030C2B36D1204BDB6803F057
:102D98000303FB601D4BDB681B0903F00F030133C2
:102DA800BB60FB68032B0CD11A4ABB68B2FBF3F378
:102DB800164AD268120A02F07F0202FB03F37B6113
:102DC8000CE0134ABB68B2FBF3F3104AD268120A4C
:102DD80002F07F0202FB03F37B6100BF0B4BDB6851
:102DE8005B0E03F0030301335B007B607A697B6849
:102DF800B2FBF3F33B6101E000233B613B691846FA
:102E08001C37BD465DF8047B704700BF00100240C8
:102E18000024F40000127A0080B487B000AF1E4B83
:102E2800DB6803F003033B611B4BDB681B0903F002
:102E38000F030133FB603B69032B0CD1174AFB6876
:102E4800B2FBF3F3144AD268120A02F07F0202FBC3
:102E580003F37B610CE0124AFB68B2FBF3F30E4A02
:102E6800D268120A02F07F0202FB03F37B6100BF03
:102E7800094BDB685B0E03F0030301335B00BB60A7
:102E88007A69BB68B2FBF3F37B607B6818461C3732
:102E9800BD465DF8047B70470010024000127A00BE
:102EA8000024F40080B584B000AF78607B68002B04
:102EB80001D1012384E07B6800229A627B6893F841
:102EC8005D30DBB2002B06D17B68002283F85C20E2
:102ED8007868FEF783F97B68022283F85D207B68B7
:102EE8001B681A687B681B6822F040021A607B68BE
:102EF800DB68B3F5E06F02D90023FB6002E04FF412
:102F08008053FB607B68DB68B3F5706F07D07B6824
:102F1800DB68B3F5E06F02D07B6800229A627B68B9
:102F28001B6B002B0BD17B68DB68B3F5E06F03D913
:102F38007B6802221A6302E07B6801221A637B68BD
:102F48005A687B689B681A437B681B691A437B68CD
:102F58005B691A437B689B6903F400731A437B68B7
:102F6800DB691A437B681B6A42EA03017B689A6A39
:102F78007B681B680A431A607B689B691B0C03F01B
:102F880004027B685B6A1A437B685B6B1A437B6845
:102F9800DB6842EA03017B681B68FA680A435A60E7
:102FA8007B681B68DA697B681B6822F40062DA6157
:102FB8007B6800221A667B68012283F85D20002363
:102FC80018461037BD4680BD80B588B002AFF8609E
:102FD800B9603B601346FB800023FB75FB685B68A8
:102FE800B3F5827F12D1FB689B68002B0ED1FB687A
:102FF800042283F85D20FA883B6800931346BA6878
:10300800B968F86800F008F9034601E1FB6893F82D
:103018005C30012B01D10223FAE0FB68012283F81E
:103028005C20FEF7CDFB3861FB6893F85D30DBB2BE
:10303800012B02D00223FB75E1E0BB68002B02D014
:10304800FB88002B02D10123FB75D8E0FB68042222
:1030580083F85D20FB6800221A66FB68BA681A6468
:10306800FB68FA88A3F84420FB68FA88A3F846208E
:10307800FB6800229A63FB6800229A87FB6800229B
:10308800DA87FB680022DA64FB6800221A65FB68AD
:10309800DB68B3F5E06F08D9FB681B685A68FB6802
:1030A8001B6822F480525A6007E0FB681B685A6864
:1030B800FB681B6842F480525A60FB689B68B3F552
:1030C800004F07D1FB681B681A68FB681B6822F46D
:1030D80080421A60FB681B681B6803F04003402BA2
:1030E80007D0FB681B681A68FB681B6842F040023F
:1030F8001A60FB68DB68B3F5E06F67D830E0FB68FF
:103108001B689B6803F00103012B17D1FB681B6840
:1031180003F10C02FB681B6C1278D2B21A70FB68C0
:103128001B6C5A1CFB681A64FB68B3F846309BB2E8
:10313800013B9AB2FB68A3F8462011E0FEF740FB7A
:1031480002463B69D31A3A689A4203D83B68B3F1FE
:10315800FF3F02D13B68002B02D10323FB754EE0F1
:10316800FB68B3F846309BB2002BC8D134E0FB684B
:103178001B689B6803F00103012B15D1FB681B68D2
:10318800DA68FB681B6C92B21A80FB681B6C9A1C8D
:10319800FB681A64FB68B3F846309BB2013B9AB2ED
:1031A800FB68A3F8462011E0FEF70AFB02463B69DC
:1031B800D31A3A689A4203D83B68B3F1FF3F02D169
:1031C8003B68002B02D10323FB7518E0FB68B3F8BA
:1031D80046309BB2002BCAD13A693968F86800F0CA
:1031E800E0FE0346002B02D0FB6820221A66FB682B
:1031F8001B6E002B02D00123FB7500E000BFFB68AB
:10320800012283F85D20FB68002283F85C20FB7DA7
:1032180018461837BD4680BD80B58AB000AFF86043
:10322800B9607A607B8001237B62002387F82330B2
:10323800FB6893F85C30012B01D10223FBE1FB68AA
:10324800012283F85C20FEF7BBFAF861FB6893F86B
:103258005D30FB76FB685B687B617B887B827B8863
:103268003B82FB7E012B0ED07B69B3F5827F06D1B2
:10327800FB689B68002B02D1FB7E042B03D0022342
:1032880087F82330CDE1BB68002B05D07B68002B85
:1032980002D07B88002B03D1012387F82330C0E1BB
:1032A800FB6893F85D30DBB2042B03D0FB68052282
:1032B80083F85D20FB6800221A66FB687A681A6446
:1032C800FB687A88A3F84620FB687A88A3F844202C
:1032D800FB68BA689A63FB687A88DA87FB687A8839
:1032E8009A87FB680022DA64FB6800221A65FB688B
:1032F800DB68B3F5E06F02D83B8A012B08D9FB687D
:103308001B685A68FB681B6822F480525A6007E001
:10331800FB681B685A68FB681B6842F480525A6055
:10332800FB681B681B6803F04003402B07D0FB6851
:103338001B681A68FB681B6842F040021A60FB6849
:10334800DB68B3F5E06F7CD9FB685B68002B02D0C3
:103358007B8A012B69D1FB689B6B1A88FB681B6809
:10336800DA60FB689B6B9A1CFB689A63FB68DB8FCF
:103378009BB2013B9AB2FB68DA8756E0FB681B6890
:103388009B6803F00203022B1BD1FB68DB8F9BB207
:10339800002B16D07B6A012B13D1FB689B6B1A8814
:1033A800FB681B68DA60FB689B6B9A1CFB689A6376
:1033B800FB68DB8F9BB2013B9AB2FB68DA8700237C
:1033C8007B62FB681B689B6803F00103012B1CD11F
:1033D800FB68B3F846309BB2002B16D0FB681B681D
:1033E800DA68FB681B6C92B21A80FB681B6C9A1C2B
:1033F800FB681A64FB68B3F846309BB2013B9AB28B
:10340800FB68A3F8462001237B62FEF7D9F9024640
:10341800FB69D31A3A6B9A4207D83B6BB3F1FF3F6B
:1034280003D0032387F82330FBE0FB68DB8F9BB2D4
:10343800002BA3D1FB68B3F846309BB2002B9DD17B
:10344800DFE0FB685B68002B03D07B8A012B40F030
:10345800CB80FB68DB8F9BB2012B12D9FB689B6B7F
:103468001A88FB681B68DA60FB689B6B9A1CFB6810
:103478009A63FB68DB8F9BB2023B9AB2FB68DA87E0
:10348800B2E0FB689A6BFB681B680C3312781A7001
:10349800FB689B6B5A1CFB689A63FB68DB8F9BB2CB
:1034A800013B9AB2FB68DA879EE0FB681B689B6861
:1034B80003F00203022B34D1FB68DB8F9BB2002B95
:1034C8002FD07B6A012B2CD1FB68DB8F9BB2012BA1
:1034D80012D9FB689B6B1A88FB681B68DA60FB686B
:1034E8009B6B9A1CFB689A63FB68DB8F9BB2023B61
:1034F8009AB2FB68DA8712E0FB689A6BFB681B6874
:103508000C3312781A70FB689B6B5A1CFB689A6321
:10351800FB68DB8F9BB2013B9AB2FB68DA8700231A
:103528007B62FB681B689B6803F00103012B48D191
:10353800FB68B3F846309BB2002B42D0FB68B3F867
:1035480046309BB2012B23D9FB681B68DA68FB68FD
:103558001B6C92B21A80FB681B6C9A1CFB681A647D
:10356800FB68B3F846309BB2023B9AB2FB68A3F8FB
:103578004620FB68B3F846309BB2012B1FD8FB6886
:103588001B685A68FB681B6842F480525A6016E050
:10359800FB681B6803F10C02FB681B6C1278D2B243
:1035A8001A70FB681B6C5A1CFB681A64FB68B3F83A
:1035B80046309BB2013B9AB2FB68A3F84620012330
:1035C8007B62FEF7FDF80246FB69D31A3A6B9A4212
:1035D80003D83B6BB3F1FF3F02D13B6B002B03D108
:1035E800032387F823301CE0FB68DB8F9BB2002B9A
:1035F8007FF45BAFFB68B3F846309BB2002B7FF4D7
:1036080054AFFA69396BF86800F023FD0346002BC4
:1036180006D0012387F82330FB6820221A6600E0D1
:1036280000BFFB68012283F85D20FB68002283F855
:103638005C2097F8233018462837BD4680BD000027
:1036480080B586B000AFF860B9601346FB800023F0
:10365800FB75FB689B68002B10D1FB685B68B3F5B2
:10366800827F0BD1FB68042283F85D20FB88BA684F
:10367800B968F86800F08CF8034681E0FB6893F8B5
:103688005C30012B01D102237AE0FB68012283F828
:103698005C20FB6893F85D30DBB2012B02D002237B
:1036A800FB7568E0BB68002B02D0FB88002B02D1B9
:1036B8000123FB755FE0FB68042283F85D20FB684B
:1036C80000221A66FB68BA681A64FB68FA88A3F8CD
:1036D8004420FB68FA88A3F84620FB6800229A6316
:1036E800FB6800229A87FB680022DA87FB680022C1
:1036F8001A65FB68DB68B3F5E06F0BD9FB681B68DC
:103708005A68FB681B6822F480525A60FB681E4A9C
:10371800DA640AE0FB681B685A68FB681B6842F4B5
:1037280080525A60FB68194ADA64FB689B68B3F5F3
:10373800004F07D1FB681B681A68FB681B6822F4F6
:1037480080421A60FB681B685A68FB681B6842F075
:1037580060025A60FB681B681B6803F04003402B3B
:1037680008D0FB681B681A68FB681B6842F04002B7
:103778001A6000E000BFFB68002283F85C20FB7D34
:1037880018461837BD4680BDB13D0008613D0008A8
:1037980080B487B000AFF860B9607A607B8000239E
:1037A800FB75FB6893F85C30012B01D1022391E093
:1037B800FB68012283F85C20FB6893F85D30BB75D9
:1037C800FB685B683B61BB7D012B0DD03B69B3F5A2
:1037D800827F06D1FB689B68002B02D1BB7D042B3E
:1037E80002D00223FB7570E0BB68002B05D07B6814
:1037F800002B02D07B88002B02D10123FB7564E0EB
:10380800FB6893F85D30DBB2042B03D0FB6805221C
:1038180083F85D20FB6800221A66FB68BA689A6321
:10382800FB687A889A87FB687A88DA87FB687A68FF
:103838001A64FB687A88A3F84420FB687A88A3F89E
:103848004620FB68DB68B3F5E06F06D9FB68244ABD
:10385800DA64FB68234A1A6505E0FB68224ADA64E1
:10386800FB68224A1A65FB68DB68B3F5E06F02D88B
:103878007B88012B08D9FB681B685A68FB681B68A2
:1038880022F480525A6007E0FB681B685A68FB689C
:103898001B6842F480525A60FB681B685A68FB68D0
:1038A8001B6842F0E0025A60FB681B681B6803F063
:1038B8004003402B08D0FB681B681A68FB681B682C
:1038C80042F040021A6000E000BFFB68002283F863
:1038D8005C20FB7D18461C37BD465DF8047B7047AD
:1038E8009B3C0008013D00084B3B0008093C0008D0
:1038F80080B588B000AF78607B681B685B68FB6147
:103908007B681B689B68BB61BB699B0903F001036B
:10391800002B0FD1BB6903F00103002B0AD0FB6910
:103928009B0903F00103002B04D07B68DB6C7868EB
:103938009847D8E0BB695B0803F00103002B0AD065
:10394800FB69DB0903F00103002B04D07B681B6DC6
:1039580078689847C7E0BB695B0903F00103002B4F
:103968000CD1BB699B0903F00103002B06D1BB698D
:103978001B0A03F00103002B00F0B580FB695B090B
:1039880003F00103002B00F0AE80BB699B0903F034
:103998000103002B23D07B6893F85D30DBB2032B47
:1039A80011D07B681B6E43F004027B681A66002303
:1039B8007B617B681B68DB687B617B681B689B6835
:1039C8007B617B690BE000233B617B681B68DB68DC
:1039D8003B617B681B689B683B613B6983E0BB6913
:1039E8005B0903F00103002B14D07B681B6E43F0C6
:1039F80001027B681A660023FB607B681B689B6872
:103A0800FB607B681B681A687B681B6822F04002B1
:103A18001A60FB68BB691B0A03F00103002B0CD07A
:103A28007B681B6E43F008027B681A660023BB6044
:103A38007B681B689B68BB60BB687B681B6E002B40
:103A480050D07B681B685A687B681B6822F0E002CC
:103A58005A607B68012283F85D20FB6903F002034A
:103A6800002B04D1FB6903F00103002B34D07B68E1
:103A78001B685A687B681B6822F003025A607B68DF
:103A88009B6D002B11D07B689B6D184A9A637B68ED
:103A98009B6D1846FDF7D1FF0346002B05D07B68C8
:103AA8001B6E43F040027B681A667B685B6D002BD7
:103AB80016D07B685B6D0D4A9A637B685B6D184610
:103AC800FDF7BBFF0346002B0AD07B681B6E43F053
:103AD80040027B681A6603E0786800F013F800E09B
:103AE80000BF00BF00BF2037BD4680BD213B000896
:103AF80080B483B000AF786000BF0C37BD465DF876
:103B0800047B704780B483B000AF786000BF0C3787
:103B1800BD465DF8047B704780B584B000AF78601F
:103B28007B689B6AFB60FB680022A3F84620FB6861
:103B38000022DA87F868FFF7E5FF00BF1037BD46B7
:103B480080BD80B582B000AF78607B68B3F846303E
:103B58009BB2012B23D97B681B68DA687B681B6CD6
:103B680092B21A807B681B6C9A1C7B681A647B680B
:103B7800B3F846309BB2023B9AB27B68A3F8462062
:103B88007B68B3F846309BB2012B1FD17B681B685A
:103B98005A687B681B6842F480525A6016E07B685A
:103BA8001B6803F10C027B681B6C1278D2B21A7086
:103BB8007B681B6C5A1C7B681A647B68B3F84630B8
:103BC8009BB2013B9AB27B68A3F846207B68B3F8A6
:103BD80046309BB2002B0FD17B681B685A687B6804
:103BE8001B6822F060025A607B68DB8F9BB2002B57
:103BF80002D1786800F073FA00BF0837BD4680BD6F
:103C080080B582B000AF78607B68DB8F9BB2012BF8
:103C180012D97B689B6B1A887B681B68DA607B68A3
:103C28009B6B9A1C7B689A637B68DB8F9BB2023B19
:103C38009AB27B68DA8712E07B689A6B7B681B68AC
:103C48000C3312781A707B689B6B5A1C7B689A63DA
:103C58007B68DB8F9BB2013B9AB27B68DA877B6813
:103C6800DB8F9BB2002B10D17B681B685A687B687E
:103C78001B6822F080025A607B68B3F846309BB21A
:103C8800002B02D1786800F02AFA00BF0837BD4639
:103C980080BD80B582B000AF78607B681B68DA6849
:103CA8007B681B6C92B21A807B681B6C9A1C7B68C1
:103CB8001A647B68B3F846309BB2013B9AB27B68C2
:103CC800A3F846207B68B3F846309BB2002B0FD18F
:103CD8007B681B685A687B681B6822F040025A6040
:103CE8007B68DB8F9BB2002B02D1786800F0F7F974
:103CF80000BF0837BD4680BD80B582B000AF786090
:103D08007B689B6B1A887B681B68DA607B689B6B97
:103D18009A1C7B689A637B68DB8F9BB2013B9AB2E3
:103D28007B68DA877B68DB8F9BB2002B10D17B68BE
:103D38001B685A687B681B6822F080025A607B689F
:103D4800B3F846309BB2002B02D1786800F0C7F96F
:103D580000BF0837BD4680BD80B582B000AF78602F
:103D68007B681B6803F10C027B681B6C1278D2B26B
:103D78001A707B681B6C5A1C7B681A647B68B3F8E2
:103D880046309BB2013B9AB27B68A3F846207B6819
:103D9800B3F846309BB2002B02D1786800F0E1F905
:103DA80000BF0837BD4680BD80B582B000AF7860DF
:103DB8007B681B68DA687B681B6C92B21A807B6828
:103DC8001B6C9A1C7B681A647B68B3F846309BB2FC
:103DD800013B9AB27B68A3F846207B68B3F846306B
:103DE8009BB2002B02D1786800F0BBF900BF0837FE
:103DF800BD4680BD80B584B000AFF860B9603B6057
:103E08001346FB714CE03B68B3F1FF3F48D0FDF728
:103E1800D7FC0246BB69D31A3A689A4202D93B6872
:103E2800002B3DD1FB681B685A68FB681B6822F0B1
:103E3800E0025A60FB685B68B3F5827F11D1FB68CA
:103E48009B68B3F5004F04D0FB689B68B3F5806F9F
:103E580007D1FB681B681A68FB681B6822F04002E0
:103E68001A60FB689B6AB3F5005F0FD1FB681B689B
:103E78001A68FB681B6822F400521A60FB681B680A
:103E88001A68FB681B6842F400521A60FB6801223A
:103E980083F85D20FB68002283F85C2003230FE091
:103EA800FB681B689A68BB681340BA689A420CBFE3
:103EB80001230023DBB21A46FB799A42A3D10023DF
:103EC80018461037BD4680BD80B584B000AFF86095
:103ED800B9607A603B6057E0BB68B3F5C06F06D144
:103EE8007B68002B03D1FB681B680C331B783B688D
:103EF800B3F1FF3F48D0FDF763FC0246BB69D31A14
:103F08003A689A4202D93B68002B3DD1FB681B688E
:103F18005A68FB681B6822F0E0025A60FB685B681D
:103F2800B3F5827F11D1FB689B68B3F5004F04D0CD
:103F3800FB689B68B3F5806F07D1FB681B681A683C
:103F4800FB681B6822F040021A60FB689B6AB3F5A5
:103F5800005F0FD1FB681B681A68FB681B6822F4B6
:103F680000521A60FB681B681A68FB681B6842F4F9
:103F780000521A60FB68012283F85D20FB6800226A
:103F880083F85C20032308E0FB681B689A68BB6819
:103F980013407A689A429FD1002318461037BD46CD
:103FA80080BD80B586B002AFF860B9607A60FB6802
:103FB8005B68B3F5827F11D1FB689B68B3F5004F4E
:103FC80004D0FB689B68B3F5806F07D1FB681B685A
:103FD8001A68FB681B6822F040021A607B6800932D
:103FE800BB6800228021F868FFF704FF0346002B16
:103FF80007D0FB681B6E43F02002FB681A66032398
:1040080023E0FB685B68B3F5827F1DD1FB689B6882
:10401800B3F5004F04D0FB689B68B3F5806F13D1EC
:104028007B680093BB6800224FF4C061F868FFF713
:104038004BFF0346002B07D0FB681B6E43F02002A2
:10404800FB681A66032300E0002318461037BD46B4
:1040580080BD80B586B002AFF860B9607A607B68D1
:104068000093BB6800224FF4C051F868FFF72CFF9B
:104078000346002B07D0FB681B6E43F02002FB6849
:104088001A66032327E07B680093BB68002280211F
:10409800F868FFF7AFFE0346002B07D0FB681B6EDE
:1040A80043F02002FB681A66032314E07B68009340
:1040B800BB6800224FF4C061F868FFF705FF0346AC
:1040C800002B07D0FB681B6E43F02002FB681A66C2
:1040D800032300E0002318461037BD4680BD80B595
:1040E80084B000AF7860FDF76BFBF8607B681B68F5
:1040F8005A687B681B6822F020025A60FA686421BB
:104108007868FFF7A6FF0346002B05D07B681B6E77
:1041180043F020027B681A667B681B6E002B15D162
:104128007B6893F85D30DBB2042B07D17B680122F2
:1041380083F85D207868FCF73DFE0EE07B6801227D
:1041480083F85D207868FFF7D3FC06E07B680122DE
:1041580083F85D207868FFF7D5FC00BF1037BD46AF
:1041680080BD80B582B000AF78607B681B685A68F4
:104178007B681B6822F060025A60FDF721FB03464A
:104188001A4664217868FFF70CFF0346002B05D018
:104198007B681B6E43F020027B681A667B680122ED
:1041A80083F85D207B681B6E002B03D17868FCF7D1
:1041B80001FE02E07868FFF7A5FC00BF0837BD469E
:1041C80080BD80B483B000AF786039607B683A689E
:1041D8009A6200BF0C37BD465DF8047B704780B417
:1041E80083B000AF786039607B683A68DA6200BFF4
:1041F8000C37BD465DF8047B704780B483B000AFD0
:10420800786039607B683A681A6300BF0C37BD462E
:104218005DF8047B704780B483B000AF78607B683A
:104228005B6943F001027B685A6100BF0C37BD46E9
:104238005DF8047B7047000080B584B000AF7860FB
:1042480039607B681B68FB607B68394A93420FD0F2
:104258007B68B3F1804F0BD07B68364A934207D016
:104268007B68354A934203D07B68344A934206D12F
:10427800FB6823F070023B685B681343FB607B6854
:104288002B4A93421BD07B68B3F1804F17D07B68D1
:10429800284A934213D07B68274A93420FD07B6801
:1042A800264A93420BD07B68254A934207D07B6805
:1042B800244A934203D07B68234A934206D1FB6881
:1042C80023F440723B68DB681343FB607B68FA6841
:1042D8001A603B689B6819467868FFF780FF3B685F
:1042E8001B8819467868FFF76CFF7B68104A934271
:1042F8000FD07B68114A93420BD07B68104A9342D7
:1043080007D07B680F4A934203D07B680E4A9342DA
:1043180005D13B681B6919467868FFF76EFF786816
:10432800FFF779FF002318461037BD4680BD00BF50
:10433800002C014000040040000800400034014007
:10434800004001400044014000480140014B18680A
:10435800704700BF3000002070B50D4E0D4CA41BF7
:10436800A4100025A54209D10B4E0C4C01F046FDC6
:10437800A41BA4100025A54205D170BD56F8253010
:1043880098470135EEE756F8253098470135F2E7AA
:104398005860000858600008586000085C60000811
:1043A80002440346934200D1704703F8011BF9E722
:1043B8002DE9FF4755EC104B0D9FDDF830A0002D7F
:1043C8000E4691461946B8BF22462B4627F02007CD
:1043D800BBBF05F100431D4600232D23B8BF14467B
:1043E800462F0B7004D0452F00D10136022100E082
:1043F800032103AB019302AB00933246534645ECCD
:10440800104B00F0ADFB472F804602D119F0010F89
:1044180026D0462F08EB060911D198F80030302B2A
:104428000AD10022002320462946FCF71DFB18B9B3
:10443800C6F10106CAF80060DAF800309944002293
:10444800002320462946FCF70FFB38B93022039B8E
:104458004B4505D2591C03911A70F8E7CDF80C901A
:10446800039B0E9AA3EB08034046136004B0BDE813
:10447800F087F7B500290446BABF49422D232B23FC
:10448800092904F8022B437020DD0DF107031F46AC
:104498000A2691FBF6F506FB15113031092D03F8B4
:1044A800011C03F1FF32294609DC3031023B02F8D6
:1044B800011CBB42224604D3101A03B0F0BD1346B8
:1044C800E7E713F8012B04F8012BF2E7302319442E
:1044D8008370021DC170EFE72DE9F04F8DB00C46D7
:1044E800DDF8588016461F46054601F0F1F80368C6
:1044F80004931846FBF78CFE00230A93D8F8003083
:104508000590073323F0070303F1080294F818A075
:10451800D4F800B0C8F80020D3E90023C4E9122376
:10452800D4E9128929F000430793CDF818804FF099
:10453800FF32A74BDDE90601FCF7C8FA70BB4FF064
:10454800FF32A34BDDE90601FCF7A2FA30BB0022DB
:10455800002340464946FCF791FA10B12D2384F810
:1045680043309C4A9C4BBAF1470F8CBF9046984603
:1045780003232BF00402236122604FF00009009707
:1045880033460BAA2146284600F0E6F9013040F0F0
:104598008D804FF0FF300DB0BDE8F08F42464B469E
:1045A80040464946FCF792FA10B18C4A8C4BDAE740
:1045B80061684B1C4BF480620AA83ED106236360F5
:1045C8000023CDE9020309AB009349EC108B0DF1F0
:1045D80023032260CDF804A061682846FFF7E8FEAF
:1045E8000AF0DF03472B804609D1099BD81C02DB60
:1045F8006268934247DDAAF1020A5FFA8AFABAF1C1
:10460800650F099924D80139524604F150000991DF
:10461800FFF72FFF0A9A1318012A8146236102DC4B
:104628002268D10701D5013323619DF82330002B7F
:10463800A5D02D2384F84330A1E7BAF1670F00F025
:104648007781BAF1470FBBD10029B9D10123B6E769
:10465800BAF1660F19D1002963680CDD216113B91D
:104668002268D20702D501330B442361099BA36555
:104678004FF00009D9E713B92268D00701D50233F2
:10468800F3E70123F1E74FF0670ADDE909329342C6
:1046980005DB22682361D107E8D50133E5E7002B64
:1046A800D4BFC3F1020301231344DEE723685A058C
:1046B80007D42369424631462846B84701302BD1F2
:1046C80067E7BAF1650F40F2DC8000220023D4E9E5
:1046D8001201FCF7C9F9002833D00123414A3146B9
:1046E8002846B84701303FF454AFDDE909239A4220
:1046F80002DB2368D8070FD5DDE9042331462846B5
:10470800B84701303FF445AF4FF0000804F11A09EB
:104718000A9B013B434509DC23689B0700F10381A1
:10472800E0680B9B9842B8BF184634E701234A4615
:1047380031462846B84701303FF42BAF08F101084D
:10474800E6E7099B002B2BDC0123264A3146284645
:10475800B84701303FF41DAF099B23B90A9B13B931
:104768002368D907D8D5DDE9042331462846B84758
:1047780001303FF40EAF4FF0000904F11A0A099B0B
:104788005B424B4501DC0A9B94E7012352463146C4
:104798002846B84701303FF4FCAE09F10109EEE7BD
:1047A8000A9AA36D9A42A8BF1A46002A914607DDC5
:1047B8001346314642462846B84701303FF4E9AE31
:1047C80004F11A034FF0000B29EAE979069315E082
:1047D800FFFFEF7F345E0008305E00083C5E000893
:1047E800385E0008405E00080123069A31462846D4
:1047F800B84701303FF4CDAE0BF1010BD4F858A007
:10480800AAEB09035B45EFDCDDE909239A42D044B2
:1048180015DB2368DA0712D40A9B0999A3EB0A026D
:10482800A3EB010A9245A8BF9246BAF1000F0EDC2D
:104838004FF000082AEAEA7A04F11A0919E0DDE9DA
:10484800042331462846B8470130E5D1A1E653464E
:10485800424631462846B8470130E9D199E6012356
:104868004A4631462846B84701303FF492AE08F12F
:104878000108DDE909239B1AA3EB0A034345EEDC93
:104888004AE70A9A012A01DCDB073AD501234246A6
:1048980031462846B84701303FF47BAEDDE90423B2
:1048A80031462846B847013008F101083FF471AE97
:1048B8000A9B002203F1FF3AD4E912010023FCF716
:1048C800D3F8C8B95346424631462846B84701305E
:1048D8000ED15EE60123524631462846B8470130DC
:1048E8003FF457AE08F101080A9B013B4345F1DC50
:1048F8004B4604F15002DEE64FF0000804F11A0AB4
:10490800F2E70123DFE701234A4631462846B84744
:1049180001303FF43EAE08F10108E3680B9A9B1A98
:104928004345F0DCFCE64FF0000804F11909F4E710
:1049380000293FF48BAE0023CDE9020309AB0093B5
:1049480049EC108B2260CDF804A00DF12303284612
:10495800FFF72EFD804648E62DE9F04791461F46B1
:104968008A680B69DDF820809342B8BF1346C9F8FE
:10497800003091F8432006460C4612B10133C9F8BD
:1049880000302368990642BFD9F800300233C9F8CD
:104998000030256815F0060507D104F1190AE36807
:1049A800D9F800209B1AAB4228DC94F843302268DF
:1049B800003318BF012392062DD404F1430239466F
:1049C8003046C047013020D02368E568D9F8002078
:1049D80003F00603042B08BFAD1AA36822690CBFB5
:1049E80025EAE57500259342C4BF9B1AED184FF0E0
:1049F80000091A344D451AD1002008E00123524617
:104A080039463046C047013003D14FF0FF30BDE88A
:104A1800F0870135C3E7E1185A1C302081F84300BC
:104A2800224494F8451082F843100233C5E7012365
:104A3800224639463046C0470130E6D009F101091F
:104A4800D8E72DE9F74F03690C69A3428046C0F205
:104A58008280013C01F114074FEA840C00F114062E
:104A680057F8245056F8240006EB0C03013507EBE1
:104A78000C090193B0FBF5F595B34FF0000A3846E1
:104A8800B646D34650F8042B93B205FB03A34FEA6E
:104A9800134A9BB2ABEB0303120CDEF800B005FB24
:104AA80002A213FA8BF34FEA124A1FFA82FBDEF8CE
:104AB8000020CBEB124202EB23429BB243EA0243B3
:104AC80081454FEA224B4EF8043BDBD256F80C30B6
:104AD80033B9019B043B9E421A4630D3C8F81040B4
:104AE800404601F02BF8002825DB013530464FF011
:104AF800000C57F8042BD0F800E093B2ACEB03039A
:104B0800120C13FA8EF3C2EB1E4202EB23429BB245
:104B180043EA0243B9454FEA224C40F8043BE8D245
:104B280056F8242006EB84032AB9043B9E421A4611
:104B38000BD3C8F81040284603B0BDE8F08F1268C0
:104B4800043B002ACAD1013CC5E71268043B002A8D
:104B5800EFD1013CEAE70020EEE70000000000008A
:104B68002DE9F04F57EC106B97B0456A0691044653
:104B78000B921293DDF88080CDE900673DB91020D3
:104B880000F0B4FD6062C0E901550560C560636A64
:104B9800196851B15A684A60012393408B602046D6
:104BA80000F0EBFD636A00221A603B1EBBBF23F0D6
:104BB8000043019300230122ACBFC8F80030C8F8B5
:104BC8000020AF4BDDF8048033EA080314D1129AB1
:104BD80042F20F731360009B23B9C8F31300002837
:104BE80000F04285219BDFF8ACB2002B00F0448531
:104BF8000BF1030300F03EBDDDE90067002200234E
:104C080030463946FBF730FF814668B1129A0123D6
:104C18001360219B002B00F024859A4B219A03F105
:104C2800FF3B136000F028BD14AA15A947EC106BD0
:104C3800204600F0FAFFC8F30A550490002D7CD0F6
:104C4800C7F3130343F07F5BB2464BF4401BA5F256
:104C5800FF35CDF84C9000228B4B50465946FBF758
:104C6800E3FA81A3D3E90023FBF796FC80A3D3E9F9
:104C78000023FBF7DBFA064628460F46FBF722FC23
:104C88007DA3D3E90023FBF787FC02460B46304699
:104C98003946FBF7CBFA06460F46FBF72DFF0022F5
:104CA8008246002330463946FBF7E8FE48B15046B5
:104CB800FBF708FC32463B46FBF7D6FE08B90AF17B
:104CC800FF3ABAF1160F59D8704901EBCA01DDE96C
:104CD8000023D1E90001FBF7EFFE002850D00AF1CC
:104CE800FF3A00230F93149B5D1BB5F1010849BFE0
:104CF800C5F10103002305934FF0000858BF059341
:104D0800BAF1000F3EDB0023D044CDF838A007935A
:104D1800069B092B00F29080052BC4BF043B069329
:104D2800069BA3F10203CCBF00250125032B00F24B
:104D38008F80DFE803F07D7F3171DDE914531D4476
:104D480005F23240202813DDC0F14000009B08FA2C
:104D580000F805F2124023FA00F048EA0000FBF7D9
:104D6800A1FB01238246A1F1F87B013D139372E771
:104D7800009BC0F1200003FA00F0F0E70123B1E73F
:104D88000F90B0E7059BA3EB0A030593CAF1000354
:104D9800079300230E93BBE701230A930B9B002B79
:104DA80059DD02939946666A00227260042202F174
:104DB80014009842716853D9204600F0AAFC636A2F
:104DC8003060B9F10E0FD3F800B000F2E680002D84
:104DD80000F0E3809DED007BBAF1000F8DED107BB4
:104DE80074DD2A4A0AF00F0302EBC30393ED007B3C
:104DF8004FEA2A16F0068DED087B65D5244BDDE9D0
:104E08001001D3E90823FBF7F1FCCDE9000106F016
:104E18000F0603251E4F4CE001230A930B9B5344B6
:104E280003F1010902934B46012BB8BF0123BAE7EE
:104E38000023B2E70023F0E70125002306930A9533
:104E48004FF0FF3302939946002212230B92AAE7F0
:104E580001230A93F4E70123029399461A46F5E7DA
:104E6800013171605200A2E761436F63A787D23FA7
:104E7800B3C8608B288AC63FFB799F501344D33F41
:104E88000000F07F415E00080000F83F785E0008EF
:104E9800505E00084B5E0008F10708D5DDE90801FF
:104EA800D7E90023FBF778FBCDE908010135761037
:104EB8000837002EF0D1DDE90823DDE90001FBF712
:104EC80095FCCDE900011AE00225A3E700F0A080D7
:104ED800CAF100069F4BA04F06F00F0203EBC20376
:104EE800D3E90023DDE91001FBF756FBCDE900010A
:104EF800361100230225002E7FD1002BE1D10F9B14
:104F0800002B00F08780DDE900670022934B3046D4
:104F18003946FBF7B3FD00287CD0B9F1000F79D0F2
:104F2800029B002B35DD0AF1FF3308933946002236
:104F38008B4B3046FBF730FBCDE90001029F013572
:104F48002846FBF7BFFADDE90023FBF725FB002223
:104F5800844BFBF76BF90546A1F15076002F5DD124
:104F68000022814BDDE90001FBF75EF92A46334652
:104F7800CDE90001FBF7A0FD002840F088822A4611
:104F880006F10043DDE90001FBF778FD002840F059
:104F98007C82DDE91023CDE90023159B002BC0F2AC
:104FA8005081BAF10E0F00F34C816A4B03EBCA0330
:104FB80093ED007B0B9B002B8DED027B80F2D8805C
:104FC800B9F1000F00F3D48040F05E820022664BF6
:104FD80051EC170BFBF7E0FADDE90023FBF762FD64
:104FE8004F464E46002840F0348231230BF101052C
:104FF8008BF800300AF1010A2FE2F20705D5D7E94C
:105008000023FBF7C9FA013501237610083772E748
:10501800022574E7CDF820A04F4691E74D4B03EBEE
:10502800C70353E902010A9B002B47D002460B46EF
:1050380000204E49FBF7DAFB2A463346FBF7F4F823
:10504800CDE90C015D46DDE90001FBF755FD06469B
:10505800FBF738FA02460B46DDE90001FBF7E4F8F6
:10506800303605F8016BDDE90C23CDE90001FBF7CB
:1050780005FD002863D1DDE9002300203749FBF74F
:10508800D3F8DDE90C23FBF7F9FC002840F0B780E2
:10509800A5EB0B039F427FF77CAF0022304BDDE985
:1050A8000C01FBF779FA0022CDE90C012C4BDDE964
:1050B8000001FBF771FACDE90001C4E72A4633463F
:1050C800FBF76AFACDE90C010BEB07055E46DDE953
:1050D8000001FBF711FD0746FBF7F4F930370246EC
:1050E8000B46DDE90001FBF79FF806F8017BAE42AD
:1050F800CDE900014FF0000226D11C4BDDE90C017F
:10510800FBF794F802460B46DDE90001FBF7D4FCF7
:10511800002874D1DDE90C2300201449FBF784F83A
:1051280002460B46DDE90001FBF7A8FC00283FF426
:1051380030AF15F8013C302B05F1FF3202D0DDF815
:1051480020A04AE01546F4E7054BFBF725FACDE920
:105158000001BCE7785E0008505E00080000F03FE0
:105168000000244000001C40000014400000E03F04
:10517800DDE900675D46DDE9022330463946FBF785
:1051880035FBFBF7B9FC8046FBF79CF9DDE9022308
:10519800FBF702FA02460B463046394608F130065C
:1051A800FBF742F805F8016BA5EB0B06B145024683
:1051B8000B4639D1FBF73AF8DDE9022306460F46DC
:1051C800FBF77AFCC8B9DDE9022330463946FBF71C
:1051D8004BFC10B118F0010F0FD10499204600F0D4
:1051E800CCFA0023129A2B700AF101031360219B59
:1051F800002B00F041821D603EE2CDF820A015F89A
:10520800012C392A05F1FF3308D19B450AD1089BA7
:105218000133089330238BF800305B461A7801324B
:105228001A708CE71D46EAE700229B4BFBF7B4F99E
:105238000022002306460F46FBF716FC00289AD0EA
:10524800CBE70A9A002A00F08B80069A012A6EDCC6
:10525800139A002A67D003F23343079F059D059AE6
:1052680001211A4420460592984400F026FB064680
:10527800002D0CDDB8F1000F09DD4545059A2B46D8
:10528800A8BF4346D21A0592ED1AA8EB0308079B5C
:10529800EBB10A9B002B67D08FB131463A462046C6
:1052A80000F0AAFB049A01460646204600F00EFBD1
:1052B80004990890204600F060FA089B0493079B25
:1052C800DA1B04D00499204600F096FB04900121D3
:1052D800204600F0F2FA0E9B0746002B00F0D08122
:1052E8001A460146204600F087FB069B012B07461D
:1052F80040DC009B002B39D1019BC3F31303002B27
:1053080036D1019B23F000431B0D1B052BB1059BD8
:105318000133059308F10108012307930E9B002B25
:105328002AD1012030E0149BC3F1360395E7079B8F
:1053380009F1FF37BB42BFBF079B0797FA1A0E9BBD
:10534800BBBF9B180E93DF1B0027B9F1000FB5BF39
:10535800059B059DA3EB09054B46B8BF00237EE7D7
:10536800079F059D0A9E83E7079AABE70023D4E7CA
:10537800009BD2E7002307933B6907EB8303186977
:1053880000F04DFAC0F12000404410F01F0047D053
:10539800C0F12003042B3BDD059BC0F11C00034436
:1053A800059305448044059B002B05DD1A460499A6
:1053B800204600F06FFB0490B8F1000F05DD394678
:1053C8004246204600F066FB07460F9B53B339461A
:1053D800049800F0B3FB002824DA00230A22049979
:1053E800204600F0E1F90A9B04900AF1FF3A002BED
:1053F80000F04D81002331460A22204600F0D4F9FE
:10540800029B002B06464FDC069B022B4CDD11E06D
:10541800C9D0059A1C331A4405921D449844C2E722
:105428000346F6E7B9F1000F38DC069B022B35DDA1
:10543800CDF80890029B63B939460522204600F052
:10544800B3F901460746049800F078FB00283FF7B7
:10545800CCAD0B9B5D466FEA030A4FF00009394655
:10546800204600F08AF9002E3FF4B7AEB9F1000FDC
:1054780005D0B14503D04946204600F07EF93146B3
:10548800204600F07AF9A8E600273E46E1E7DDF875
:1054980020A03E46A9E500BF000024400A9BCDF8A5
:1054A8000890002B00F0FA80002D05DD31462A46D1
:1054B800204600F0EFFA0646079B002B4CD0716897
:1054C800204600F026F9326902320546920006F1BC
:1054D8000C010C3000F012F901222946204600F098
:1054E800D9FA009BCDF814B003F00103B146079335
:1054F800064639460498FFF7A4FA4946054600F1DE
:105508003008049800F01AFB3246009039462046CD
:1055180000F02EFBC368024603BB014608900498BE
:1055280000F00CFB089A034611462046089300F049
:1055380024F9089BA3B9069A92B9079A82B9B8F1D7
:10554800390F29D0009B002B01DD05F13108059B9F
:105558005D1C83F8008082E73046C2E70123E3E759
:10556800009A002A04DB25D1069A1ABB079A0ABBBF
:10557800002BECDD01220499204600F08BFA394615
:10558800049000F0DBFA002803DCE0D118F0010FEA
:10559800DDD0B8F1390FD8D1059B059A5D1C3923A8
:1055A800137015F8013C392B05F1FF324FD0013348
:1055B800137054E7059A002B02F1010506DDB8F1D6
:1055C800390FE9D008F10108059BC2E7029A05F8EE
:1055D800018CA5EB0B03934221D000230A220499E6
:1055E800204600F0E1F8B14504904FF000034FF079
:1055F8000A024946204605D100F0D6F881460646FB
:10560800059576E700F0D0F83146814600230A2256
:10561800204600F0C9F80646F2E74FF000090122DB
:105628000499204600F036FA3946049000F086FACC
:105638000028B6DC02D118F0010FB2D115F8013CF0
:10564800302B05F1FF327FF40AAF1546F6E7934594
:1056580005D131230AF1010A8BF80030FFE615461F
:105668009FE7DFF864B007E0219BDFF860B01BB16B
:105678000BF10803219A1360584617B0BDE8F08F64
:10568800069B012B7FF735AE0E9B079349E6029BDD
:10569800002B03DC069B022B3FF7CCAE5D46394658
:1056A8000498FFF7CEF900F1300805F8018B029A4B
:1056B800A5EB0B039A42B0DD00230A220499204689
:1056C80000F072F80490EAE7405E0008425E0008C5
:1056D800044B1B68186A044B002808BF1846F030B2
:1056E800704700BF3000002094000020024B0146A4
:1056F800186800F0F7BA00BF3000002010B5431E4C
:105708000A44914200D110BD11F8014B03F8014F32
:10571800F7E770B5456A04460E463DB91020FFF715
:10572800E5FF6062C0E901550560C560656AEB6820
:1057380083B1636ADB6853F82600B8B9012101FA1E
:1057480006F56A1D9200204600F0BEFA60B1C0E975
:1057580001650EE021220421204600F0B5FA636AB3
:10576800E860DB68002BE4D1002070BD026843F8D4
:1057780026200023C0E90333F7E770B5446A0646DC
:105788000D463CB91020FFF7B1FF7062C0E9014433
:105798000460C4603DB1736A6A68DB6853F822101C
:1057A800296043F8225070BD2DE9F0410D691F466C
:1057B80006460C4601F1140C0023DCF8000081B207
:1057C80002FB01710F0C000C02FB007089B201335F
:1057D80001EB00419D424FEA10474CF8041BECDCFA
:1057E800D7B1A368AB4212DC616830460131FFF7DC
:1057F80090FF2269023204F10C01804692000C30BD
:10580800FFF77CFF21463046FFF7B7FF444604EB1D
:10581800850301355F6125612046BDE8F081020CF2
:1058280012040346B2B90304102013F07F4F04BFDB
:105838001B02083013F0704F04BF1B01043013F033
:10584800404F04BF9B000230002B06DB5B0003D5F2
:10585800013070470020E8E720207047036813F004
:10586800070201460BD0DA0723D4980749BF5B0823
:105878009B0801200B605CBF0B600220704798B248
:10588800A8B91B0C102013F0FF0F04BF1B0A083027
:105898001A0704BF1B0904309A0704BF9B0802308B
:1058A800DA0702D45B0806D001300B607047104657
:1058B800E9E7002070472020704710B50C46012109
:1058C800FFF727FF01224461026110BD2DE9F74F60
:1058D80014460A6923699A42B8BF0B468846BCBF7A
:1058E800A0461C46D8F81070D4F81090D8F80830A4
:1058F800D8F8041007EB0906B342B8BF0131FFF727
:1059080008FF00F1140505EB860E2B4600227345AF
:1059180016D304F1140208F1140102EB890301EB18
:1059280087070093009B019293420CD8002E03DD59
:105938005EF8043D002B5DD0066103B0BDE8F08F32
:1059480043F8042BE3E7B2F800B0BBF1000F23D013
:105958008946AC464FF0000859F8044BDCF800A023
:10596800A3B21FFA8AFA0BFB03A34FEA144ADCF826
:10597800004043444FEA14480BFB0A8404EB1344E9
:10598800E2469BB243EA04434F454FEA14484AF8BB
:10599800043B2BD8CCF80480019BB3F802A0043256
:1059A800BAF1000F20D02B688946A8464FF0000BAB
:1059B800B9F800C0B8F802400AFB0C445C44C4467D
:1059C8009BB243EA04434CF8043B59F8043BB8F84B
:1059D80004B01B0C0AFB03B303EB14434F454FEA17
:1059E800134B05D8C8F8043004359BE7D446B3E711
:1059F800E046DDE7013E99E72DE9F843154612F048
:105A0800030206460F4607D0013A214C002354F8FA
:105A18002220FFF7C9FE0746AD1035D0746A3CB99D
:105A28001020FFF763FE7062C0E901440460C4609F
:105A3800D6F82480D8F808404CB940F27121304695
:105A4800FFF73BFF0023C8F80800044603604FF047
:105A58000008EB070AD5394622463046FFF736FFDD
:105A6800394681463046FFF788FE4F466D100BD009
:105A7800206838B9224621463046FFF727FF2060C4
:105A8800C0F800800446E4E73846BDE8F88300BF64
:105A9800405F00082DE9F0470C464FEA621A236977
:105AA80049680AEB0309A3680746164609F1010588
:105AB800AB4232DB3846FFF72CFE0023804600F16C
:105AC80014011A4653452BDB20692AEAEA7A04F1C5
