:020000040800F2
:10000000B0040020ED0100086B1D0008D51A00089F
:10001000691D000803050008ED210008000000002C
:100020000000000000000000000000000F21000898
:1000300005050008000000006D1D0008592100089A
:10004000070200080702000807020008070200086C
:10005000070200080702000807020008070200085C
:10006000070200080702000807020008070200084C
:10007000070200080702000807020008070200083C
:10008000070200080000000007020008070200083D
:100090000702000807020008070200080905000817
:1000A000070200080702000807020008070200080C
:1000B00007020008CD210008070200080702000817
:1000C000070200080702000807020008711D000867
:1000D00007020008070200080702000807020008DC
:1000E00007020008070200080702000807020008CC
:1000F00007020008070200080702000800000000CD
:1001000000000000070200080000000007020008CD
:1001100007020008000000000702000807020008AC
:10012000070200080702000807020008070200088B
:10013000070200080000000000000000070200089D
:10014000070200080702000800000000000000008D
:10015000000000000000000000000000000000009F
:10016000000000000000000000000000070200087E
:10017000070200080000000000000000000000006E
:10018000000000000702000800000000000000005E
:10019000000000000000000000000000000000005F
:1001A000000000000000000007020008070200082D
:1001B000070200080702000807020008000000000C
:1001C000000000000702000800000000000000001E
:1001D0000702000807020008DFF80CD000F060F901
:1001E0000048004741220008B0040020064880472C
:1001F00006480047FEE7FEE7FEE7FEE7FEE7FEE70C
:10020000FEE7FEE7FEE7FEE7B1210008D90100089E
:10021000D2B201E000F8012B491EFBD27047002248
:10022000F6E710B513460A4604461946FFF7F0FFF5
:10023000204610BD2DE9FE4F81EA030404F000447E
:1002400021F0004100944FF0000B23F0004350EAEE
:1002500001045ED052EA03045BD0C3F30A54C1F335
:100260000A552C44A4F2F3340194A0FB0254C1F3C8
:10027000130141F48011C3F3130343F4801301FB12
:10028000024400FB034E840A970A44EA815447EA79
:100290008357A4FB076802958D0A05FB07854FEA83
:1002A000932C04FB0C542705029D4FEA065847EA9D
:1002B0001637B5EB08056EEB070C870E920E47EA72
:1002C000811742EA8312A7FB0201B6EB0B0164EB34
:1002D00000042B0D43EA0C335E1844EB1C50DA4645
:1002E0005146E7FB0201C5F313044FEA0B3343EA1F
:1002F00014534FEA0432019C43EA0603A4F10C04B0
:100300000294009CCDE900B400F07BF803B0BDE896
:10031000F08F00200146F9E700F0004230F0004085
:100320000AD0C10D01F56071C0F3160042EA015117
:10033000C20840071143704700200146704701F092
:10034000004330B421F0004150EA010206D00A0D0A
:10035000A2F56072C1F31301002A02DC30BC002058
:100360007047440F44EAC104C100E01830BC00EB00
:10037000C250AFF300800029A8BF7047401C49005D
:1003800008BF20F00100704710B4B0FA80FC00FAFA
:100390000CF050EA010404BF10BC704749B1CCF125
:1003A000200421FA04F411FA0CF118BF01212143B1
:1003B0000843A3EB0C01CB1D4FEA00614FEA10206C
:1003C00042BF002010BC704700EBC350104400290E
:1003D000A4BF10BC7047401C490008BF20F00100BA
:1003E00010BC704710B5141E73F1000408DA401CED
:1003F00041F1000192185B411A4301D120F0010044
:1004000010BD2DE9F04D92469B4611B1B1FA81F233
:1004100002E0B0FA80F22032904600F053F8044631
:100420000F4640EA0A0041EA0B0153465A46084388
:1004300013D0114653EA010019D0C8F140025046CA
:1004400000F04FF805460E4650465946424600F029
:1004500039F8084305D0012004E020463946BDE8BC
:10046000F08D0020054346EAE0762C4337430A9896
:100470006305E40AA0EB08000022FD0A44EA4754A1
:100480000A3002D500200146E9E70105101969414B
:10049000DDE9084500196941BDE8F04DA2E700001B
:1004A000064C074D06E0E06840F0010394E80700C1
:1004B00098471034AC42F6D3FFF792FEA823000809
:1004C000C8230008202A04DB203A00FA02F10020A9
:1004D00070479140C2F1200320FA03F31943904082
:1004E0007047202A04DB203A21FA02F000217047ED
:1004F00021FA02F3D040C2F120029140084319468C
:100500007047FEE77047000010B5054C2020A0475B
:100510004020A04780202146BDE81040084700BF8A
:10052000B508000870470000C4489C49027F032AB0
:1005300003D0022A11D0012A1BD10B6802F0FE025F
:10054000022A43F400630B600B6823F400630B6022
:100550000B6843F400730B600BD10A6842F48052BD
:100560000A600A6822F480520A600A6842F48062D3
:100570000A60002101777047C007B14803D00168C5
:1005800041F004010160016841F48031016070476D
:10059000AB49C0B20A6822F4FC7242EAC0000860AB
:1005A000086840F002000860086840F48030086085
:1005B000704700BF10B5A24A136843F4802313604C
:1005C000EFF31082EFF3108372B6402310C9013BA2
:1005D00010C01C06FAD182F3108810BD70B5114E00
:1005E000044600F03FFA05463068C00306D500F027
:1005F00039FA401BA042F7D9032070BD30684CF295
:10060000FA31084006D08D494A6802434A6030609A
:10061000012070BD3068C0071CBF01203060002081
:1006200070BD00BF10200240B0B590F8251002291F
:100630002BD10168D0E91032846C0D6825F00E05CD
:100640000D600D6825F001050D60216821F48071B1
:10065000216002F01F01012202FA01F15960D0E984
:1006600013134B60416D31B10B6823F480730B6041
:10067000D0E916134B60002180F8241080F8252063
:10068000826B52B19047002107E00421C163002131
:1006900080F82410012180F825100846B0BD000024
:1006A000B0B5044600F0DEF90546F448611C406828
:1006B00018BF044400F0D6F9401BA042FAD3B0BDE5
:1006C0002DE9F843DFF87491054699F800000128F8
:1006D00001D102265EE00120884689F800004FF42F
:1006E0007A70FFF77BFF0646002850D100202B4C84
:1006F000C9F8040021682068890503D440050FD497
:10070000002012E020F4007020602068400551BFF6
:100710000120206820F48060206048BF032004E0AE
:10072000206820F480602060022089F81C0028687E
:1007300001280CD16868FFF71FFF4FF47A70FFF7AC
:100740004DFF0646606920F0040060611DE04FF037
:10075000FF30C8F80000A8680746E96808448742E7
:100760000FD23846FFF714FF4FF47A70FFF736FFC9
:100770000646606920F4FD70606126B9A8680137FB
:10078000EBE7002601E0C8F80070FFF7CDFE00207F
:1007900089F800003046BDE8F88300BF0020024021
:1007A0002748016841F0004101600068C043C00F64
:1007B000704700BF2DE9F041DFF88080064698F8C9
:1007C0000000012804BF0220BDE8F08101201F467F
:1007D00015460C4688F800004FF47A70FFF7FEFECD
:1007E00038BB0020C8F8040086B1701E012808D864
:1007F00020462946FFF7DEFE022E02D16FF4802448
:100800000FE04FF47A70FFF7E9FE12E00C48016840
:1008100041F0010101602560BFF36F8F67606FF0E9
:1008200001044FF47A70FFF7D9FE05490A682240A7
:100830000A60002188F80010BDE8F0811000002057
:10084000142002400648C168B1F1FF3FC4BF002038
:1008500070470449016004490160C068C00F7047D7
:100860000820024023016745AB89EFCD80B5802881
:100870000CD0402813D0202819D16E48012100F057
:10088000E3F80B4801680131016080BD69484FF40D
:100890008071A0F58050BDE8804000F0D5B8654873
:1008A000022100F0D1F8024841680131416080BD69
:1008B0003000002003490A68024208BF7047086000
:1008C000FFF7D4BF140401402DE9F84F594A4FF007
:1008D00006094FF0000B4FF0010A4FF0000C904258
:1008E00000F1384208BF4FF005094FEAB223052B4B
:1008F00038BF4FEAB22900220D6835FA02F408BF6A
:10090000BDE8F88F0AFA02F415EA040800F08580C1
:100910004F68122F00F287800AFA07F515F0061FBC
:1009200000F081800323D0F808E0CE6803FA0CF5CC
:100930002EEA050306FA0CF66FEA050E550033435E
:1009400083603B094668934026EA040423434360DE
:10095000C3688E6803EA0E03AE403343C36047F0BA
:100960001003122B11D10BF01C030F2404FA03F611
:100970006FF0030404EA520707443C6AB4430E696B
:1009800006FA03F323433B624F68036807F003044E
:10099000AC4003EA0E0323430360FB003DD5284C23
:1009A000254F22F0030523683D4443F001032360F3
:1009B00023680F2403F0010300930BF00C03009E47
:1009C0009C4009FA03F31F4EB646AE5926EA0404CA
:1009D000234345F80E303B684D6843EA0804EE03B4
:1009E00058BF23EA08043C60AE037B6843EA08046E
:1009F00058BF23EA08047C60EE02BB680F4E43EA4E
:100A0000080458BF23EA0804BC60AD02336843EA17
:100A1000080458BF23EA080434600BF1040B0CF1FE
:100A2000020C013268E70323654603FA0CF46FEA0F
:100A3000040E8DE700140048000401400C0401403E
:100A40006010024008FCFFFF426928230A4208BFE9
:100A50001823C15070471823002A08BF2823C1500B
:100A60007047000006480068704700BF1C480449F2
:100A700040680A6810440860704700BF000000200A
:100A8000AC00002080B5032000F076F8002000F0D4
:100A900007F808B1012080BD00F024F8002080BDD7
:100AA00070B50F4E04467068B0B14FF47A71B1FB67
:100AB000F0F0DE490968B1FBF0F000F0F7FF012526
:100AC0000F2C0AD848B94FF0FF30214600220025EC
:100AD00000F036F8346000E00125284670BD00BF04
:100AE0000000002082B00D48816841F00101816062
:100AF000816801F0010101910199016841F0805183
:100B00000160006800F0805000900098044801687F
:100B100041F48041016002B0704700BF58100240AC
:100B200008700040002808D400F01F01012240098D
:100B300002FA01F1014A42F82010704700E100E09A
:100B400070B5134B4FF0FF351B68C3F30223DC1E57
:100B500083F0070338BF0024042B28BF042305FAC1
:100B600004F605FA03F3B2439943A1401143BDE8EB
:100B7000704001F03DBB00BF05494FF6FF030A6816
:100B80001A4060F30A22034810430860704700BF10
:100B90000CED00E00000FA0530B32A49B0F5007F03
:100BA0000A6849D1D1F8800040F48070C1F8800013
:100BB00002F4C060B0F5806F42D10868012262F390
:100BC0004A20322208609948006850431E4AB0FB10
:100BD000F2F00130421E4B69824203D213F480606E
:100BE0001046F7D1486922E016480168D0F8802005
:100BF00001F4C06122F48072B1F5806FC0F88020EA
:100C00001ED10168012262F34A2132220160874924
:100C1000096851430C4AB1FBF2F101314A1E4369A4
:100C20008A4203D213F480611146F7D1406940052E
:100C300044BF0320704703E0022060F34A220A60A9
:100C4000002070470070004040420F002DE9F0473F
:100C5000002854D0724B04460D46186800F00F006F
:100C6000884209D2186820F00F00284318601868DD
:100C700000F00F00A84242D12068854E9A46C10775
:100C8000B14602D14FF000086BE06168032930D112
:100C900056F8081C890132D5716872687368B446C9
:100CA00076680227C6F3416601F0030107EB4606AA
:100CB000784F032904BF41F20027C0F27A07C2F33C
:100CC0000311C3F306220131B7FBF1F15143554A39
:100CD000B1FBF6F1914224D9DCF80010664611F020
:100CE000F00F16D0800701D5A06890B14FF0000832
:100CF0001AE056F8080C022904D1800304D401201C
:100D0000BDE8F0874005FAD500F094F845498842DF
:100D1000ECD9306808214FF0800861F3071030608B
:100D200002E04FF0000866466068316821F0030178
:100D300008433060FFF796FE064641F28837494681
:100D40006068D9F8001001F00C01B1EB800F05D0FC
:100D5000FFF788FE801BB842F1D939E020684E4683
:100D60005346810706D4B8F1800F16D1316821F0BF
:100D7000F00111E0410703D5316841F4E0613160D1
:100D8000010704D53168072262F30D213160A168A3
:100D9000326822F0F00211433160196801F00F014E
:100DA000A9421AD9186820F00F0028431860FFF7ED
:100DB00059FE064641F288375046DAF8000000F046
:100DC0000F00A84207D0FFF74DFE801BB842F3D9B1
:100DD0000320BDE8F08720684E46410705D5E1684D
:100DE000326822F4E06211433160000706D52069C1
:100DF000316821F4605141EAC000306000F01AF817
:100E00003168094AC1F30311515C01F01F01C84068
:100E10000649086006480068BDE8F047FFF740BE95
:100E20000020024000B4C4049623000808000020FB
:100E3000000000201649174A086800F00C0004283A
:100E4000104624D0086800F00C031348082B1ED06D
:100E50000B6803F00C030C2B1CBF002070474B6881
:100E600003F00303032B08BF02464868C0F30310D6
:100E70000130B2FBF0F04A68C2F3062249685043E1
:100E80000222C1F3416102EB4101B0FBF1F0704776
:100E9000081002400024F40000127A002DE9FC4101
:100EA000002800F0EE8004460078E44EC00752D1DE
:100EB000207880077CD42078000700F19F8020787C
:100EC000400700F1BC802078800600F1DD80E069F9
:100ED00000283ED0B16801F00C010C2940F04A8195
:100EE000012800F0CE80216AF06800F003028A42F7
:100EF00040F0C780616A6FF00F0202EB011100F051
:100F0000F0028A4240F0BD80A16A00F4FE42B2EBDA
:100F1000012F40F0B680E16A00F07842B2EBC16F79
:100F200040F0AF80216BC64A02EA015100F4C002D2
:100F3000A1F500118A4240F0A480616B4FF07E421F
:100F400000F0C06002EA016101F17E41884240F098
:100F500098800020CAE1B168F06801F00C0108290E
:100F600064D0032281F00C0122EA00000844B0FAA8
:100F700080F040095AD16768B7F5803F07D03068E4
:100F8000B7F5A02F40F0118140F480203060306828
:100F900040F480303060FFF765FD0546306880031F
:100FA0003FF586AFFFF75EFD401B6428F6D9CDE024
:100FB000B068F16800F00C0004284FD001F0030184
:100FC00080F00C0081F002010844B0FA80F0400982
:100FD00044D13068E168002900F0BB8040F48070A3
:100FE0003060FFF73FFD05463068400500F1D580D1
:100FF000FFF738FD401B0228F6D9A7E0D6F8940089
:101000006169002900F0918040F00100C6F8940069
:10101000FFF728FD0546D6F8940080073FF54FAF4F
:10102000FFF720FD401B0228F5D98FE030688003D0
:101030007FF53EAF606800287FF43AAF21E0B06DE5
:10104000C0003AD4B06D4FF0010840F08050B06558
:10105000B06D00F080500190019830E0306840059C
:1010600001D5E06868B12069716821F0FE4141EA6C
:10107000006070609E480068FFF712FD00283FF492
:101080001AAF0120BDE8FC81D6F89800A1690029BB
:1010900000F0A48040F00100C6F89800FFF7E2FCE1
:1010A0000546D6F8980080073FF511AFFFF7DAFC48
:1010B000411B03200229F4D918E14FF000088D4F9D
:1010C0003868C0050FD4386840F480703860FFF786
:1010D000C9FC05463868C00505D4FFF7C3FC401BB2
:1010E0000228F7D932E0A768012F08D0D6F890007F
:1010F000052F40F0868040F00400C6F89000D6F836
:10110000900040F00100C6F89000FFF7ABFC0546E8
:1011100041F28837D6F89000800700F19380FFF7FE
:10112000A1FC401BB842F5D910E020F00100C6F840
:101130009400FFF797FC0546D6F8940080077FF5EA
:10114000BEAEFFF78FFC401B0228F5D90320BDE897
:10115000FC8120F480703060FFF784FC0546306825
:1011600040057FF5A8AEFFF77DFC411B0320022957
:10117000F5D9BBE03168022821F0807131606AD175
:10118000FFF770FC0546306880017AD5FFF76AFCEE
:10119000411B03200229F6D9A8E02069716821F0DB
:1011A000FE4141EA0060706085E620F480303060E6
:1011B000306820F480203060FFF754FC0546002F93
:1011C0007FF4ECAE06E0FFF74DFC411B03206429E1
:1011D00000F28C8030688003F5D469E620F00100CD
:1011E000C6F89800FFF73EFC0546D6F89800800741
:1011F0007FF56DAEFFF736FC411B03200229F4D9C1
:1012000074E020F00100C6F89000D6F8900020F0BD
:101210000400C6F89000FFF725FC0546002F7FF478
:1012200077AF41F28837D6F8900080070AD5FFF7EC
:1012300019FC411B0320B942F5D957E000100240C8
:101240000000E0FFB8F1000F3FF43DAEB06D20F0BC
:101250008050B06537E6F068274920F00300F06061
:10126000F0680840F060FFF7FDFB0446306880013D
:101270007FF56FAEFFF7F6FB011B03200229F5D9BE
:1012800034E004F120036FF00F051C4F0FCB05EB8A
:101290000111F5683D4028430843216B40EA0220D4
:1012A000174A02EA01514FF07E42A1F500110843AE
:1012B000616B40EAC36002EA016101F17E410843CB
:1012C000F060306840F080703060F06840F080700E
:1012D000F060FFF7C7FB0446306880013FF539AE88
:1012E000FFF7C0FB011B03200229F5D9BDE8FC81F3
:1012F0000000002000700040FFFFEEFE0C809F0108
:101300000000E0FF704700001CB50446006841681B
:1013100082684B0605D502F04103012B01D1E16C37
:1013200005E00B0607D512F0020304D0216D20461C
:10133000BDE81C4008478B0610D512F4B0730DD0E1
:1013400012F0400316D094F85D30032B07D1002132
:101350000191C16801918068019001981CBD236EC4
:1013600043F00403236600230193C3680193836859
:101370000193019B02F4807312F020020CD0226EC4
:1013800042F0010222660022019282680192026804
:1013900022F040020260019A43B1226E42F008023C
:1013A00022660022019282680192019A226E002A2E
:1013B000D4D04268890722F0E00242604FF0010277
:1013C00084F85D201CD0416821F003014160A06DCC
:1013D00040B10E498163FFF727F918B1206E40F044
:1013E00040002066606D0028B8D008498163FFF78F
:1013F0001BF90028B2D0206E40F0400020661CBDD2
:101400002046BDE81C40FFF77DBF00BF131F00084A
:1014100000284ED0F8B500250446856290F85D009E
:1014200020B9204684F85C5000F046F8022084F889
:101430005D002068E1680268B1F5E06F22F04002CB
:10144000026041F4006298BF0125B2F5706F1CBFC5
:101450000022A262236B2A032BB90123B1F5E06FAE
:1014600088BF02232363D4E90135D4E9046711431B
:1014700004222B43A56933433B4305F4007602EA7B
:1014800015423343E66911433343266A3343A66A60
:1014900033430360626A1143626B11434160C16967
:1014A00021F40061C16100200121206684F85D10F3
:1014B000F8BD01207047000010B586B0044601A8B1
:1014C0001421FEF7ACFE20681649884228D1164840
:1014D000416941F480514161416901F480510091B9
:1014E0000099016841F00101016001A9006800F064
:1014F00001000090052005900020CDE903000220A6
:101500000290F020019000984FF09040FFF7DCF936
:10151000232000210022FFF713FB2320FFF702FB0B
:1015200006B010BD003001404C1002402DE9F843D8
:10153000044640681D4617460E46B0F5827F03D12B
:10154000A068002800F0808094F85C00012804BFA7
:101550000220BDE8F8834FF0010984F85C90FFF7A2
:1015600081FA804694F85D0001286BD10120002E9D
:1015700000F08480002F00F08180042084F85D005A
:1015800000202066A4F84670E087A4F84470266422
:10159000A087A063C4E913002168D4E902204B6846
:1015A000B0F5E06F43F4805688BF23F48056B2F55F
:1015B000004F4E6003D10A6822F480420A600A6834
:1015C000520603D40A6842F040020A606E1CB0F56D
:1015D000E06F1CD8B4F84600002841D0206881682C
:1015E000C90708D1FFF73EFA002EF3D0A0EB0800A0
:1015F000A842EFD341E0007B216C0870206C0130E1
:101600002064B4F846000138A4F84600E2E7B4F8D4
:10161000460028B320688168C90708D1FFF722FA7D
:10162000002EF4D0A0EB0800A842F0D325E0216CF6
:10163000C06821F8020B2164B4F846000138A4F810
:101640004600E4E7022019E00420314632463B46DA
:1016500084F85D002046009500F092F8BDE8F8831C
:1016600020462946424600F05BFC08B12020206657
:10167000206E002818BF012000E00320002184F81C
:101680005C1084F85D90BDE8F8830000F0B58468D4
:1016900013465CB94268B2F5827F07D1042280F814
:1016A0005D200A46BDE8F04000F094B990F85C2057
:1016B000012A01D1022246E0012280F85C2090F844
:1016C0005D20012A3BD10122D1B3CBB304224FF0DC
:1016D000000C80F85D20C0F860C0A0F84630A0F88B
:1016E0003EC00268C6685768B6F5E06F47F480559B
:1016F00088BF27F480555560A0F84430144BB6F5E8
:10170000E06F0164A0F83CC0C0F838C00F4988BF42
:101710000B46B4F5004FC0E9133C03D1116821F426
:1017200080411160516841F06001516011684906C3
:1017300003D4116841F040011160002200E0022250
:10174000002180F85C101046F0BD00BFCF1F0008DC
:10175000F11F000810B5084900680968884200D0E8
:1017600010BD064C04480C2204F10C01FFF78EFF5B
:101770000120A06010BD00BF480000203000002004
:101780002DE9F843044690F85C00012804BF0220CC
:10179000BDE8F88301201E4615460F4684F85C001C
:1017A000FFF760F994F85D108146012940F08480CC
:1017B0000120002F00F0F980002D00F0F680002EAF
:1017C00000F0F38094F85D004FF0000C04281CBF7B
:1017D000052084F85D00C4F860C0A4F84660E68780
:1017E0002068D4F80CE04368BEF5E06F23F4805124
:1017F0000A4698BF43F48052012E88BF0A464260D1
:101800002564A4F84460A763C4E913CCA6870168E3
:10181000490603D4016841F0400101606168721E0D
:10182000DDF82080BEF5E06FB2FA82F2B1FA81F104
:101830004FEA52124FEA511142EA01024AD932B13B
:1018400037F8021BC160A763E08F0138E0870126EB
:1018500008F10105E08F20B9B4F84600002800F037
:10186000AC802068816889070CD5E18F012E09D1F1
:1018700041B1A16B002631F8022BC260A163E18F58
:101880000139E1878168C9070DD0B4F8461051B11C
:10189000216CC068012621F8020B2164B4F84600CF
:1018A0000138A4F84600FFF7DDF8002DD2D0A0EBF8
:1018B00009004045CED377E06068B0F5827F07D15C
:1018C0000220042971D1A16800293FF471AF6CE0B6
:1018D00002206AE08AB1E28F4FF6FE71022A03D33A
:1018E00037F8022BC26004E03A7801310273A06B32
:1018F000471CA763E08F0844E087012608F1010533
:10190000E08F18B9B4F84600002856D020688168E6
:10191000890718D5E18F012E15D1A1B1A16BE28FF6
:10192000022A06D331F8022BC260A163E18F02398B
:1019300007E009780173A16B20680131A163E18F91
:1019400001390026E1878168C90725D0B4F846101F
:1019500011B3B4F84610022912D3216CC26821F8E1
:10196000022BB4F84620023AA4F846202164B4F8C9
:10197000461001290FD8416841F4805141600AE0C6
:10198000007B216C0870206C01302064B4F84600A4
:101990000138A4F846000126FFF764F8002DAFD007
:1019A000A0EB09004045ABD30320002184F85C1074
:1019B000012184F85D10BDE8F883204641464A467F
:1019C00000F0E4FA18B1202020660120EDE70020A5
:1019D000EBE70000B0B590F85C40012C01D1022487
:1019E00058E0012480F85C4090F85D50012D24D12E
:1019F000012400294BD0002A49D0002B47D090F871
:101A00005D40042C1CBF052480F85D400024046662
:101A1000C38783878163A0F844300264A0F846300E
:101A2000C168B1F5E06F15D91D491E4AC0E91321FF
:101A300001680A4652F8044F16E04468B4F5827F04
:101A400006D10224042D22D18568002DD0D01EE0BD
:101A500002241CE01049114A022BC0E9132101683D
:101A60000A4652F8044F03D324F480534B6002E03B
:101A700044F480531360136843F0E00313600A6872
:101A8000520603D40A6842F040020A600024002192
:101A900080F85C102046B0BD351E0008AB1D000864
:101AA0000B1E00087D1D000870470000411E00202D
:101AB000B0EB116F1CBF01207047044AF023516046
:101AC00003490B70072190601160704710E000E03F
:101AD00023ED00E0FEE700000268B0F1804F0BD07C
:101AE0009E4B984208D0214B984205D0204B9842FB
:101AF00002D0204B984203D14B6822F070021A4367
:101B0000B0F1804F14D0954B984211D0174B9842AA
:101B10000ED0184B98420BD0154B984208D0164B5C
:101B2000984205D0154B984202D0154B984203D1EC
:101B3000CB6822F440721A4302608A68C2620A8843
:101B40008262104A02444FEAB222072A07D80123D0
:101B500003FA02F212F0E50F1CBF09690163416943
:101B600041F0010141610020704700BF00080040C2
:101B700000340140002C0140004001400048014079
:101B80000044014000D4FEBF2DE9F04F87B000278C
:101B90003E483F4C00224FF003090697016804F5C8
:101BA000805641F020010160016801F0200101919F
:101BB0000199016841F040010160016801F04001B4
:101BC00001910199016841F001010160016801F092
:101BD000010101910199016841F0020101600321B5
:101BE000006800F00200019001983046FEF733FFD4
:101BF000204640F20111002240F2011AA346FEF7EE
:101C00002AFF02AD234C4FF001083046CDE904779E
:101C10002946CDE90298A0474FF48060CDE90397AB
:101C2000294602900BF5A050A04749F60F70CDE968
:101C30000397294602904FF09040A0475846294606
:101C4000CDE90477CDE902A8A0471020CDE903979C
:101C5000294602905846A0470F4E60202946049717
:101C6000029058460396A0478020CDE90368294694
:101C700002905846A047172000210022FEF760FF7F
:101C80001720FEF74FFF07B0BDE8F08F4C10024061
:101C900000040048C90800080000111080B536484B
:101CA000002107220B4BC0E90811C0E90A124FF4CA
:101CB000E062C0E90C11C0E90031C0E90212C0E9DC
:101CC00004118161FFF7A4FB18B1BDE88040FEF765
:101CD00029BC80BD00300140B0B586B06C461421EF
:101CE0002046FEF79CFA19484FF000521B4D016840
:101CF00041F0020101600021006800F0020005903F
:101D000005981348006813480170134802602C209E
:101D10000391CDE9011044F29F102146ADF8000077
:101D20002846FFF7D9FE28680D4920F0800028607A
:101D3000A86808400B49A8606868084020306860BF
:101D4000A86820F08000A86006B0B0BD581002401E
:101D50000CED00E01DE400E000E100E000040040C4
:101D6000F8BFFEFF8FFFFFFDFEE7704770470000E2
:101D70000148FFF7C9BA00BF480000200168026CA3
:101D8000CB6822F8023BB0F84630013BA0F8463061
:101D90000264B0F846202AB94A6822F040024A603C
:101DA000C18F01B1704700F069B80168B0F84620F2
:101DB000022A12D3026CCB6822F8023BB0F84630FC
:101DC000023BA0F846300264B0F84620012A0FD149
:101DD0004A6842F480524A600AE0097B026C117042
:101DE000016C01310164B0F846100139A0F84610C9
:101DF000B0F8461031B901684A6822F060024A60C2
:101E0000C18F01B1704700F039B8826B016832F8B8
:101E1000023BCB60C38F013BC3878263C28F32B961
:101E20004A6822F080024A60B0F8461001B170475B
:101E300000F024B810B5816BC38F4FF6FE72022BF1
:101E4000036827BF31F8024BDC60097819733EBF85
:101E50000132816B0131C38F1A44C2878163C18F04
:101E600039B901684A6822F080024A60B0F8461029
:101E700001B110BDBDE81040AFF3008010B50446BD
:101E8000FEF7F0FD02462068416821F02001416024
:101E90002046642100F07AF818B1206E40F020004E
:101EA0002066206E38B1012084F85D002046BDE830
:101EB0001040FFF727BA94F85D00012184F85D1007
:101EC00004282046BDE8104008BFFFF743BCFFF7D9
:101ED000EBBD10B504460068416821F06001416027
:101EE000FEF7C0FD02462046642100F019F818B143
:101EF000206E40F020002066012084F85D00206EF6
:101F000000282046BDE8104018BFFFF7FBB9FFF7D7
:101F100021BC806A0021A0F84610C187FFF7F2B902
:101F200070B50446406815460E46B0F5827F0BD169
:101F3000A068B0F5004F02D0B0F5806F04D12068E2
:101F4000016821F040010160204631462A4600F038
:101F5000A4F828B1206E40F020002066032070BD58
:101F60006068B0F5827F0FD1A068B0F5004F02D055
:101F7000B0F5806F08D120464FF4C06132462B4641
:101F800000F048F80028E5D1002070BD70B5154676
:101F90000E464FF4C051044632462B4600F03AF844
:101FA00068B9204631462A4600F077F838B920460D
:101FB0004FF4C06132462B4600F02CF828B1206E59
:101FC00040F020002066032070BD002070BD016835
:101FD000026CC96822F8021BB0F846100139A0F85B
:101FE00046100264B0F8461001B17047FFF771BFA8
:101FF0000168097B026C1170B0F846100139A0F835
:102000004610016C01310164B0F8461001B170470F
:10201000FFF75FBF2DE9F041984616460F4604468C
:10202000551C20688168394234D0B7F5C06F08BFAD
:10203000007B002DF5D0FEF715FDA0EB0800B042A7
:10204000EFD3D4E900014268B1F5827F22F0E002CB
:1020500042600AD1A168B1F5004F02D0B1F5806F9E
:1020600003D1016821F040010160A16AB1F5005F70
:1020700007D1016821F400510160016841F4005169
:102080000160002084F85C00012084F85D000320DA
:10209000BDE8F0810020BDE8F081F8B515460E4698
:1020A00004464F1C2068806800062ED5002FF9D00A
:1020B000FEF7D8FC401BB042F4D3D4E900014268DB
:1020C000B1F5827F22F0E00242600AD1A168B1F549
:1020D000004F02D0B1F5806F03D1016821F04001BB
:1020E0000160A16AB1F5005F07D1016821F40051D8
:1020F0000160016841F400510160002084F85C0037
:10210000012084F85D000320F8BD0020F8BD704771
:1021100070B586B00446FEF795FB01203F210026EE
:102120000590CDE9030102A801A90296FEF7C8FABD
:102130008B4DF6B2192E0BD206F0F80046EA0501D7
:102140002258204443680020FEF734FB0836F0E7AD
:10215000FEF726FB06B070BDFEF788BCB0B594B0A4
:1021600006AC1821201DFEF75AF800200025FEF7C6
:1021700013FD02202A211390CDE91100CDE90F01B2
:102180004021CDE90D00069020460A914FF4807160
:102190000991FEF783FE03200595CDE9035508213B
:1021A00002900F20019001A8FEF750FD14B0B0BDC1
:1021B0000548D0F8801041F47001C0F880104FF04D
:1021C00000610160704700BF08ED00E010B5664C8B
:1021D00001210022206820F00100206004F100604D
:1021E000FEF739FC6FF00100206110BDFEE7000032
:1021F00010B5074C00F00F03044AB0F1FF3F234431
:10220000C8BF83180801187010BD00BF00E400E0CB
:1022100014ED00E00000000080B510EE100AFEF79B
:102220007BF89FED050B53EC102BFEF703F8FEF740
:1022300086F800EE100A80BD6F1283C0CA211940D3
:1022400082B0474A44484549464F126800680968C9
:102250003D4645F80C2FC5E90101FEF713FCFFF7D9
:102260007DFFFFF791FCFFF737FDFFF717FD3E49B4
:102270003E4C0C22C8688A4640F00100C8602046E7
:102280002946FFF703FA6420FEF70AFA95ED000AE3
:1022900095ED028AFFF7C0FF88EE000A95ED011A5E
:1022A000DFF8CCB0334E07F10C0507F1100007F151
:1022B00014094FF000080AF1006AB8EEC11A20EEC6
:1022C000010ABDEEC00A01908BED000A20462946A6
:1022D0000C22FFF7DBF9B868012828D120462946EF
:1022E00004224FF47A73B0470199204604224FF438
:1022F0007A73B0472046494604224FF47A73B047B8
:1023000097ED030A97ED058AFFF786FF88EE000A2E
:1023100097ED041AC7F808802846B8EEC11A20EED7
:10232000010ABDEEC00A8BED000AFFF7F1FEDBF8F3
:10233000000039688142C9DB504601210122C7E90A
:102340000088FEF788FB08496FF001000861086803
:1023500040F001000860B9E704F8010808F8010836
:1023600000F8010830000020000400404800002070
:102370000C0000202D15000802E008C8121F08C13B
:10238000002AFAD170477047002001E001C1121FF6
:10239000002AFBD17047000000000000000001028D
:1023A0000304060708090000C823000800000020F5
:1023B0003000000078230008F823000830000020D7
:1023C00080040000882300081000000001000000C5
:1023D0000024F400FFFFFFFF0000000000000000E9
:1023E00000000000000000000100000000000000EC
:0823F0000000000000000000E5
:04000005080001D915
:00000001FF
