:020000040800F2
:10000000008000208D190008DD140008EB140008A2
:10001000F1140008F7140008FD14000800000000A7
:1000200000000000000000000000000003150008B0
:1000300011150008000000001F1500082D1500080C
:10004000DD190008DD190008DD190008DD190008B8
:10005000DD190008DD190008DD190008DD190008A8
:10006000DD190008DD190008DD190008DD19000898
:10007000DD190008DD190008DD190008DD19000888
:10008000DD19000800000000DD190008DD19000876
:1000900039150008DD190008DD1900084D150008A4
:1000A000DD190008DD190008DD190008DD19000858
:1000B000DD19000869150008DD190008DD190008C0
:1000C000DD190008DD190008DD190008DD19000838
:1000D000DD190008DD190008DD190008DD19000828
:1000E000DD190008DD190008DD190008DD19000818
:1000F000DD190008DD190008DD1900080000000006
:1001000000000000DD19000800000000DD190008F3
:10011000DD19000800000000DD190008DD190008E5
:10012000DD190008DD190008DD190008DD190008D7
:10013000DD1900080000000000000000DD190008C3
:10014000DD190008DD1900080000000000000000B3
:10015000000000000000000000000000000000009F
:10016000000000000000000000000000DD19000891
:10017000DD19000800000000000000000000000081
:1001800000000000DD190008000000000000000071
:10019000000000000000000000000000000000005F
:1001A0000000000000000000DD190008DD19000853
:1001B000DD190008DD190008DD1900080000000045
:1001C00000000000DD190008000000000000000031
:0801D000DD190008DD1900082B
:1001E00010B5054C237833B9044B13B10448AFF371
:1001F00000800123237010BD58040020000000007F
:10020000D0DD000808B5034B1BB103490348AFF329
:10021000008008BD000000005C040020D0DD000864
:10022000034613F8012B002AFBD1181A0138704736
:1002300001F0FF01102A2BDB10F0070F08D010F897
:10024000013B013A8B422DD010F0070F42B3F6D19B
:10025000F0B441EA012141EA014122F007047FF0B4
:1002600000070023F0E80256083C85EA010586EA0B
:10027000010685FA47F5A3FA87F586FA47F6A5FA47
:1002800087F68EB9EED1F0BC01F0FF0102F0070253
:1002900032B110F8013B013A83EA010313B1F8D1FE
:1002A0000020704701387047002D06BF35460338DF
:1002B000073815F0010F07D1013015F4807F02BF18
:1002C000013015F4C03F0130F0BC0138704700BF69
:1002D00081F0004102E000BF83F0004330B54FEAF7
:1002E00041044FEA430594EA050F08BF90EA020F64
:1002F0001FBF54EA000C55EA020C7FEA645C7FEAF7
:10030000655C00F0E2804FEA5454D4EB5555B8BF19
:100310006D420CDD2C4480EA020281EA030382EA8A
:10032000000083EA010180EA020281EA0303362D1C
:1003300088BF30BD11F0004F4FEA01314FF4801CEF
:100340004CEA113102D0404261EB410113F0004F01
:100350004FEA03334CEA133302D0524263EB4303B8
:1003600094EA050F00F0A780A4F10104D5F1200E56
:100370000DDB02FA0EFC22FA05F2801841F10001B1
:1003800003FA0EF2801843FA05F359410EE0A5F185
:1003900020050EF1200E012A03FA0EFC28BF4CF0B6
:1003A000020C43FA05F3C01851EBE37101F000456C
:1003B00007D54FF0000EDCF1000C7EEB00006EEB79
:1003C0000101B1F5801F1BD3B1F5001F0CD3490803
:1003D0005FEA30004FEA3C0C04F101044FEA44525A
:1003E00012F5800F80F09A80BCF1004F08BF5FEAE1
:1003F000500C50F1000041EB045141EA050130BDC1
:100400005FEA4C0C404141EB0101013C28BFB1F5D2
:10041000801FE9D291F0000F04BF01460020B1FA1D
:1004200081F308BF2033A3F10B03B3F120020CDAF0
:100430000C3208DD02F1140CC2F10C0201FA0CF0CE
:1004400021FA02F10CE002F11402D8BFC2F1200C33
:1004500001FA02F120FA0CFCDCBF41EA0C019040E9
:10046000E41AA2BF01EB0451294330BD6FEA040432
:100470001F3C1CDA0C340EDC04F11404C4F120021D
:1004800020FA04F001FA02F340EA030021FA04F32F
:1004900045EA030130BDC4F10C04C4F1200220FA86
:1004A00002F001FA04F340EA0300294630BD21FAC4
:1004B00004F0294630BD94F0000F83F4801306BF8A
:1004C00081F480110134013D4EE77FEA645C18BF7E
:1004D0007FEA655C29D094EA050F08BF90EA020F15
:1004E00005D054EA000C04BF1946104630BD91EA0D
:1004F000030F1EBF0021002030BD5FEA545C05D110
:100500004000494128BF41F0004130BD14F580044E
:100510003CBF01F5801130BD01F0004545F0FE41C2
:1005200041F470014FF0000030BD7FEA645C1ABFF7
:10053000194610467FEA655C1CBF0B46024650EA2E
:10054000013406BF52EA033591EA030F41F400215A
:1005500030BD00BF90F0000F04BF0021704730B5E0
:100560004FF4806404F132044FF000054FF00001B5
:1005700050E700BF90F0000F04BF0021704730B576
:100580004FF4806404F1320410F0004548BF40424B
:100590004FF000013EE700BF42004FEAE2014FEAA0
:1005A00031014FEA02701FBF12F07F4393F07F4F7B
:1005B00081F06051704732F07F4208BF704793F07E
:1005C0007F4F04BF41F40021704730B54FF4607491
:1005D00001F0004521F000411CE700BF50EA010294
:1005E00008BF704730B54FF000050AE050EA01023D
:1005F00008BF704730B511F0004502D5404261EBAD
:1006000041014FF4806404F132045FEA915C3FF4ED
:10061000D8AE4FF003025FEADC0C18BF03325FEA8A
:10062000DC0C18BF033202EBDC02C2F1200300FA3B
:1006300003FC20FA02F001FA03FE40EA0E0021FA60
:1006400002F11444BDE600BF70B54FF0FF0C4CF44E
:10065000E06C1CEA11541DBF1CEA135594EA0C0F00
:1006600095EA0C0F00F0DEF82C4481EA030621EA3B
:100670004C5123EA4C5350EA013518BF52EA033576
:1006800041F4801143F4801338D0A0FB02CE4FF028
:100690000005E1FB02E506F00042E0FB03E54FF058
:1006A0000006E1FB03569CF0000F18BF4EF0010E50
:1006B000A4F1FF04B6F5007F64F5407404D25FEA4C
:1006C0004E0E6D4146EB060642EAC62141EA5551FF
:1006D0004FEAC52040EA5E504FEACE2EB4F1FD0C41
:1006E00088BFBCF5E06F1ED8BEF1004F08BF5FEABF
:1006F000500E50F1000041EB045170BD06F0004671
:1007000046EA010140EA020081EA0301B4EB5C041D
:10071000C2BFD4EB0C0541EA045170BD41F4801115
:100720004FF0000E013C00F3AB8014F1360FDEBF3A
:10073000002001F0004170BDC4F10004203C35DA16
:100740000C341BDC04F11404C4F1200500FA05F399
:1007500020FA04F001FA05F240EA020001F000423A
:1007600021F0004110EBD37021FA04F642EB0601B0
:100770005EEA430E08BF20EAD37070BDC4F10C04DA
:10078000C4F1200500FA04F320FA05F001FA04F29E
:1007900040EA020001F0004110EBD37041F100018A
:1007A0005EEA430E08BF20EAD37070BDC4F1200595
:1007B00000FA05F24EEA020E20FA04F301FA05F2FD
:1007C00043EA020321FA04F001F0004121FA04F2A5
:1007D00020EA020000EBD3705EEA430E08BF20EA75
:1007E000D37070BD94F0000F0FD101F000464000AF
:1007F00041EB010111F4801F08BF013CF7D041EA31
:10080000060195F0000F18BF704703F00046520034
:1008100043EB030313F4801F08BF013DF7D043EA05
:100820000603704794EA0C0F0CEA135518BF95EABB
:100830000C0F0CD050EA410618BF52EA4306D1D142
:1008400081EA030101F000414FF0000070BD50EA61
:10085000410606BF1046194652EA430619D094EAEB
:100860000C0F02D150EA013613D195EA0C0F05D1D5
:1008700052EA03361CBF104619460AD181EA030129
:1008800001F0004141F0FE4141F470014FF00000E1
:1008900070BD41F0FE4141F4780170BD70B54FF07C
:1008A000FF0C4CF4E06C1CEA11541DBF1CEA1355FC
:1008B00094EA0C0F95EA0C0F00F0A7F8A4EB0504DE
:1008C00081EA030E52EA03354FEA013100F08880D5
:1008D0004FEA03334FF0805545EA131343EA12639E
:1008E0004FEA022245EA111545EA10654FEA002653
:1008F0000EF000419D4208BF964244F1FD0404F50C
:10090000407402D25B084FEA3202B61A65EB030567
:100910005B084FEA32024FF480104FF4002CB6EB24
:10092000020E75EB030E22BFB61A754640EA0C00A4
:100930005B084FEA3202B6EB020E75EB030E22BFE4
:10094000B61A754640EA5C005B084FEA3202B6EB25
:10095000020E75EB030E22BFB61A754640EA9C00E4
:100960005B084FEA3202B6EB020E75EB030E22BFB4
:10097000B61A754640EADC0055EA060E18D04FEA72
:10098000051545EA16754FEA06164FEAC30343EA12
:1009900052734FEAC2025FEA1C1CC0D111F4801FDF
:1009A0000BD141EA00014FF000004FF0004CB6E7D8
:1009B00011F4801F04BF01430020B4F1FD0C88BF77
:1009C000BCF5E06F3FF6AFAEB5EB030C04BFB6EB82
:1009D000020C5FEA500C50F1000041EB045170BD75
:1009E0000EF0004E4EEA113114EB5C04C2BFD4EBA2
:1009F0000C0541EA045170BD41F480114FF0000E26
:100A0000013C90E645EA060E8DE60CEA135594EAA1
:100A10000C0F08BF95EA0C0F3FF43BAF94EA0C0FA4
:100A20000AD150EA01347FF434AF95EA0C0F7FF419
:100A300025AF104619462CE795EA0C0F06D152EA6D
:100A400003353FF4FDAE1046194622E750EA410651
:100A500018BF52EA43067FF4C5AE50EA41047FF462
:100A60000DAF52EA43057FF4EBAE12E74FF0FF3CC7
:100A700006E000BF4FF0010C02E000BF4FF0010C98
:100A80004DF804CD4FEA410C7FEA6C5C4FEA430C11
:100A900018BF7FEA6C5C1BD001B050EA410C0CBF60
:100AA00052EA430C91EA030F02BF90EA020F0020C2
:100AB000704710F1000F91EA030F58BF994208BF29
:100AC00090422CBFD8176FEAE37040F001007047E6
:100AD0004FEA410C7FEA6C5C02D150EA013C07D13D
:100AE0004FEA430C7FEA6C5CD6D152EA033CD3D088
:100AF0005DF8040B704700BF8446104662468C4682
:100B00001946634600E000BF01B5FFF7B7FF0028B4
:100B100048BF10F1000F01BD4DF808EDFFF7F4FFDD
:100B20000CBF012000205DF808FB00BF4DF808ED68
:100B3000FFF7EAFF34BF012000205DF808FB00BF8B
:100B40004DF808EDFFF7E0FF94BF012000205DF8AD
:100B500008FB00BF4DF808EDFFF7CEFF94BF012062
:100B600000205DF808FB00BF4DF808EDFFF7C4FF5B
:100B700034BF012000205DF808FB00BF4FEA410CA4
:100B80007FEA6C5C02D150EA013C0AD14FEA430C87
:100B90007FEA6C5C02D152EA033C02D14FF00000C4
:100BA00070474FF0010070474FEA410212F5001202
:100BB00015D211D56FF47873B3EB625212D94FEAA4
:100BC000C12343F0004343EA505311F0004F23FA8E
:100BD00002F018BF404270474FF00000704750EAE3
:100BE000013005D111F0004008BF6FF000407047A0
:100BF0004FF00000704700BF4A0011D212F50012FA
:100C000011D20DD56FF47873B3EB62520ED44FEA64
:100C1000C12343F0004343EA505323FA02F07047E4
:100C20004FF00000704750EA013002D14FF0FF3022
:100C300070474FF0000070474FEA4102B2F1E043C5
:100C400024BFB3F5001CDCF1FE5C0DD901F0004CB3
:100C50004FEAC0024CEA5070B2F1004F40EB830003
:100C600008BF20F00100704711F0804F21D113F12F
:100C70003872BCBF01F00040704741F480114FEA68
:100C80005252C2F11802C2F1200C10FA0CF320FAF1
:100C900002F018BF40F001004FEAC1234FEAD3230E
:100CA00003FA0CFC40EA0C0023FA02F34FEA430378
:100CB000CCE77FEA625307D150EA01331EBF4FF001
:100CC000FE4040F44000704701F0004040F0FE401C
:100CD00040F40000704700BF38B5002200230446EE
:100CE0000D46FFF723FF28B920462946BDE83840C6
:100CF00000F00AB8204605F1004100F005F8404236
:100D000061EB410138BD00BFD0B50C4B0022064657
:100D10000F46FFF799FCFFF76FFF0446FFF71AFC39
:100D2000074B0022FFF790FC02460B46304639463F
:100D3000FFF7D2FAFFF760FF2146D0BD0000F03D7B
:100D40000000F04180B58AB000AF07F11403002223
:100D50001A605A609A60DA601A61514BDB6C504A33
:100D600043F02003D3644E4BDB6C03F020033B6164
:100D70003B694B4BDB6C4A4A43F04003D364484B1E
:100D8000DB6C03F04003FB60FB68454BDB6C444AC3
:100D900043F00103D364424BDB6C03F00103BB60FF
:100DA000BB683F4BDB6C3E4A43F00203D3643C4BD1
:100DB000DB6C03F002037B607B680022032139486F
:100DC00001F098FB002240F20111374801F092FB3C
:100DD00003237B610123BB610023FB6100233B6292
:100DE00007F1140319462F4801F002FA4FF480630B
:100DF0007B610323BB610023FB6107F114031946E8
:100E00002A4801F0F5F948F2FF737B610323BB61C7
:100E10000023FB6107F1140319464FF0904001F0E5
:100E2000E7F940F201137B610123BB610023FB6101
:100E300000233B6207F1140319461B4801F0D8F95F
:100E400010237B610323BB610023FB6107F11403C3
:100E50001946154801F0CCF960237B61144BBB6146
:100E60000023FB6107F1140319460F4801F0C0F994
:100E700080237B610E4BBB610123FB6107F11403EF
:100E80001946094801F0B4F900220021172000F0AA
:100E900014FF172000F02BFF00BF2837BD4680BD90
:100EA00000100240001400480004004800180048E8
:100EB0000000111080B483B000AF78607B681B68BD
:100EC00043F001027B681A6000BF0C37BD465DF835
:100ED000047B704780B483B000AF78607B686FF0AC
:100EE00001021A6100BF0C37BD465DF8047B7047F4
:100EF00080B483B000AF78607B68DB6843F00102A8
:100F00007B68DA6000BF0C37BD465DF8047B704734
:100F100080B582B000AF0346FB80FB88802B22D0D7
:100F2000802B29DC202B02D0402B0ED024E0012185
:100F3000134801F0F7FA134B1B78002B19D0124B12
:100F40001B680133104A136013E002210C4801F0C2
:100F5000E9FA0C4B1B78002B0DD00C4B1B680133AE
:100F60000A4A136007E04FF48071094801F0DAFA89
:100F700002E000BF00E000BF00BF0837BD4680BDF3
:100F8000001400487C040020740400207804002031
:100F9000000400480000000080B582B000AF87ED7B
:100FA000010A7868FFF7F8FA09A3D3E90023FFF7ED
:100FB0004BFB02460B4610461946FFF73DFE034623
:100FC00007EE903AB0EE670A0837BD4680BD00BF15
:100FD0006F1283C0CA21194080B483B000AF87ED7F
:100FE000010AC7ED000A97ED017AD7ED007AC7EE46
:100FF000276AF0EE667AB0EE670A0C37BD465DF8F8
:10100000047B704780B483B000AF87ED010A38607D
:101010003B6807EE903AB8EEE77AD7ED017A67EED3
:10102000277AFDEEE77A17EE903A18460C37BD4660
:101030005DF8047B704790B589B000AF786000F030
:10104000C7FE0023FB6001233B613F237B6101233B
:10105000BB6107F1080207F10C031146184600F0C6
:10106000A3FF7C680023FB7712E0FB7F03F10063A2
:1010700003F5FC331946FB7FDB08DBB2DB002344BE
:10108000D3E90023002000F04DFEFB7F0833FB77FF
:10109000FB7F182BE9D900F0BDFE00BF2437BD4609
:1010A00090BD0000F0B52DED028BB1B006AFA24AA5
:1010B0003B4607CA83E807004FF0FF33C7F8A43068
:1010C00000F08DFC00F05AF9FFF73CFE00F01EFC2A
:1010D00007F006FE9948FFF70BFF642000F0F0FCD4
:1010E00097ED028AD7ED017AB0EE670AFFF754FF59
:1010F000F0EE407AF0EE670AB0EE480AFFF76CFFB8
:10110000F0EE407A3B681846B0EE670AFFF77AFFC8
:10111000C7F8A4008A4B00221A70894B1B78013B48
:10112000042B00F2E38001A252F823F041110008E1
:10113000AB110008111200087B120008D51200083C
:101140001721804807F0C6FF00BF7F4B1B78002B9C
:10115000FBD07D4B00221A707C4808F0E1FB53EC79
:10116000102B10461946FFF767FD03467B6097ED8D
:10117000028AD7ED017AB0EE670AFFF70DFFF0EEB5
:10118000407AF0EE670AB0EE480AFFF725FFF0EE6E
:10119000407A3B681846B0EE670AFFF733FFC7F89E
:1011A000A400674B00221A70A5E01C21684807F0D4
:1011B00091FF00BF644B1B78002BFBD0624B0022D9
:1011C0001A70624808F0AFFB03463B603B68002B97
:1011D00000F0908097ED028AD7ED017AB0EE670AB1
:1011E000FFF7DAFEF0EE407AF0EE670AB0EE480A5A
:1011F000FFF7F2FEF0EE407A3B681846B0EE670A61
:10120000FFF700FFC7F8A4004D4B00221A7072E0F0
:101210001C21504807F05EFF00BF4B4B1B78002B92
:10122000FBD0494B00221A70484808F079FB53EC78
:10123000102B10461946FFF7FFFC0346BB6097EDE5
:10124000028AD7ED017AB0EE670AFFF7A5FEF0EE4D
:10125000407AF0EE670AB0EE480AFFF7BDFEF0EE06
:10126000407A3B681846B0EE670AFFF7CBFEC7F836
:10127000A400334B00221A703DE03E687B6818469C
:10128000FFF78AF904460D46BB681846FFF784F954
:1012900002460B4630490978002901D02F4900E069
:1012A0002F490591D7F8A4100491CDE90223CDE987
:1012B000004532462B492C4808F0E4FF2A48FEF747
:1012C000AFFF03461946284807F004FF1C4B0022D5
:1012D0001A7010E01921254807F0FCFE3B4618461D
:1012E000FFF7A9FE164B00221A7004E0144B0022EF
:1012F0001A7000E000BF184B1B78002B3FF40DAFB5
:101300001B4B1B68D7F8A4209A423FF706AF184B37
:1013100000221A60174B00221A6001220121164890
:1013200001F0E8F80548FFF7D5FD0448FFF7C2FDD6
:10133000EE2387F8A330F0E600F80108000400402F
:101340007D040020E8DD00087E040020B00A0020B3
:1013500000DE000820DE00087C04002040DE0008DB
:1013600048DE000854DE0008B0060020C8DE000891
:1013700074040020780400200004004880B5A4B064
:1013800000AF07F1580338220021184608F008FB87
:1013900007F1440300221A605A609A60DA601A6109
:1013A0003B4644220021184608F0FAFA002002F0D9
:1013B0007FFD2223BB654FF480737B664023BB66B1
:1013C00001233B6702237B670223BB670223FB6782
:1013D0002A23C7F880300223C7F884300223C7F8D5
:1013E00088300223C7F88C3007F15803184602F002
:1013F00013FE0346002B01D000F027F80F237B6477
:101400000323BB640023FB6400233B6500237B654F
:1014100007F144030421184603F016F90346002B94
:1014200001D000F012F84FF400533B6000237B63BF
:101430003B46184603F0ECFA0346002B01D000F0BF
:1014400004F800BF9037BD4680BD80B400AF00BF38
:10145000BD465DF8047B704780B582B000AF0F4B8E
:101460001B6E0E4A43F0010313660C4B1B6E03F018
:1014700001037B607B68094B9B6D084A43F08053F6
:101480009365064B9B6D03F080533B603B6802F015
:10149000B3FD00BF0837BD4680BD00BF001002404D
:1014A00080B483B000AF78607B681B6823F00102D2
:1014B0007B681A6000BF0C37BD465DF8047B70473F
:1014C00080B483B000AF78607B686FF001021A616E
:1014D00000BF0C37BD465DF8047B704780B400AF99
:1014E00000BFBD465DF8047B704780B400AFFEE7E7
:1014F00080B400AFFEE780B400AFFEE780B400AF79
:10150000FEE780B400AF00BFBD465DF8047B7047C6
:1015100080B400AF00BFBD465DF8047B704780B467
:1015200000AF00BFBD465DF8047B704780B500AFDB
:1015300000F0A8FA00BF80BD80B500AF024801F0FE
:101540002AF900BF80BD00BF4C15002080B500AF58
:10155000202001F001F8402000F0FEFF802000F084
:10156000FBFF00BF80BD000080B500AF0648FFF75D
:1015700097FF00220121054800F0BCFF0248FFF759
:101580009FFF00BF80BD00BF000400400004004872
:1015900080B400AF01231846BD465DF8047B704758
:1015A00080B582B000AF7860396008F0C1F90346B9
:1015B00016221A604FF0FF3318460837BD4680BD2B
:1015C00080B582B000AF78604FF0FF317868FFF7E8
:1015D000E7FFFEE780B586B000AFF860B9607A60DB
:1015E00000237B610AE0AFF300800146BB685A1C10
:1015F000BA60CAB21A707B6901337B617A697B6811
:101600009A42F0DB7B6818461837BD4680BD80B52E
:1016100086B000AFF860B9607A6000237B6109E0B2
:10162000BB685A1CBA601B781846AFF300807B6910
:1016300001337B617A697B689A42F1DB7B681846EB
:101640001837BD4680BD80B483B000AF78604FF0DE
:10165000FF3318460C37BD465DF8047B704780B4F5
:1016600083B000AF786039603B684FF400525A6035
:10167000002318460C37BD465DF8047B704780B4E4
:1016800083B000AF7860012318460C37BD465DF883
:10169000047B704780B485B000AFF860B9607A60B1
:1016A000002318461437BD465DF8047B70470000E0
:1016B00080B584B000AF7860114B1B68002B02D15D
:1016C0000F4B104A1A600E4B1B68FB600C4B1A68DC
:1016D0007B6813446A46934207D908F029F9034608
:1016E0000C221A604FF0FF3306E0054B1A687B6846
:1016F0001344034A1360FB6818461037BD4680BD8B
:10170000800400205018002080B400AF084BD3F8AC
:101710008830074A43F47003C2F88830044B4FF016
:1017200000629A6000BFBD465DF8047B704700BF51
:1017300000ED00E080B400AF044BDB681B0A03F04F
:1017400007031846BD465DF8047B704700ED00E0D6
:1017500080B483B000AF0346FB7197F90730002BCC
:101760000BDBFB7903F01F02074997F907305B0990
:10177000012000FA02F241F8232000BF0C37BD46D9
:101780005DF8047B704700BF00E100E080B483B0E7
:1017900000AF03463960FB7197F90730002B0ADB75
:1017A0003B68DAB20C4997F907301201D2B20B4408
:1017B00083F800230AE03B68DAB20849FB7903F0BA
:1017C0000F03043B1201D2B20B441A7600BF0C3750
:1017D000BD465DF8047B704700E100E000ED00E0ED
:1017E00080B489B000AFF860B9607A60FB6803F03C
:1017F0000703FB61FB69C3F10703042B28BF042324
:10180000BB61FB690433062B02D9FB69033B00E093
:1018100000237B614FF0FF32BB6902FA03F3DA4326
:10182000BB681A407B699A404FF0FF317B6901FA2F
:1018300003F3D9437B680B40134318462437BD4656
:101840005DF8047B704780B483B000AF78607B683C
:101850001B6823F080027B681A6000BF0C37BD460E
:101860005DF8047B704780B483B000AF7860396066
:101870007B689B6823F4A03323F007033A681A437C
:101880007B689A6000BF0C37BD465DF8047B7047EB
:1018900080B483B000AF786039607B685B6823F008
:1018A000007323F070033A681A437B685A6000BFE4
:1018B0000C37BD465DF8047B704780B483B000AF41
:1018C00078607B689B6823F080027B689A6000BF29
:1018D0000C37BD465DF8047B7047000080B485B0CE
:1018E00000AF7860084B9A6D07497B6813438B659E
:1018F000054B9A6D7B681340FB60FB6800BF143793
:10190000BD465DF8047B70470010024080B586B08C
:1019100000AF3B1D00221A605A609A60DA601A61BB
:101920000220FFF7DBFFFFF705FF0346002200213F
:101930001846FFF755FF034619461D20FFF726FFFF
:101940001D20FFF705FF44F29F13BB800023BB60FF
:101950002C23FB6000233B613B1D19460A4803F022
:1019600081FA0948FFF76FFF00210748FFF77BFF67
:1019700020210548FFF78CFF0348FFF79EFF00BFBB
:101980001837BD4680BD00BF000400400D488546A5
:101990000D480E490E4A002302E0D458C4500433C7
:1019A000C4188C42F9D30B4A0B4C002301E013609E
:1019B0000432A242FBD3FFF7A7FE07F0BFFFFFF7F9
:1019C00071FBFEE70080002000000020580400208A
:1019D0003CE400085804002050180020FEE780B5C1
:1019E00082B000AF0023FB71032000F05BF9002000
:1019F00000F00EF80346002B02D00123FB7101E03A
:101A0000FFF72AFDFB7918460837BD4680BD000068
:101A100080B584B000AF78600023FB73164B1B6861
:101A2000002B22D0154B1A68134B1B684FF47A71A8
:101A3000B1FBF3F3B2FBF3F3184600F066F903468B
:101A4000002B0FD17B680F2B09D8002279684FF04B
:101A5000FF3000F032F90A4A7B68136007E0012387
:101A6000FB7304E00123FB7301E00123FB73FB7BA9
:101A700018461037BD4680BD080000200000002039
:101A80000400002080B400AF054B1A68054B1B68AA
:101A90001344034A136000BFBD465DF8047B7047E2
:101AA000DC0700200800002080B400AF034B1B6857
:101AB0001846BD465DF8047B704700BFDC07002078
:101AC00080B584B000AF7860FFF7EEFFB8607B6848
:101AD000FB60FB68B3F1FF3F04D0094B1B68FA6859
:101AE0001344FB6000BFFFF7DFFF0246BB68D31A59
:101AF000FA689A42F7D800BF00BF1037BD4680BDD4
:101B00000800002080B485B000AF78607B6803F0E7
:101B10000703FB600C4BDB68BB60BA684FF6FF0342
:101B20001340BB60FB681A02BB68134343F0BF63FA
:101B300043F40033BB60044ABB68D36000BF143772
:101B4000BD465DF8047B704700ED00E080B400AF57
:101B5000044BDB681B0A03F007031846BD465DF81B
:101B6000047B704700ED00E080B483B000AF034613
:101B7000FB7197F90730002B0BDBFB7903F01F0299
:101B8000074997F907305B09012000FA02F241F892
:101B9000232000BF0C37BD465DF8047B704700BFB3
:101BA00000E100E080B483B000AF03463960FB7110
:101BB00097F90730002B0ADB3B68DAB20C4997F93A
:101BC00007301201D2B20B4483F800230AE03B68CD
:101BD000DAB20849FB7903F00F03043B1201D2B2D9
:101BE0000B441A7600BF0C37BD465DF8047B704786
:101BF00000E100E000ED00E080B489B000AFF860E3
:101C0000B9607A60FB6803F00703FB61FB69C3F10D
:101C10000703042B28BF0423BB61FB690433062B95
:101C200002D9FB69033B00E000237B614FF0FF32E8
:101C3000BB6902FA03F3DA43BB681A407B699A4036
:101C40004FF0FF317B6901FA03F3D9437B680B4006
:101C5000134318462437BD465DF8047B70470000E7
:101C600080B582B000AF78607B68013BB3F1807FC4
:101C700001D301230FE00A4A7B68013B53600F2127
:101C80004FF0FF30FFF78EFF054B00229A60044BA8
:101C900007221A60002318460837BD4680BD00BFE2
:101CA00010E000E080B582B000AF78607868FFF7A0
:101CB00029FF00BF0837BD4680BD80B586B000AFA4
:101CC0000346B9607A60FB73FFF740FF78617A687A
:101CD000B9687869FFF790FF024697F90F3011460F
:101CE0001846FFF75FFF00BF1837BD4680BD80B5BF
:101CF00082B000AF0346FB7197F907301846FFF733
:101D000033FF00BF0837BD4680BD80B582B000AF4D
:101D100078607868FFF7A4FF034618460837BD4689
:101D200080BD000080B586B000AFF860B960C7E93B
:101D3000002300233B61244B1B78012B01D102239C
:101D40003EE0214B01221A704FF47A7000F07CF8CB
:101D50000346FB75FB7D002B2ED11B4B00225A60E6
:101D6000FB68002B07D1D7E90023B86800F0C0F862
:101D700001233B6110E0FB68012B02D0FB68022BC2
:101D80000AD13B681946B86800F0D8F8FB68022B06
:101D900002D14FF480233B614FF47A7000F054F885
:101DA0000346FB753B69002B06D0084B5A693B691B
:101DB000DB43064913404B61034B00221A70FB7D45
:101DC00018461837BD4680BD0C0000200020024098
:101DD00080B483B000AF0023FB710B4B5B69002B19
:101DE0000BDA094B094A9A60074B094A9A60064B7D
:101DF0005B69002B01DA0123FB71FB7918460C3774
:101E0000BD465DF8047B7047002002402301674512
:101E1000AB89EFCD80B483B000AF0123FB71094BD8
:101E20005B69084A43F000435361064B5B69002B32
:101E300001DA0023FB71FB7918460C37BD465DF8CB
:101E4000047B70470020024080B584B000AF78600A
:101E5000FFF72AFEF86009E0FFF726FE0246FB685E
:101E6000D31A7A689A4201D2032338E01E4B1B69C9
:101E700003F48033B3F5803FEED01B4B1A694CF26C
:101E8000FA331340BB60BB68002B1ED0174B5A6857
:101E9000BB681343154A5360BB6803F04043002BF3
:101EA00007D0114B9A69BB6803F040430E491343B6
:101EB0008B61BB6823F04043002B04D00A4ABB6807
:101EC00023F040431361012309E0074B1B6903F032
:101ED0000103012B02D1044B01221A610023184691
:101EE0001037BD4680BD00BF002002400C0000201E
:101EF00080B485B000AFF860C7E900230E4B5B6982
:101F00000D4A43F001035361FB683A681A60BFF35E
:101F10006F8F00BFD7E900014FF000024FF00003C0
:101F20000A000023F968043113460B6000BF143720
:101F3000BD465DF8047B70470020024080B489B044
:101F400000AF786039604023FB777B68BB613B68FA
:101F50007B61144B5B69134A43F480235361EFF3B5
:101F60001083FB60FB683B6172B600BF7B691A6837
:101F7000BB691A60BB690433BB617B6904337B6155
:101F8000FB7F013BFB77FB7F002BEFD13B69BB6005
:101F9000BB6883F3108800BF00BF2437BD465DF8DF
:101FA000047B70470020024080B584B000AF7860A9
:101FB00039604A4B1B78012B01D1022389E0474B42
:101FC00001221A704FF47A70FFF73EFF0346FB734D
:101FD000FB7B002B79D1414B00225A60404B1B68A0
:101FE00003F40073002B19D03D4B1B683C4A23F4CB
:101FF000007313603A4B1B6803F48063002B09D015
:10200000374B1B68364A23F480631360334B03223B
:102010001A7716E0314B01221A7712E0304B1B6819
:1020200003F48063002B09D02D4B1B682C4A23F44A
:1020300080631360294B02221A7702E0274B0022AB
:102040001A777B681B68012B11D17B685B68184687
:1020500000F048F84FF47A70FFF7F6FE0346FB7382
:102060001F4B5B691E4A23F0040353612BE03B685E
:102070004FF0FF321A607B689B68BB601BE07B6897
:102080005B681946B86800F04BF84FF47A70FFF7B8
:10209000DBFE0346FB73124B5B69114A23F4FD73AD
:1020A0005361FB7B002B03D03B68BA681A600AE0DF
:1020B000BB680133BB607B689A687B68DB6813444C
:1020C000BA689A42DBD300F04FF8044B00221A7032
:1020D000FB7B18461037BD4680BD00BF0C000020BA
:1020E0000020024080B483B000AF78607B6803F0CA
:1020F0000103002B05D0094B5B69084A43F0040338
:102100005361064B5B69054A43F48033536100BF5A
:102110000C37BD465DF8047B704700BF00200240CD
:1021200080B483B000AF786039600E4B5B6923F4F4
:10213000FC727B68DB0003F4FF630A4913434B61C5
:10214000084B5B69074A43F002035361054B5B6927
:10215000044A43F48033536100BF0C37BD465DF839
:10216000047B70470020024080B483B000AF1E4B58
:102170001B7FFB71FB79012B02D0FB79032B11D163
:102180001A4B1B68194A43F400631360174B1B6812
:10219000164A23F400631360144B1B68134A43F47C
:1021A00000731360FB79022B02D0FB79032B11D152
:1021B0000E4B1B680D4A43F4805313600B4B1B6896
:1021C0000A4A23F480531360084B1B68074A43F400
:1021D00080631360044B00221A7700BF0C37BD46A2
:1021E0005DF8047B704700BF0C0000200020024017
:1021F00080B487B000AF7860396000237B615AE11A
:102200003B681A6801217B6901FA03F31340FB6004
:10221000FB68002B00F04C813B685B68012B0BD006
:102220003B685B68022B07D03B685B68112B03D0CF
:102230003B685B68122B30D17B689B683B617B6994
:102240005B00032202FA03F3DB433A6913403B616C
:102250003B68DA687B695B0002FA03F33A6913436F
:102260003B617B683A699A607B685B683B610122ED
:102270007B6902FA03F3DB433A6913403B613B6835
:102280005B681B0903F001027B6902FA03F33A69F8
:1022900013433B617B683A695A607B68DB683B614A
:1022A0007B695B00032202FA03F3DB433A691340C4
:1022B0003B613B689A687B695B0002FA03F33A6909
:1022C00013433B617B683A69DA603B685B68022BC9
:1022D00003D03B685B68122B23D17B69DA087B68EB
:1022E000083253F822303B617B6903F007039B00FF
:1022F0000F2202FA03F3DB433A6913403B613B6868
:102300001A697B6903F007039B0002FA03F33A6939
:1023100013433B617B69DA087B680832396943F80B
:1023200022107B681B683B617B695B00032202FA19
:1023300003F3DB433A6913403B613B685B6803F09E
:1023400003027B695B0002FA03F33A6913433B61C2
:102350007B683A691A603B685B6803F08053002B26
:1023600000F0A6805B4B1B6E5A4A43F001031366D4
:10237000584B1B6E03F00103BB60BB68564A7B6978
:102380009B08023352F823303B617B6903F003035F
:102390009B000F2202FA03F3DB433A6913403B61CF
:1023A0007B68B3F1904F1FD07B684C4A934219D0A1
:1023B0007B684B4A934213D07B684A4A93420DD0C4
:1023C0007B68494A934207D07B68484A934201D1CF
:1023D00005230AE0062308E0042306E0032304E0C3
:1023E000022302E0012300E000237A6902F00302E5
:1023F000920093403A6913433B6137497B699B08DC
:1024000002333A6941F82320394B1B683B61FB6872
:10241000DB433A6913403B613B685B6803F48033FC
:10242000002B03D03A69FB6813433B61304A3B6998
:1024300013602F4B5B683B61FB68DB433A691340D9
:102440003B613B685B6803F40033002B03D03A69BF
:10245000FB6813433B61264A3B695360244B9B68EE
:102460003B61FB68DB433A6913403B613B685B6857
:1024700003F48013002B03D03A69FB6813433B61DC
:102480001B4A3B6993601A4BDB683B61FB68DB438B
:102490003A6913403B613B685B6803F40013002B0F
:1024A00003D03A69FB6813433B61114A3B69D3602F
:1024B0007B6901337B613B681A687B6922FA03F30D
:1024C000002B7FF49DAE00BF00BF1C37BD465DF8FA
:1024D000047B7047001002400000014000040048E7
:1024E00000080048000C0048001000480014004894
:1024F0000004014080B483B000AF78600B467B805D
:1025000013467B707B78002B03D07A887B689A61B6
:1025100002E07A887B689A6200BF0C37BD465DF89E
:10252000047B704780B485B000AF78600B467B8039
:102530007B685B69FB607A88FB6813401A04FB6860
:10254000D9437B880B401A437B689A6100BF1437DC
:10255000BD465DF8047B704780B582B000AF03468E
:10256000FB80084B5A69FB881340002B06D0054AB4
:10257000FB885361FB881846FEF7CAFC00BF08378A
:10258000BD4680BD00040140F0B58BB006AF786059
:102590007B68002B01D10123D7E07B6893F8A93237
:1025A000DBB2002B06D17B68002283F8A822786872
:1025B00006F0C6FE7B68032283F8A9227B681B68AD
:1025C000184602F0F0FC0023FB734CE0FB7B7968BB
:1025D0005A1C13469B001344DB000B4401330122B9
:1025E0001A70FB7B79685A1C13469B001344DB006E
:1025F0000B44FA7B1A70FA7BFB7B98B2796813461E
:102600009B001344DB000B44363302461A80FB7BED
:1026100079685A1C13469B001344DB000B440333B8
:1026200000221A70FA7B796813469B001344DB0082
:102630000B44383300221A60FA7B796813469B00FA
:102640001344DB000B443C3300221A60FA7B7968A8
:1026500013469B001344DB000B44403300221A60F6
:10266000FB7B0133FB73FA7B7B685B689A42ADD3DB
:102670000023FB7344E0FA7B796813469B00134404
:10268000DB000B4403F2691300221A70FA7B7968AD
:1026900013469B001344DB000B4403F5B473FA7B31
:1026A0001A70FA7B796813469B001344DB000B44D5
:1026B00003F26B1300221A70FA7B796813469B00B1
:1026C0001344DB000B4403F5BC7300221A60FA7B51
:1026D000796813469B001344DB000B4403F5BE737B
:1026E00000221A60FA7B796813469B001344DB00D2
:1026F0000B4403F5C07300221A60FB7B0133FB73AC
:10270000FA7B7B685B689A42B5D37B681B683B6049
:102710007E686D4606F110040FCC0FC523682B6050
:10272000331D0ECB386802F059FC7B68002283F819
:1027300024207B68012283F8A9227B68DB69012BB6
:1027400002D1786801F08AFB002318461437BD4691
:10275000F0BD80B582B000AF78607B6893F8A83296
:10276000012B01D1022312E07B68012283F8A82209
:102770007B681B68184602F0FFFB7B681B681846E5
:1027800004F0B3FD7B68002283F8A82200231846DA
:102790000837BD4680BD80B582B000AF78607B68E9
:1027A0001B68184604F0B8FD034603F40043B3F574
:1027B000004F02D1786800F04DFB7B681B6818461B
:1027C00004F0AAFD034603F48063B3F5806F12D1D1
:1027D0007B681B68B3F844309AB27B681B6822F4AC
:1027E000806292B2A3F84420786806F024FE0021AB
:1027F000786800F01EF97B681B68184604F08CFDB1
:10280000034603F48043B3F5804F0BD17B681B680C
:10281000B3F844309AB27B681B6822F4804292B2CB
:10282000A3F844207B681B68184604F075FD034636
:1028300003F40053B3F5005F0BD17B681B68B3F85A
:1028400044309AB27B681B6822F4005292B2A3F81B
:1028500044207B681B68184604F05EFD034603F4C1
:102860008053B3F5805F33D17B681B68B3F8403089
:102870009AB27B681B6822F0040292B2A3F840204F
:102880007B681B68B3F840309AB27B681B6822F003
:10289000080292B2A3F840207B6893F8E032012B43
:1028A00007D17B68002283F8E0220021786806F0D7
:1028B000B7FF786806F0F8FD7B681B68B3F8443012
:1028C0009AB27B681B6822F4805292B2A3F844202B
:1028D0007B681B68184604F01FFD034603F4006381
:1028E000B3F5006F26D17B681B68B3F840309AB20D
:1028F0007B681B6842F0080292B2A3F840207B6814
:102900001B68B3F844309AB27B681B6822F40062FB
:1029100092B2A3F844207B681B68B3F840309AB2A7
:102920007B681B6842F0040292B2A3F840207868EA
:1029300006F0A0FD7B681B68184604F0EDFC03461A
:1029400003F08003802B3FD17B681B68B3F84430D1
:102950009AB27B681B6822F0800292B2A3F84420EE
:102960007B6893F8E032002B2BD17B681B68B3F8AF
:1029700040309AB27B681B6842F0040292B2A3F81E
:1029800040207B681B68B3F840309AB27B681B68B4
:1029900042F0080292B2A3F840207B68012283F83B
:1029A000E0227B681B68B3F854309BB29B0803F0AD
:1029B0003C027B68C3F8E4220121786806F030FF0E
:1029C00002E0786806F056FD7B681B68184604F044
:1029D000A3FC034603F40073B3F5007F0ED17B68BC
:1029E0001B68B3F844309AB27B681B6822F400720B
:1029F00092B2A3F84420786806F00FFD7B681B684C
:102A0000184604F089FC034603F48073B3F5807F15
:102A10000BD17B681B68B3F844309AB27B681B68A3
:102A200022F4807292B2A3F8442000BF0837BD465A
:102A300080BD80B582B000AF78600B46FB707B68CC
:102A400093F8A832012B01D1022313E07B68012205
:102A500083F8A8227B68FA7883F824207B681B68B7
:102A6000FA781146184604F02CFC7B68002283F8A3
:102A7000A822002318460837BD4680BD80B584B023
:102A800000AF7860084611461A460346FB700B46B5
:102A90003B801346BB700023FB7297F90330002B79
:102AA0000EDAFB7803F007035A1C13469B0013440D
:102AB000DB007A681344FB60FB6801225A700EE069
:102AC000FB7803F0070213469B001344DB0003F579
:102AD000B4737A681344FB60FB6800225A70FB7879
:102AE00003F00703DAB2FB681A703A88FB681A61D0
:102AF000FB68BA78DA70FB685B78002B04D0FB685F
:102B00001B789AB2FB68DA81BB78022B02D1FB6892
:102B100000221A717B6893F8A832012B01D102239D
:102B20000EE07B68012283F8A8227B681B68F968A5
:102B3000184602F075FA7B68002283F8A822FB7A17
:102B400018461037BD4680BD80B584B000AF7860B0
:102B50000B46FB7097F90330002B0EDAFB7803F07D
:102B600007035A1C13469B001344DB007A68134486
:102B7000FB60FB6801225A700EE0FB7803F007024D
:102B800013469B001344DB0003F5B4737A681344C7
:102B9000FB60FB6800225A70FB7803F00703DAB28F
:102BA000FB681A707B6893F8A832012B01D10223CD
:102BB0000EE07B68012283F8A8227B681B68F96815
:102BC000184602F09BFD7B68002283F8A8220023B0
:102BD00018461037BD4680BD80B586B000AFF8609E
:102BE0007A603B600B46FB72FB7A03F007021346E8
:102BF0009B001344DB0003F5B473FA6813447B6154
:102C00007B697A685A617B693A689A617B690022BC
:102C1000DA617B6900225A70FB7A03F00703DAB2AB
:102C20007B691A70FB7A03F00703002B06D1FB685F
:102C30001B687969184602F04EFF05E0FB681B68C7
:102C40007969184602F047FF002318461837BD4639
:102C500080BD80B483B000AF78600B46FB70FB781A
:102C600003F00702796813469B001344DB000B4412
:102C700003F5C2731B6818460C37BD465DF8047B2C
:102C8000704780B586B000AFF8607A603B600B4655
:102C9000FB72FB7A03F007035A1C13469B00134494
:102CA000DB00FA6813447B617B697A685A617B694F
:102CB0003A689A617B69012283F824207B693A682B
:102CC0001A627B690022DA617B6901225A70FB7A01
:102CD00003F00703DAB27B691A70FB7A03F007038B
:102CE000002B06D1FB681B687969184602F0F3FED9
:102CF00005E0FB681B687969184602F0ECFE0023CA
:102D000018461837BD4680BD80B584B000AF7860E6
:102D10000B46FB70FB7803F007027B685B689A4206
:102D200001D901233EE097F90330002B0EDAFB783E
:102D300003F007035A1C13469B001344DB007A6818
:102D40001344FB60FB6801225A700CE0FA781346CA
:102D50009B001344DB0003F5B4737A681344FB60F3
:102D6000FB6800225A70FB6801229A70FB7803F01E
:102D70000703DAB2FB681A707B6893F8A832012B5C
:102D800001D102230EE07B68012283F8A8227B6830
:102D90001B68F968184604F095F97B68002283F8EF
:102DA000A822002318461037BD4680BD80B584B0E8
:102DB00000AF78600B46FB70FB7803F00F027B6876
:102DC0005B689A4201D9012340E097F90330002B58
:102DD0000EDAFB7803F007035A1C13469B001344DA
:102DE000DB007A681344FB60FB6801225A700EE036
:102DF000FB7803F0070213469B001344DB0003F546
:102E0000B4737A681344FB60FB6800225A70FB6855
:102E100000229A70FB7803F00703DAB2FB681A709D
:102E20007B6893F8A832012B01D102230EE07B6866
:102E3000012283F8A8227B681B68F968184604F011
:102E400092F97B68002283F8A822002318461037E5
:102E5000BD4680BD80B58EB000AF7860D6E27B689D
:102E60001B68B3F84430FB85FB8DDBB203F00F0326
:102E700087F82D3097F82D30002B40F05B81FB8DCB
:102E800003F01003002B50D17B681B681B889BB29A
:102E900023F4E14323F07003FB817B681A68FB890C
:102EA0006FEA43436FEA53439BB213807B68283336
:102EB0007B627B681B68B3F850309BB21A467B6A12
:102EC0001B78DB0013447A681268134403F2024350
:102ED0001B88C3F309027B6ADA617B6A5A697B6AE1
:102EE000DB691A447B6A5A610021786806F07BFA34
:102EF0007B6893F82430DBB2002B00F087827B6A7A
:102F00009B69002B40F082827B6893F82430DBB20F
:102F100063F07F03DAB27B681B6892B2A3F84C209F
:102F20007B68002283F8242070E27B6803F5B47389
:102F30007B627B681B681B887B857B8D03F4006349
:102F4000002B32D07B681B68B3F850309BB21A4616
:102F50007B6A1B78DB0013447A681268134403F21F
:102F600006431B88C3F309027B6ADA617B68186831
:102F70007B6803F52C717B6ADA887B6ADB699BB21C
:102F800004F01CFA7B681B681B889AB240F68F73AA
:102F900013403B827B681B683A8A42F0800292B2FF
:102FA0001A80786806F0F2F930E2B7F92A30002B7F
:102FB00080F22C827B681B681B889AB240F68F7364
:102FC0001340BB837B681B68BA8B42F0800292B2CD
:102FD0001A807B681B68B3F850309BB21A467B6A34
:102FE0001B78DB0013447A681268134403F206432B
:102FF0001B88C3F309027B6ADA617B6ADB69002BF9
:1030000019D07B6A5B69002B15D07B6818687B6AD6
:1030100059697B6ADA887B6ADB699BB204F0CEF976
:103020007B6A5A697B6ADB691A447B6A5A610021B0
:10303000786806F0BDF97B681B681B889BB203F4B7
:103040000063002B40F0E2817B681B68BB617B68FA
:103050001B68B3F850309BB21A46BB691344BB617E
:10306000BB6903F206437B617B6A1B69002B12D1AB
:103070007B691B889BB223F4F8439AB27B691A8060
:103080007B691B889BB26FEA43436FEA53439AB252
:103090007B691A802FE07B6A1B693E2B13D87B6A01
:1030A0001B695B083B637B6A1B6903F00103002B10
:1030B00002D03B6B01333B633B6B9BB29B029AB2EA
:1030C0007B691A8017E07B6A1B695B093B637B6A3B
:1030D0001B6903F01F03002B02D13B6B013B3B63D9
:1030E0003B6B9BB29B029BB26FEA43436FEA534335
:1030F0009AB27B691A807B681B681B889BB223F499
:10310000804323F070037B827B8A83F480537B822D
:103110007B8A83F400537B827B681A687B8A43F046
:103120007F4343F47F0343F4004343F080039BB2A7
:1031300013806BE17B681B681A4697F82D309B0063
:1031400013441B887B85B7F92A30002B80F2E4807A
:103150007B681B681A4697F82D309B0013441B8828
:103160009AB240F68F7313403B857B681B681A4602
:1031700097F82D309B0013443A8D42F0800292B2B2
:103180001A8097F82D2013469B001344DB0003F5AB
:10319000B4737A6813447B627B6A1B7B002B20D15B
:1031A0007B681B68B3F850309BB21A467B6A1B7869
:1031B000DB0013447A681268134403F206431B8849
:1031C000C3F30903FB86FB8E002B00F083807B6832
:1031D00018687B6A59697B6ADA88FB8E04F0EEF81E
:1031E00078E07B6ADB78022B08D17B8D1A46796AFE
:1031F000786800F019F90346FB866BE07B681B6872
:103200001A467B6A1B789B0013441B889BB223F4ED
:10321000E04323F070037B847B681B681A467B6A5B
:103220001B789B001A447B8C43F07F4343F47F035D
:1032300043F4004343F0C0039BB213807B681B68D8
:103240001A467B6A1B789B0013441B889BB203F4CD
:103250008043002B1FD07B681B68B3F850309BB2B3
:103260001A467B6A1B78DB0013447A6812681344A1
:1032700003F202431B88C3F30903FB86FB8E002B7A
:1032800028D07B6818687B6A59697B6A1A89FB8E2B
:1032900004F094F81EE07B681B68B3F850309BB2D2
:1032A0001A467B6A1B78DB0013447A681268134461
:1032B00003F206431B88C3F30903FB86FB8E002B36
:1032C00008D07B6818687B6A59697B6A5A89FB8ECB
:1032D00004F074F87B6ADA69FB8E1A447B6ADA615F
:1032E0007B6A5A69FB8E1A447B6A5A617B6A9B69C6
:1032F000002B04D0FA8E7B6A1B699A4206D27B6A45
:103300001B781946786806F053F805E07B681B685F
:10331000796A184602F0DFFB7B8D03F08003002BF7
:1033200074D097F82D305A1C13469B001344DB00D1
:103330007A6813447B627B681B681A4697F82D30C5
:103340009B0013441B889BB223F4E14323F07003DA
:103350003B847B681B681A4697F82D309B001A4403
:103360003B8C6FEA43436FEA53439BB213807B6A03
:10337000DB78022B44D17B8D03F48073002B3FD18B
:103380007B681B68B3F850309BB21A467B6A1B7887
:10339000DB0013447A681268134403F202431B886B
:1033A000C3F30903FB837B6A9A69FB8B9A4206D9B4
:1033B0007B6A9A69FB8BD21A7B6A9A6102E07B6A0C
:1033C00000229A617B6A9B69002B06D17B6A1B787D
:1033D0001946786806F007F818E07B6A5A69FB8B93
:1033E0001A447B6A5A617B6ADA69FB8B1A447B6AEE
:1033F000DA617B681B68796A184602F06CFB05E0AD
:103400007B8D1A46796A786800F017F97B681B682B
:10341000B3F844309BB21BB2002BFFF620AD002363
:1034200018463837BD4680BD80B588B000AFF8601B
:10343000B9601346FB80FB8803F48043002B7CD0EB
:10344000FB681B68B3F850309BB21A46BB681B7808
:10345000DB001344FA681268134403F202431B882A
:10346000C3F309037B83BB689A697B8B9A4206D3BB
:10347000BB689A697B8BD21ABB689A6102E0BB6811
:1034800000229A61BB689B69002B23D1FB681B68F3
:103490001A46BB681B789B0013441B889BB223F41D
:1034A000804323F070033B833B8B83F400533B83C7
:1034B000FB681B681A46BB681B789B001A443B8B51
:1034C00043F07F4343F47F0343F4004343F080031E
:1034D0009BB21380FB8803F04003002B1FD0FB68D6
:1034E0001B681A46BB681B789B0013441B889BB261
:1034F00023F4E04323F07003FB82FB681B681A4649
:10350000BB681B789B001A44FB8A43F07F4343F45B
:103510007F0343F4004343F0C0039BB213807B8BD3
:10352000002B00F08580FB681868BB685969BB6890
:103530001A897B8B03F042FF7AE0FB681B68B3F8C3
:1035400050309BB21A46BB681B78DB001344FA6804
:103550001268134403F206431B88C3F309037B83F9
:10356000BB689A697B8B9A4206D3BB689A697B8B4E
:10357000D21ABB689A6102E0BB6800229A61BB68FC
:103580009B69002B23D1FB681B681A46BB681B781C
:103590009B0013441B889BB223F4804323F07003E9
:1035A000FB83FB8B83F40053FB83FB681B681A4689
:1035B000BB681B789B001A44FB8B43F07F4343F4AA
:1035C0007F0343F4004343F080039BB21380FB88E6
:1035D00003F04003002B1FD1FB681B681A46BB6831
:1035E0001B789B0013441B889BB223F4E04323F019
:1035F0007003BB83FB681B681A46BB681B789B0083
:103600001A44BB8B43F07F4343F47F0343F40043EE
:1036100043F0C0039BB213807B8B002B08D0FB6868
:103620001868BB685969BB685A897B8B03F0C6FE72
:103630007B8B18462037BD4680BD80B5A2B000AF59
:10364000F860B9601346FB80FB8803F04003002B51
:1036500000F0C581FB681B68B3F850309BB21A4676
:10366000BB681B78DB001344FA681268134403F24A
:1036700002431B88C3F30903A7F84E30BB689A695D
:10368000B7F84E309A4207D9BB689A69B7F84E30FE
:10369000D21ABB689A6102E0BB6800229A61BB68DB
:1036A0009B69002B40F0B980BB685B78002B26D16A
:1036B000FB681B68BB62FB681B68B3F850309BB2A9
:1036C0001A46BB6A1344BB62BB681B78DA00BB6A4C
:1036D000134403F202437B627B6A1B889BB223F490
:1036E000F8439AB27B6A1A807B6A1B889BB26FEAA6
:1036F00043436FEA53439AB27B6A1A801AE0BB686D
:103700005B78012B16D1FB681B683B63FB681B6869
:10371000B3F850309BB21A463B6B13443B63BB6813
:103720001B78DA003B6B134403F20243FB62FB6A33
:1037300000221A80FB681B683B62BB685B78002B29
:1037400026D1FB681B68BB61FB681B68B3F850306F
:103750009BB21A46BB691344BB61BB681B78DA0095
:10376000BB69134403F206437B617B691B889BB2F0
:1037700023F4F8439AB27B691A807B691B889BB259
:103780006FEA43436FEA53439AB27B691A8017E0AA
:10379000BB685B78012B13D1FB681B68B3F8503012
:1037A0009BB21A463B6A13443B62BB681B78DA0043
:1037B0003B6A134403F20643FB61FB6900221A8053
:1037C000BB681B781946F86805F00DFEFB8803F40A
:1037D0008043002B00F0D282FB681B681A46BB684E
:1037E0001B789B0013441B889BB223F4E04323F017
:1037F00070037B82FB681B681A46BB681B789B00C2
:103800001A447B8A43F07F4343F47F0343F44043ED
:1038100043F080039BB21380B0E2FB8803F4804343
:10382000002B21D0FB681B681A46BB681B789B00E5
:1038300013441B889BB223F4E04323F07003A7F8E2
:103840004430FB681B681A46BB681B789B001A440F
:10385000B7F8443043F07F4343F47F0343F44043DD
:1038600043F080039BB21380BB6893F82430012B94
:1038700040F08482BB685A69B7F84E301A44BB687E
:103880005A61BB68DA69B7F84E301A44BB68DA612E
:10389000BB681A6ABB681B699A4209D3BB681B697B
:1038A0003B65BB681A6A3B6DD21ABB681A6215E0A9
:1038B000BB681B6A002B07D1B7F84E303B65BB686D
:1038C000002283F8242009E0BB68002283F824202A
:1038D000BB681B6A3B65BB6800221A62BB685B78E9
:1038E000002B55D1FB681B68BB63FB681B68B3F8F2
:1038F00050309BB21A46BB6B1344BB63BB681B784A
:10390000DA00BB6B134403F202437B633B6D002B75
:1039100012D17B6B1B889BB223F4F8439AB27B6B6A
:103920001A807B6B1B889BB26FEA43436FEA534359
:103930009AB27B6B1A8047E03B6D3E2B11D83B6DF2
:103940005B08BB643B6D03F00103002B02D0BB6C32
:103950000133BB64BB6C9BB29B029AB27B6B1A8037
:1039600032E03B6D5B09BB643B6D03F01F03002B32
:1039700002D1BB6C013BBB64BB6C9BB29B029BB294
:103980006FEA43436FEA53439AB27B6B1A801BE0A2
:10399000BB685B78012B17D1FB681B683B64FB6835
:1039A0001B68B3F850309BB21A463B6C13443B641F
:1039B000BB681B78DA003B6C134403F20243FB63E1
:1039C0003B6D9AB2FB6B1A80FB681868BB6859693B
:1039D000BB681A893B6D9BB203F0AEFCCEE1FB687D
:1039E0001B68B3F850309BB21A46BB681B78DB00EB
:1039F0001344FA681268134403F206431B88C3F3A6
:103A00000903A7F84E30BB689A69B7F84E309A425E
:103A100007D3BB689A69B7F84E30D21ABB689A616F
:103A200002E0BB6800229A61BB689B69002B40F0F2
:103A3000C480BB685B78002B26D1FB681B68FB66E3
:103A4000FB681B68B3F850309BB21A46FB6E1344F8
:103A5000FB66BB681B78DA00FB6E134403F202437B
:103A6000BB66BB6E1B889BB223F4F8439AB2BB6E55
:103A70001A80BB6E1B889BB26FEA43436FEA5343C5
:103A80009AB2BB6E1A801AE0BB685B78012B16D124
:103A9000FB681B687B67FB681B68B3F850309BB200
:103AA0001A467B6F13447B67BB681B78DA007B6F19
:103AB000134403F202433B673B6F00221A80FB680A
:103AC0001B68BB67BB685B78002B2FD1FB681B684A
:103AD000C7F88030FB681B68B3F850309BB21A46B9
:103AE000D7F880301344C7F88030BB681B78DA0001
:103AF000D7F88030134403F20643C7F88430D7F870
:103B000084301B889BB223F4F8439AB2D7F88430F0
:103B10001A80D7F884301B889BB26FEA43436FEA60
:103B200053439AB2D7F884301A8017E0BB685B78A9
:103B3000012B13D1FB681B68B3F850309BB21A46B7
:103B4000BB6F1344BB67BB681B78DA00BB6F1344C1
:103B500003F20643FB67FB6F00221A80BB681B78E9
:103B60001946F86805F03FFCFB8803F48043002BFE
:103B700040F00481FB681B681A46BB681B789B00F9
:103B800013441B889BB223F4E04323F07003A7F88F
:103B90004630FB681B681A46BB681B789B001A44BA
:103BA000B7F8463043F07F4343F47F0343F4404388
:103BB00043F080039BB21380E0E0FB8803F4804372
:103BC000002B21D1FB681B681A46BB681B789B0041
:103BD00013441B889BB223F4E04323F07003A7F83F
:103BE0004C30FB681B681A46BB681B789B001A4464
:103BF000B7F84C3043F07F4343F47F0343F4404332
:103C000043F080039BB21380BB6893F82430012BF0
:103C100040F0B480BB685A69B7F84E301A44BB68AC
:103C20005A61BB68DA69B7F84E301A44BB68DA618A
:103C3000BB681A6ABB681B699A4209D3BB681B69D7
:103C40003B65BB681A6A3B6DD21ABB681A6215E005
:103C5000BB681B6A002B07D1B7F84E303B65BB68C9
:103C6000002283F8242009E0BB681B6A3B65BB681F
:103C700000221A62BB68002283F82420FB681B68BC
:103C80007B66BB685B78002B55D1FB681B68FB65C6
:103C9000FB681B68B3F850309BB21A46FB6D1344A7
:103CA000FB65BB681B78DA00FB6D134403F2064327
:103CB000BB653B6D002B12D1BB6D1B889BB223F4FF
:103CC000F8439AB2BB6D1A80BB6D1B889BB26FEA3A
:103CD00043436FEA53439AB2BB6D1A8044E03B6D95
:103CE0003E2B11D83B6D5B087B653B6D03F00103F8
:103CF000002B02D07B6D01337B657B6D9BB29B02F9
:103D00009AB2BB6D1A802FE03B6D5B097B653B6D02
:103D100003F01F03002B02D17B6D013B7B657B6DA4
:103D20009BB29B029BB26FEA43436FEA53439AB242
:103D3000BB6D1A8018E0BB685B78012B14D1FB685F
:103D40001B68B3F850309BB21A467B6E13447B66F7
:103D5000BB681B78DA007B6E134403F206433B66B4
:103D60003B6D9AB23B6E1A80FB681868BB68596954
:103D7000BB685A893B6D9BB203F0DEFAFB681B6897
:103D80001A46BB681B789B0013441B889BB223F424
:103D9000E04323F040033B823B8A83F010033B82E5
:103DA0003B8A83F020033B82FB681B681A46BB6892
:103DB0001B789B001A443B8A43F07F4343F47F0304
:103DC00043F4004343F080039BB213800023184662
:103DD0008837BD4680BD80B487B000AFF8607B6097
:103DE0000B467B8113463B817B8903F080039BB2AA
:103DF000002B0BD07B8903F007035A1C13469B0052
:103E00001344DB00FA6813447B6109E07A891346A6
:103E10009B001344DB0003F5B473FA6813447B6121
:103E20003B89002B07D17B6900221A737B689AB209
:103E30007B69DA800BE07B6901221A737B689AB296
:103E40007B691A817B681B0C9AB27B695A810023BB
:103E500018461C37BD465DF8047B704780B485B0BA
:103E600000AF78607B681B68FB607B680122C3F849
:103E7000E8227B68002283F8E022FB68B3F8543024
:103E80009BB243F001039AB2FB68A3F85420FB688D
:103E9000B3F854309BB243F002039AB2FB68A3F824
:103EA0005420002318461437BD465DF8047B704744
:103EB00080B485B000AF78607B68002B41D14B4B5C
:103EC0001B6803F4C063B3F5806F31D1474BD3F85F
:103ED0008030464A23F48073C2F88030434B1B681D
:103EE00023F4C063414A43F400731360404B1B68E2
:103EF000322202FB03F33F4AA2FB03239B0C013354
:103F0000FB6002E0FB68013BFB60384B5B6903F43C
:103F10008063B3F5806F02D1FB68002BF2D1334B85
:103F20005B6903F48063B3F5806F58D1032357E0D6
:103F30002E4BD3F880302D4A23F48073C2F88030A2
:103F40004DE07B68B3F5007F41D1284B1B6803F43B
:103F5000C063B3F5806F31D1244BD3F88030234A4E
:103F600043F48073C2F88030204B1B6823F4C06395
:103F70001E4A43F4007313601D4B1B68322202FB80
:103F800003F31C4AA2FB03239B0C0133FB6002E0FA
:103F9000FB68013BFB60154B5B6903F48063B3F581
:103FA000806F02D1FB68002BF2D1104B5B6903F4E8
:103FB0008063B3F5806F12D1032311E00B4BD3F86C
:103FC00080300A4A43F48073C2F8803007E0074B20
:103FD0001B6823F4C063054A43F480631360002325
:103FE00018461437BD465DF8047B704700700040EA
:103FF0000000002083DE1B4380B400AF054B9B68AC
:10400000044A43F48043936000BFBD465DF8047BDF
:10401000704700BF0070004080B588B000AF786086
:104020007B68002B01D1012308E37B681B6803F048
:104030000103002B75D0A34B9B6803F00C03BB61FD
:10404000A04BDB6803F003037B61BB690C2B02D13F
:104050007B69032B02D0BB69082B0BD1994B1B68E2
:1040600003F40033002B5BD07B685B68002B57D1D7
:104070000123E3E27B685B68B3F5803F06D1914B97
:104080001B68904A43F4803313601DE07B685B68D3
:10409000B3F5A02F0CD18B4B1B688A4A43F48023C5
:1040A0001360884B1B68874A43F4803313600BE02E
:1040B000844B1B68834A23F480331360814B1B6855
:1040C000804A23F4802313607B685B68002B13D045
:1040D000FDF7EAFC386108E0FDF7E6FC02463B69C3
:1040E000D31A642B01D90323A8E2764B1B6803F48F
:1040F0000033002BF0D014E0FDF7D6FC386108E067
:10410000FDF7D2FC02463B69D31A642B01D9032385
:1041100094E26C4B1B6803F40033002BF0D100E0F9
:1041200000BF7B681B6803F00203002B75D0654B52
:104130009B6803F00C03BB61624BDB6803F0030375
:104140007B61BB690C2B02D17B69022B02D0BB695E
:10415000042B1FD15B4B1B6803F48063002B05D03D
:104160007B68DB68002B01D1012367E2554B5B685C
:1041700023F0FE427B681B691B06524913434B60C8
:10418000514B1B681846FDF743FC0346002B43D0F8
:10419000012353E27B68DB68002B23D0494B1B686B
:1041A000484A43F480731360FDF77EFC386108E0F1
:1041B000FDF77AFC02463B69D31A022B01D903238F
:1041C0003CE2404B1B6803F48063002BF0D03D4B76
:1041D0005B6823F0FE427B681B691B063949134369
:1041E0004B601AE0374B1B68364A23F48073136028
:1041F000FDF75AFC386108E0FDF756FC02463B69C2
:10420000D31A022B01D9032318E22E4B1B6803F4A7
:104210008063002BF0D100E000BF7B681B6803F0D7
:104220000803002B3CD07B685B69002B1CD0254B1E
:10423000D3F89430234A43F00103C2F89430FDF7D9
:1042400033FC386108E0FDF72FFC02463B69D31AC6
:10425000022B01D90323F1E11A4BD3F8943003F078
:104260000203002BEFD01BE0164BD3F89430154A15
:1042700023F00103C2F89430FDF716FC386108E022
:10428000FDF712FC02463B69D31A022B01D9032326
:10429000D4E10C4BD3F8943003F00203002BEFD1A0
:1042A0007B681B6803F00403002B00F0AB80002345
:1042B000FB77044B9B6D03F08053002B06D1012349
:1042C00005E000BF00100240040000200023002B86
:1042D0000DD0AF4B9B6DAE4A43F080539365AC4B12
:1042E0009B6D03F08053FB60FB680123FB77A94BB8
:1042F0001B6803F48073002B18D1A64B1B68A54ADA
:1043000043F480731360FDF7CFFB386108E0FDF7DD
:10431000CBFB02463B69D31A022B01D903238DE163
:104320009C4B1B6803F48073002BF0D07B689B6868
:10433000012B08D1964BD3F89030954A43F00103F6
:10434000C2F8903024E07B689B68052B10D1904B1D
:10435000D3F890308E4A43F00403C2F890308C4B6F
:10436000D3F890308A4A43F00103C2F890300FE04E
:10437000874BD3F89030864A23F00103C2F890307F
:10438000834BD3F89030824A23F00403C2F8903074
:104390007B689B68002B16D0FDF786FB38610AE02E
:1043A000FDF782FB02463B69D31A41F28832934201
:1043B00001D9032342E1764BD3F8903003F0020396
:1043C000002BEDD015E0FDF76FFB38610AE0FDF73B
:1043D0006BFB02463B69D31A41F28832934201D902
:1043E00003232BE16A4BD3F8903003F00203002B38
:1043F000EDD1FB7F012B05D1654B9B6D644A23F00A
:10440000805393657B681B6803F02003002B3CD02E
:104410007B689B69002B1CD05D4BD3F898305C4ABD
:1044200043F00103C2F89830FDF73EFB386108E025
:10443000FDF73AFB02463B69D31A022B01D903234D
:10444000FCE0534BD3F8983003F00203002BEFD07D
:104450001BE04F4BD3F898304D4A23F00103C2F8CC
:104460009830FDF721FB386108E0FDF71DFB02469F
:104470003B69D31A022B01D90323DFE0444BD3F865
:10448000983003F00203002BEFD17B68DB69002B2F
:1044900000F0D3803E4B9B6803F00C030C2B00F024
:1044A0008D807B68DB69022B5AD1394B1B68384AF7
:1044B00023F080731360FDF7F7FA386108E0FDF729
:1044C000F3FA02463B69D31A022B01D90323B5E064
:1044D0002F4B1B6803F00073002BF0D12C4BDA68D4
:1044E0002D4B13407A68116A7A68526A013A1201B8
:1044F00011437A68926A120211437A68126B520869
:10450000013A520511437A68526B5208013A520639
:1045100011437A68D26AD2060A431D491343CB601D
:104520001B4B1B681A4A43F080731360184BDB68FF
:10453000174A43F08073D360FDF7B6FA386108E09C
:10454000FDF7B2FA02463B69D31A022B01D90323C5
:1045500074E00F4B1B6803F00073002BF0D06CE08D
:104560000B4B1B680A4A23F080731360084BDB680F
:10457000074A23F00303D360054BDB68044A23F0AA
:10458000887323F48033D360FDF78EFA38610EE030
:1045900000100240007000400C809F01FDF784FA7B
:1045A00002463B69D31A022B01D9032346E0254B6F
:1045B0001B6803F00073002BF0D13EE07B68DB69E1
:1045C000012B01D1012339E01E4BDB687B617B6944
:1045D00003F003027B681B6A9A422CD17B6903F0CB
:1045E000F0027B685B6A013B1B019A4223D17B6925
:1045F00003F4FE427B689B6A1B029A421BD17B69D3
:1046000003F078427B68DB6ADB069A4213D17B6950
:1046100003F4C0027B681B6B5B08013B5B059A429D
:1046200009D17B6903F0C0627B685B6B5B08013B6F
:104630005B069A4201D0012300E000231846203790
:10464000BD4680BD0010024080B586B000AF7860E6
:10465000396000237B617B68002B01D101231EE1BF
:10466000914B1B6803F00F033A689A4210D98E4BA6
:104670001B6823F00F028C493B6813430B608A4B85
:104680001B6803F00F033A689A4201D0012306E148
:104690007B681B6803F00103002B73D07B685B68A9
:1046A000032B29D1814B1B6803F00073002B01D130
:1046B0000123F4E000F066F938613B697C4A9342DB
:1046C0003FD97A4B9B6803F0F003002B09D07B683D
:1046D0001B6803F00203002B33D07B689B68002B20
:1046E0002FD1724B9B6823F0F003704A43F0800394
:1046F000936080237B6124E07B685B68022B07D199
:104700006A4B1B6803F40033002B09D10123C6E078
:10471000664B1B6803F48063002B01D10123BEE0CC
:1047200000F0CEF838613B69614A934209D95F4B8A
:104730009B6823F0F0035D4A43F08003936080237D
:104740007B615A4B9B6823F003027B685B68574987
:1047500013438B60FDF7A8F9F8600AE0FDF7A4F9B0
:104760000246FB68D31A41F28832934201D90323EF
:1047700095E04E4B9B6803F00C027B685B689B00E6
:104780009A42EBD17B681B6803F00203002B23D015
:104790007B681B6803F00403002B05D0434B9B6828
:1047A000424A43F4E06393607B681B6803F00803AC
:1047B000002B07D03D4B9B6823F47C533B4A43F4CA
:1047C000E0639360394B9B6823F0F0027B689B6841
:1047D000364913438B6008E07B69802B05D1334B4E
:1047E0009B68324A23F0F00393602F4B1B6803F061
:1047F0000F033A689A421DD22B4B1B6823F00F021D
:1048000029493B6813430B60FDF74EF9F8600AE055
:10481000FDF74AF90246FB68D31A41F28832934207
:1048200001D903233BE0204B1B6803F00F033A68D8
:104830009A42EDD17B681B6803F00403002B08D07B
:104840001A4B9B6823F4E0627B68DB6817491343CB
:104850008B607B681B6803F00803002B09D0134BA7
:104860009B6823F460527B681B69DB000F4913438C
:104870008B6000F025F802460C4B9B681B0903F087
:104880000F030C49CB5C03F01F0322FA03F30A4A1F
:1048900013600A4B1B681846FDF7BAF80346184622
:1048A0001837BD4680BD00BF002002400010024006
:1048B00000B4C40478DF00080000002004000020D9
:1048C00080B487B000AF2C4B9B6803F00C03042B23
:1048D00002D12A4B3B6147E0274B9B6803F00C0356
:1048E000082B02D1264B3B613EE0234B9B6803F033
:1048F0000C030C2B36D1204BDB6803F00303FB6069
:104900001D4BDB681B0903F00F030133BB60FB6821
:10491000032B0CD11A4ABB68B2FBF3F3164AD268D8
:10492000120A02F07F0202FB03F37B610CE0134AE0
:10493000BB68B2FBF3F3104AD268120A02F07F029E
:1049400002FB03F37B6100BF0B4BDB685B0E03F0E4
:10495000030301335B007B607A697B68B2FBF3F38E
:104960003B6101E000233B613B6918461C37BD46B3
:104970005DF8047B704700BF001002400024F40083
:1049800000127A0080B487B000AF1E4BDB6803F0E2
:1049900003033B611B4BDB681B0903F00F0301336F
:1049A000FB603B69032B0CD1174AFB68B2FBF3F3A6
:1049B000144AD268120A02F07F0202FB03F37B6101
:1049C0000CE0124AFB68B2FBF3F30E4AD268120AFB
:1049D00002F07F0202FB03F37B6100BF094BDB683F
:1049E0005B0E03F0030301335B00BB607A69BB68B5
:1049F000B2FBF3F37B607B6818461C37BD465DF85D
:104A0000047B70470010024000127A000024F4007A
:104A100080B586B000AF78600023FB740023BB74C0
:104A20007B681B6803F40023002B00F098800023B0
:104A30007B74434B9B6D03F08053002B0DD1404B97
:104A40009B6D3F4A43F0805393653D4B9B6D03F054
:104A50008053BB60BB6801237B743A4B1B68394AA7
:104A600043F480731360FDF71FF8F86009E0FDF769
:104A70001BF80246FB68D31A022B02D90323FB74EE
:104A800005E0304B1B6803F48073002BEFD0FB7CF8
:104A9000002B59D12A4BD3F8903003F440737B613B
:104AA0007B69002B1ED07B681B6C7A699A4219D0F7
:104AB000234BD3F8903023F440737B61204BD3F821
:104AC00090301F4A43F48033C2F890301C4BD3F827
:104AD00090301B4A23F48033C2F89030184A7B6927
:104AE000C2F890307B6903F00103002B16D0FCF76D
:104AF000DBFFF8600BE0FCF7D7FF0246FB68D31A38
:104B000041F28832934202D90323FB7406E00C4B36
:104B1000D3F8903003F00203002BECD0FB7C002B89
:104B20000BD1074BD3F8903023F440727B681B6C99
:104B300003491343C1F8903008E0FB7CBB7405E0E7
:104B40000010024000700040FB7CBB747B7C012B9A
:104B500005D1A64B9B6DA54A23F0805393657B68D6
:104B60001B6803F00103002B0AD0A04BD3F8883058
:104B700023F003027B685B689C491343C1F88830CB
:104B80007B681B6803F00203002B0AD0974BD3F815
:104B9000883023F00C027B689B6894491343C1F86A
:104BA00088307B681B6803F00403002B0AD08F4B0E
:104BB000D3F8883023F030027B68DB688B491343DD
:104BC000C1F888307B681B6803F00803002B0AD00B
:104BD000864BD3F8883023F0C0027B681B69834979
:104BE0001343C1F888307B681B6803F02003002B57
:104BF0000AD07E4BD3F8883023F440627B685B692F
:104C00007A491343C1F888307B681B6803F040037E
:104C1000002B0AD0754BD3F8883023F440527B68C0
:104C20009B6972491343C1F888307B681B6803F0A5
:104C30008003002B0AD06D4BD3F8883023F4404218
:104C40007B68DB6969491343C1F888307B681B685E
:104C500003F48073002B0AD0644BD3F8883023F41C
:104C600040327B681B6A61491343C1F888307B6816
:104C70001B6803F40073002B0AD05C4BD3F8883018
:104C800023F440227B685B6A58491343C1F888309B
:104C90007B681B6803F48063002B15D0534BD3F85B
:104CA000883023F440127B689B6A50491343C1F853
:104CB00088307B689B6AB3F5801F05D14B4BDB685E
:104CC0004A4A43F48013D3607B681B6803F4006393
:104CD000002B15D0454BD3F8883023F440027B6875
:104CE000DB6A42491343C1F888307B68DB6AB3F55D
:104CF000800F05D13D4BDB683C4A43F48013D36001
:104D00007B681B6803F48053002B15D0374BD3F816
:104D1000883023F040727B681B6B34491343C1F821
:104D200088307B681B6BB3F1807F05D12F4BDB682C
:104D30002E4A43F48013D3607B681B6803F400534E
:104D4000002B15D0294BD3F8883023F040627B68C4
:104D50005B6B26491343C1F888307B685B6BB3F10A
:104D6000006F05D1214BDB68204A43F48013D360E8
:104D70007B681B6803F48043002B15D01B4BD3F8D2
:104D8000883023F040627B689B6B18491343C1F85D
:104D900088307B689B6BB3F1006F05D1134BDB68E8
:104DA000124A43F48013D3607B681B6803F400430A
:104DB000002B15D00D4BD3F8883023F040527B6880
:104DC000DB6B0A491343C1F888307B68DB6BB3F1B6
:104DD000805F05D1054BDB68044A43F48033D36020
:104DE000BB7C18461837BD4680BD00BF001002408E
:104DF00080B483B000AF786039607B683A689A62AB
:104E000000BF0C37BD465DF8047B704780B483B0AB
:104E100000AF786039607B683A68DA6200BF0C37AF
:104E2000BD465DF8047B704780B483B000AF786006
:104E300039607B683A681A6300BF0C37BD465DF87D
:104E4000047B704780B483B000AF78607B685B6997
:104E500043F001027B685A6100BF0C37BD465DF824
:104E6000047B704780B584B000AF786039607B68A0
:104E70001B68FB607B68394A93420FD07B68B3F1B3
:104E8000804F0BD07B68364A934207D07B68354A07
:104E9000934203D07B68344A934206D1FB6823F0E7
:104EA00070023B685B681343FB607B682B4A93424C
:104EB0001BD07B68B3F1804F17D07B68284A9342A0
:104EC00013D07B68274A93420FD07B68264A9342CF
:104ED0000BD07B68254A934207D07B68244A9342D3
:104EE00003D07B68234A934206D1FB6823F44072C7
:104EF0003B68DB681343FB607B68FA681A603B68B9
:104F00009B6819467868FFF781FF3B681B88194644
:104F10007868FFF76DFF7B68104A93420FD07B687B
:104F2000114A93420BD07B68104A934207D07B68AA
:104F30000F4A934203D07B680E4A934205D13B68E7
:104F40001B6919467868FFF76FFF7868FFF77AFFEB
:104F5000002318461037BD4680BD00BF002C01401D
:104F600000040040000800400034014000400140BF
:104F7000004401400048014080B485B000AF786033
:104F80007B680022A3F844204BF68073FB60FB682B
:104F90009AB27B68A3F84020002318461437BD4618
:104FA0005DF8047B704780B485B000AF78604BF645
:104FB0008073FB607B68B3F840309AB2FB689BB2A9
:104FC000DB439BB213409AB27B68A3F840200023D6
:104FD00018461437BD465DF8047B704784B080B432
:104FE00083B000AF786007F1140080E80E007B68A2
:104FF0000122A3F840207B680022A3F840207B68B0
:105000000022A3F844207B680022A3F8502000234C
:1050100018460C37BD465DF8047B04B070470000AD
:1050200080B49BB000AF78603960002387F86730A8
:105030007A683B681B789B0013441B889BB223F45F
:10504000EC4323F07003A7F864303B68DB78032B54
:105050001FD801A252F823F06950000885500008BB
:105060009B50000877500008B7F8643043F4007391
:10507000A7F8643012E0B7F8643043F4C063A7F8CF
:1050800064300BE0B7F8643043F48063A7F8643011
:1050900004E0012387F8673000E000BF7A683B68CE
:1050A0001B789B001A44B7F8643043F07F4343F405
:1050B0007F0343F4004343F080039BB213807A687C
:1050C0003B681B789B0013441B889BB21BB223F4E4
:1050D000E04323F070031AB23B681B781BB2134302
:1050E0001BB2A7F85E307A683B681B789B001A44B5
:1050F000B7F85E3043F07F4343F47F0343F400434B
:1051000043F080039BB213803B681B7B002B40F075
:1051100049813B685B78002B00F084807B687B6171
:105120007B68B3F850309BB21A467B6913447B61AD
:105130003B681B78DA007B69134403F580633B61AD
:105140003B68DB885B089BB25B009AB23B691A80C4
:105150007A683B681B789B0013441B88FB81FB89A2
:1051600003F04003002B1BD07A683B681B789B0040
:1051700013441B889BB223F4E04323F07003BB81EC
:105180007A683B681B789B001A44BB8943F07F43D5
:1051900043F47F0343F4004343F0C0039BB2138006
:1051A0003B68DB78012B20D07A683B681B789B003A
:1051B00013441B889BB223F4E04323F040033B815C
:1051C0003B8983F020033B817A683B681B789B0016
:1051D0001A443B8943F07F4343F47F0343F4004385
:1051E00043F080039BB213807FE27A683B681B78B0
:1051F0009B0013441B889BB223F4E04323F040033D
:105200007B817A683B681B789B001A447B8943F05A
:105210007F4343F47F0343F4004343F080039BB296
:10522000138062E27B68FB627B68B3F850309BB20C
:105230001A46FB6A1344FB623B681B78DA00FB6A80
:10524000134403F20443BB623B68DB885B089BB2F8
:105250005B009AB2BB6A1A807B687B627B68B3F89A
:1052600050309BB21A467B6A13447B623B681B78C2
:10527000DA007B6A134403F206433B623B681B6916
:10528000002B12D13B6A1B889BB223F4F8439AB2DD
:105290003B6A1A803B6A1B889BB26FEA43436FEA02
:1052A00053439AB23B6A1A802FE03B681B693E2B3E
:1052B00013D83B681B695B083B663B681B6903F0BE
:1052C0000103002B02D03B6E01333B663B6E9BB269
:1052D0009B029AB23B6A1A8017E03B681B695B0924
:1052E0003B663B681B6903F01F03002B02D13B6E3A
:1052F000013B3B663B6E9BB29B029BB26FEA434312
:105300006FEA53439AB23B6A1A807A683B681B780B
:105310009B0013441B88FB83FB8B03F48043002B0F
:105320001BD07A683B681B789B0013441B889BB298
:1053300023F4E04323F07003BB837A683B681B7857
:105340009B001A44BB8B43F07F4343F47F0343F439
:10535000404343F080039BB213807A683B681B781C
:105360009B0013441B889BB223F4804323F07003FB
:105370007B837B8B83F480537B837B8B83F4005311
:105380007B837A683B681B789B001A447B8B43F0D5
:105390007F4343F47F0343F4004343F080039BB215
:1053A0001380A2E17A683B681B789B0013441B883A
:1053B0009BB223F4E04323F07003A7F85C307A68D3
:1053C0003B681B789B001A44B7F85C3043F07F437E
:1053D00043F47F0343F4014343F080039BB2138003
:1053E0007B68BB657B68B3F850309BB21A46BB6DD7
:1053F0001344BB653B681B78DA00BB6D134403F5AF
:1054000080637B653B681B895B089BB25B009AB23B
:105410007B6D1A807B683B657B68B3F850309BB22C
:105420001A463B6D13443B653B681B78DA003B6DC5
:10543000134403F20443FB643B685B895B089BB243
:105440005B009AB2FB6C1A803B685B78002B40F0E3
:1054500091807A683B681B789B0013441B88BB874C
:10546000BB8F03F48043002B1BD07A683B681B780A
:105470009B0013441B889BB223F4E04323F070038A
:105480007B877A683B681B789B001A447B8F43F0CC
:105490007F4343F47F0343F4404343F080039BB2D4
:1054A00013807A683B681B789B0013441B883B87FA
:1054B0003B8F03F04003002B1BD07A683B681B78BE
:1054C0009B0013441B889BB223F4E04323F070033A
:1054D000FB867A683B681B789B001A44FB8E43F07E
:1054E0007F4343F47F0343F4004343F0C0039BB284
:1054F00013807A683B681B789B0013441B889BB21F
:1055000023F4804323F07003BB86BB8E83F4805367
:10551000BB86BB8E83F40053BB867A683B681B78DE
:105520009B001A44BB8E43F07F4343F47F0343F454
:10553000004343F080039BB213807A683B681B787A
:105540009B0013441B889BB223F4E04323F04003E9
:105550007B867A683B681B789B001A447B8E43F0FD
:105560007F4343F47F0343F4004343F080039BB243
:105570001380BAE07A683B681B789B0013441B8851
:10558000A7F84A30B7F84A3003F48043002B1DD007
:105590007A683B681B789B0013441B889BB223F4FA
:1055A000E04323F07003A7F848307A683B681B7823
:1055B0009B001A44B7F8483043F07F4343F47F031D
:1055C00043F4404343F080039BB213807A683B6806
:1055D0001B789B0013441B88A7F84630B7F8463069
:1055E00003F04003002B1DD07A683B681B789B00BA
:1055F00013441B889BB223F4E04323F07003A7F805
:1056000044307A683B681B789B001A44B7F84430F2
:1056100043F07F4343F47F0343F4004343F0C0036C
:105620009BB213803B68DB78012B24D07A683B68FF
:105630001B789B0013441B889BB223F4E04323F0A8
:105640004003A7F84030B7F8403083F02003A7F8B4
:1056500040307A683B681B789B001A44B7F84030AA
:1056600043F07F4343F47F0343F4004343F080035C
:105670009BB213801DE07A683B681B789B00134443
:105680001B889BB223F4E04323F04003A7F8423089
:105690007A683B681B789B001A44B7F8423043F0A5
:1056A0007F4343F47F0343F4004343F080039BB202
:1056B00013807A683B681B789B0013441B889BB25D
:1056C00023F4804323F07003FB877A683B681B78E0
:1056D0009B001A44FB8F43F07F4343F47F0343F462
:1056E000004343F080039BB2138097F8673018465D
:1056F0006C37BD465DF8047B704700BF80B48DB049
:1057000000AF786039603B681B7B002B40F08E80D7
:105710003B685B78002B44D07A683B681B789B0021
:1057200013441B88BB81BB8903F04003002B1BD0B3
:105730007A683B681B789B0013441B889BB223F458
:10574000E04323F070037B817A683B681B789B0001
:105750001A447B8943F07F4343F47F0343F40043BF
:1057600043F0C0039BB213807A683B681B789B00B0
:1057700013441B889BB223F4E04323F040033B8196
:105780007A683B681B789B001A443B8943F07F434F
:1057900043F47F0343F4004343F080039BB2138040
:1057A00092E17A683B681B789B0013441B887B82DC
:1057B0007B8A03F48043002B1BD07A683B681B78FC
:1057C0009B0013441B889BB223F4E04323F0700337
:1057D0003B827A683B681B789B001A443B8A43F003
:1057E0007F4343F47F0343F4404343F080039BB281
:1057F00013807A683B681B789B0013441B889BB21C
:1058000023F4804323F07003FB817A683B681B78A4
:105810009B001A44FB8943F07F4343F47F0343F426
:10582000004343F080039BB213804DE13B685B78FB
:10583000002B40F0A5807A683B681B789B001344DE
:105840001B883B843B8C03F48043002B1BD07A687D
:105850003B681B789B0013441B889BB223F4E043F6
:1058600023F07003FB837A683B681B789B001A4423
:10587000FB8B43F07F4343F47F0343F4404343F007
:1058800080039BB213807A683B681B789B001344AB
:105890001B88BB83BB8B03F04003002B1BD07A68B3
:1058A0003B681B789B0013441B889BB223F4E043A6
:1058B00023F070037B837A683B681B789B001A4453
:1058C0007B8B43F07F4343F47F0343F4004343F077
:1058D000C0039BB213807A683B681B789B0013441B
:1058E0001B889BB223F4E04323F070033B837A6868
:1058F0003B681B789B001A443B8B43F07F4343F487
:105900007F0343F4004343F0C0039BB213807A68E3
:105910003B681B789B0013441B889BB223F4804395
:1059200023F07003FB827A683B681B789B001A4463
:10593000FB8A43F07F4343F47F0343F4004343F087
:1059400080039BB213807A683B681B789B001344EA
:105950001B889BB223F4E04323F04003BB827A68A8
:105960003B681B789B001A44BB8A43F07F4343F497
:105970007F0343F4004343F080039BB21380A3E012
:105980007A683B681B789B0013441B88FB85FB8D62
:1059900003F48043002B1BD07A683B681B789B0084
:1059A00013441B889BB223F4E04323F07003BB85B0
:1059B0007A683B681B789B001A44BB8D43F07F4399
:1059C00043F47F0343F4404343F080039BB21380CE
:1059D0007A683B681B789B0013441B887B857B8D12
:1059E00003F04003002B1BD07A683B681B789B00B8
:1059F00013441B889BB223F4E04323F070033B85E0
:105A00007A683B681B789B001A443B8D43F07F43C8
:105A100043F47F0343F4004343F0C0039BB213807D
:105A20007A683B681B789B0013441B889BB223F465
:105A3000E04323F07003FB847A683B681B789B008B
:105A40001A44FB8C43F07F4343F47F0343F4404309
:105A500043F080039BB213807A683B681B789B00FD
:105A600013441B889BB223F4E04323F04003BB8420
:105A70007A683B681B789B001A44BB8C43F07F43D9
:105A800043F47F0343F4004343F080039BB213804D
:105A90007A683B681B789B0013441B889BB223F4F5
:105AA000804323F070037B847A683B681B789B00FB
:105AB0001A447B8C43F07F4343F47F0343F4004359
:105AC00043F080039BB21380002318463437BD4651
:105AD0005DF8047B704780B5CCB000AF3B1D18600B
